:020000023000CC
:1000000000400420110203008D020300910203004E
:100010008902030089020300890203000000000036
:100020000000000000000000000000009502030036
:100030008902030000000000990203009D020300F2
:10004000A1020300A5020300A9020300AD02030000
:10005000B1020300B5020300B9020300BD020300B0
:10006000C1020300C5020300C9020300CD02030060
:1000700039490300D5020300D9020300DD02030061
:10008000E1020300E5020300E9020300ED020300C0
:10009000F1020300F5020300F9020300FD02030070
:1000A0000103030005030300090303000D0303001C
:1000B0001103030015030300190303001D030300CC
:1000C0002103030025030300290303002D0303007C
:1000D0003103030035030300390303003D0303002C
:1000E0004103030045030300490303004D030300DC
:1000F0005103030055030300590303005D0303008C
:100100006103030065030300690303006D0303003B
:100110007103030075030300790303007D030300EB
:100120008103030085030300890303008D0303009B
:1001300010B5054C237833B9044B13B1044800E0E3
:1001400000BF0123237010BDB82202200000000070
:10015000E46D03000C4B43B10C480D4910B500E0B1
:1001600000BF0C48036823B910BD0A48036833B9BF
:100170007047094B002BF7D0BDE810401847064BDD
:10018000002BF5D0184700BF00000000E46D03000D
:10019000BC220220B022022000000000154B002BE0
:1001A00008BF134B9D46A3F5803A00218B460F46AE
:1001B0001348144A121A05F04DFF0F4B002B00D0C4
:1001C00098470E4B002B00D09847002000210400D8
:1001D0000D000D48002802D00C4803F011F905F07D
:1001E000EBFE2000290003F063F903F006F900BFDD
:1001F0000000080000400420000000009D340300BF
:10020000B8220220786602200134030000000000BA
:10021000124880471249134A134B9A42BEBF51F805
:10022000040B42F8040BF8E71049114A00209142F0
:10023000BCBF41F8040BFAE700200E490E4A914278
:10024000BCBF41F8040BFAE70C490D4A9142BCBF10
:1002500041F8040BFAE762B60A488047E93B03001D
:10026000546E030000220220B8220220B82202208D
:1002700078660220786602200030042000300420D6
:10028000004004209D010300FFF7FEBF40480047E7
:100290004048004740480047404800474048004722
:1002A0004048004740480047404800474048004712
:1002B0004048004740480047404800474048004702
:1002C00040480047404800474048004740480047F2
:1002D00040480047404800474048004740480047E2
:1002E00040480047404800474048004740480047D2
:1002F00040480047404800474048004740480047C2
:1003000040480047404800474048004740480047B1
:1003100040480047404800474048004740480047A1
:100320004048004740480047404800474048004791
:100330004048004740480047404800474048004781
:100340004048004740480047404800474048004771
:100350004048004740480047404800474048004761
:100360004048004740480047404800474048004751
:100370004048004740480047404800474048004741
:100380004048004740480047404800474048004731
:100390008D020300910203009502030099020300FD
:1003A0009D0203008902030055450300D546030062
:1003B000F14603008D470300B9470300E5470300FA
:1003C00011480300C54D0300890203006544030082
:1003D0006B440300890203007744030015460300C1
:1003E0002D460300454603005D46030075460300A5
:1003F0008D460300A5460300BD46030089020300A5
:1004000089020300890203008902030089020300B4
:1004100089020300890203008902030089020300A4
:10042000890203003D480300694803009548030022
:10043000C1480300714403007D4403000D470300DD
:10044000890203008902030089020300494903006D
:100450008902030089020300890203008902030064
:100460008902030089020300890203003547030063
:100470006147030089020300890203008902030027
:100480008902030089020300890203006145030019
:100490008902030010F8012B11F8013B012A28BF43
:1004A0009A42F7D0D01A7047D0400B1CD1409C46DE
:1004B000203AD34018435242634693401843704752
:1004C0009140031C90409C46203A9340194352426D
:1004D0006346D3401943704781F0004102E000BFFA
:1004E00083F0004330B54FEA41044FEA430594EAF4
:1004F000050F08BF90EA020F1FBF54EA000C55EA2F
:10050000020C7FEA645C7FEA655C00F0E2804FEAFF
:100510005454D4EB5555B8BF6D420CDD2C4480EAE1
:10052000020281EA030382EA000083EA010180EA11
:10053000020281EA0303362D88BF30BD11F0004F5F
:100540004FEA01314FF4801C4CEA113102D0404295
:1005500061EB410113F0004F4FEA03334CEA1333D0
:1005600002D0524263EB430394EA050F00F0A780E8
:10057000A4F10104D5F1200E0DDB02FA0EFC22FAE3
:1005800005F2801841F1000103FA0EF2801843FAD7
:1005900005F359410EE0A5F120050EF1200E012AC8
:1005A00003FA0EFC28BF4CF0020C43FA05F3C01806
:1005B00051EBE37101F0004507D54FF0000EDCF17F
:1005C000000C7EEB00006EEB0101B1F5801F1BD328
:1005D000B1F5001F0CD349085FEA30004FEA3C0C2C
:1005E00004F101044FEA445212F5800F80F09A8022
:1005F000BCF1004F08BF5FEA500C50F1000041EB26
:10060000045141EA050130BD5FEA4C0C404141EB29
:10061000010111F4801FA4F10104E9D191F0000F50
:1006200004BF01460020B1FA81F308BF2033A3F1D3
:100630000B03B3F120020CDA0C3208DD02F1140CCA
:10064000C2F10C0201FA0CF021FA02F10CE002F105
:100650001402D8BFC2F1200C01FA02F120FA0CFCFE
:10066000DCBF41EA0C019040E41AA2BF01EB045147
:10067000294330BD6FEA04041F3C1CDA0C340EDC45
:1006800004F11404C4F1200220FA04F001FA02F388
:1006900040EA030021FA04F345EA030130BDC4F146
:1006A0000C04C4F1200220FA02F001FA04F340EA3B
:1006B0000300294630BD21FA04F0294630BD94F0EC
:1006C000000F83F4801306BF81F480110134013DD3
:1006D0004EE77FEA645C18BF7FEA655C29D094EA44
:1006E000050F08BF90EA020F05D054EA000C04BFC2
:1006F0001946104630BD91EA030F1EBF00210020AD
:1007000030BD5FEA545C05D14000494128BF41F04B
:10071000004130BD14F580043CBF01F5801130BDAF
:1007200001F0004545F0FE4141F470014FF000003A
:1007300030BD7FEA645C1ABF194610467FEA655CEB
:100740001CBF0B46024650EA013406BF52EA03358D
:1007500091EA030F41F4002130BD00BF90F0000F7B
:1007600004BF0021704730B54FF4806404F13204B7
:100770004FF000054FF0000150E700BF90F0000F70
:1007800004BF0021704730B54FF4806404F1320497
:1007900010F0004548BF40424FF000013EE700BF67
:1007A00042004FEAE2014FEA31014FEA02701FBFF7
:1007B00012F07F4393F07F4F81F06051704792F0C9
:1007C000000F14BF93F07F4F704730B54FF4607443
:1007D00001F0004521F0004120E700BF50EA01028E
:1007E00008BF704730B54FF000050AE050EA01023B
:1007F00008BF704730B511F0004502D5404261EBAB
:1008000041014FF4806404F132045FEA915C3FF4EB
:10081000DCAE4FF003025FEADC0C18BF03325FEA84
:10082000DC0C18BF033202EBDC02C2F1200300FA39
:1008300003FC20FA02F001FA03FE40EA0E0021FA5E
:1008400002F11444C1E600BF70B54FF0FF0C4CF448
:10085000E06C1CEA11541DBF1CEA135594EA0C0FFE
:1008600095EA0C0F00F0DEF82C4481EA030621EA39
:100870004C5123EA4C5350EA013518BF52EA033574
:1008800041F4801143F4801338D0A0FB02CE4FF026
:100890000005E1FB02E506F00042E0FB03E54FF056
:1008A0000006E1FB03569CF0000F18BF4EF0010E4E
:1008B000A4F1FF04B6F5007F64F5407404D25FEA4A
:1008C0004E0E6D4146EB060642EAC62141EA5551FD
:1008D0004FEAC52040EA5E504FEACE2EB4F1FD0C3F
:1008E00088BFBCF5E06F1ED8BEF1004F08BF5FEABD
:1008F000500E50F1000041EB045170BD06F000466F
:1009000046EA010140EA020081EA0301B4EB5C041B
:10091000C2BFD4EB0C0541EA045170BD41F4801113
:100920004FF0000E013C00F3AB8014F1360FDEBF38
:10093000002001F0004170BDC4F10004203C35DA14
:100940000C341BDC04F11404C4F1200500FA05F397
:1009500020FA04F001FA05F240EA020001F0004238
:1009600021F0004110EBD37021FA04F642EB0601AE
:100970005EEA430E08BF20EAD37070BDC4F10C04D8
:10098000C4F1200500FA04F320FA05F001FA04F29C
:1009900040EA020001F0004110EBD37041F1000188
:1009A0005EEA430E08BF20EAD37070BDC4F1200593
:1009B00000FA05F24EEA020E20FA04F301FA05F2FB
:1009C00043EA020321FA04F001F0004121FA04F2A3
:1009D00020EA020000EBD3705EEA430E08BF20EA73
:1009E000D37070BD94F0000F0FD101F000464000AD
:1009F00041EB010111F4801F08BF013CF7D041EA2F
:100A0000060195F0000F18BF704703F00046520032
:100A100043EB030313F4801F08BF013DF7D043EA03
:100A20000603704794EA0C0F0CEA135518BF95EAB9
:100A30000C0F0CD050EA410618BF52EA4306D1D140
:100A400081EA030101F000414FF0000070BD50EA5F
:100A5000410606BF1046194652EA430619D094EAE9
:100A60000C0F02D150EA013613D195EA0C0F05D1D3
:100A700052EA03361CBF104619460AD181EA030127
:100A800001F0004141F0FE4141F470014FF00000DF
:100A900070BD41F0FE4141F4780170BD70B54FF07A
:100AA000FF0C4CF4E06C1CEA11541DBF1CEA1355FA
:100AB00094EA0C0F95EA0C0F00F0A7F8A4EB0504DC
:100AC00081EA030E52EA03354FEA013100F08880D3
:100AD0004FEA03334FF0805545EA131343EA12639C
:100AE0004FEA022245EA111545EA10654FEA002651
:100AF0000EF000419D4208BF964244F1FD0404F50A
:100B0000407402D25B084FEA3202B61A65EB030565
:100B10005B084FEA32024FF480104FF4002CB6EB22
:100B2000020E75EB030E22BFB61A754640EA0C00A2
:100B30005B084FEA3202B6EB020E75EB030E22BFE2
:100B4000B61A754640EA5C005B084FEA3202B6EB23
:100B5000020E75EB030E22BFB61A754640EA9C00E2
:100B60005B084FEA3202B6EB020E75EB030E22BFB2
:100B7000B61A754640EADC0055EA060E18D04FEA70
:100B8000051545EA16754FEA06164FEAC30343EA10
:100B900052734FEAC2025FEA1C1CC0D111F4801FDD
:100BA0000BD141EA00014FF000004FF0004CB6E7D6
:100BB00011F4801F04BF01430020B4F1FD0C88BF75
:100BC000BCF5E06F3FF6AFAEB5EB030C04BFB6EB80
:100BD000020C5FEA500C50F1000041EB045170BD73
:100BE0000EF0004E4EEA113114EB5C04C2BFD4EBA0
:100BF0000C0541EA045170BD41F480114FF0000E24
:100C0000013C90E645EA060E8DE60CEA135594EA9F
:100C10000C0F08BF95EA0C0F3FF43BAF94EA0C0FA2
:100C20000AD150EA01347FF434AF95EA0C0F7FF417
:100C300025AF104619462CE795EA0C0F06D152EA6B
:100C400003353FF4FDAE1046194622E750EA41064F
:100C500018BF52EA43067FF4C5AE50EA41047FF460
:100C60000DAF52EA43057FF4EBAE12E74FEA4102C3
:100C7000B2F1E04324BFB3F5001CDCF1FE5C0DD9FA
:100C800001F0004C4FEAC0024CEA5070B2F1004F44
:100C900040EB830008BF20F00100704711F0804F47
:100CA00021D113F13872BCBF01F00040704741F40C
:100CB00080114FEA5252C2F11802C2F1200C10FA10
:100CC0000CF320FA02F018BF40F001004FEAC123F4
:100CD0004FEAD32303FA0CFC40EA0C0023FA02F398
:100CE0004FEA4303CCE77FEA625307D150EA01336E
:100CF0001EBF4FF0FE4040F44000704701F000403E
:100D000040F0FE4040F40000704700BF53B94AB9BC
:100D1000002908BF00281CBF4FF0FF314FF0FF3003
:100D200000F070B9ADF1080C6DE904CE00F006F8E2
:100D3000DDF804E0DDE9022304B070472DE9F04F4F
:100D40008C460D460446099E002B4CD18A4296469D
:100D500065D9B2FA82F757B1C7F1200CBD4000FA4D
:100D600007F402FA07FE20FA0CF040EA050C4FEAFD
:100D70001E4A4FEA14481FFA8EF2BCFBFAF90AFB2E
:100D800019C509FB02FB48EA0545AB4509D975447D
:100D9000AB4540F21F81AE4500F21C81A9F102096A
:100DA0007544A5EB0B05A3B2B5FBFAF00AFB105591
:100DB00000FB02F243EA0544A24208D914EB0E04F8
:100DC00080F01181A24240F20E8102387444A41ACC
:100DD00040EA09400021002E60D0FC40002334602E
:100DE0007360BDE8F08F8B4207D9002E54D00021EC
:100DF00086E821000846BDE8F08FB3FA83F10029A8
:100E000040F08880AB42C0F0E880824240F2E5804A
:100E10000846002E42D086E81010BDE8F08F1AB9BF
:100E20004FF0010EBEFBF2FEBEFA8EF7C7BBA5EB7C
:100E30000E054FEA1E4C1FFA8EF80121230CB5FB5C
:100E4000FCF20CFB125508FB02F043EA0545A842F0
:100E500008D97544A84240F2B980AE4500F2B68088
:100E6000023A75442D1AA3B2B5FBFCF00CFB1055E9
:100E700008FB00F843EA0544A04508D914EB0E042A
:100E800080F0A680A04540F2A38002387444A4EB11
:100E9000080440EA02409EE731463046BDE8F08F44
:100EA000C7F120020EFA07FE05FA07F300FA07F46D
:100EB000D5404FEA1E4CD0401FFA8EF8B5FBFCF12E
:100EC00018430CFB115201FB08F3050C45EA0245DF
:100ED000AB4208D97544AB4240F28E80AE4500F279
:100EE0008B8002397544EB1A85B2B3FBFCF20CFB24
:100EF000123302FB08F045EA0345A84206D915EB78
:100F00000E0572D2A84270D9023A75442D1A42EAEF
:100F1000014193E7C1F120048B4002FA01F705FA81
:100F200001FCE24020FA04F8E54000FA01FE1A4311
:100F300048EA0C0C4FEA12484FEA1C431FFA82FAA7
:100F4000B5FBF8F908FB195509FB0AF043EA05451A
:100F5000A84207D91544A8424BD9AA4249D8A9F1B9
:100F6000020915442D1A1FFA8CFCB5FBF8F008FB9A
:100F7000105500FB0AFA4CEA05439A4505D99B181F
:100F800035D29A4533D90238134440EA0940A3EBDD
:100F90000A03A0FB07894B45C4464D4602D306D140
:100FA000C64504D20138B8EB070C69EB02052EB335
:100FB000BEEB0C0263EB0503CA4003FA04F4CB401A
:100FC0000021144373603460BDE8F08F013A49E7B3
:100FD00001385CE709F1FF39E3E6841A65EB0305A4
:100FE0000120AC4615E70138F1E6013A8EE70138F9
:100FF000CBE709F1FF39B5E7013974E73146BDE8C0
:10100000F08F00BF704700BF002070472DE9D0432C
:10101000DDE906891F46036816469B6A0446984721
:1010200002460B4630463946FFF770FE134302D0A6
:101030000020BDE8D083236820469B6A984702467B
:101040000B4640464946FFF761FE1343F0D1236843
:1010500016EB08069B6B204647EB09079847B942F9
:1010600008BFB0422CBF01200020BDE8D0832DE98D
:10107000D043DDE906891F46036816465B6A0446CD
:10108000984702460B4630463946FFF73FFE13436A
:1010900002D00020BDE8D083236820465B6A9847D1
:1010A00002460B4640464946FFF730FE1343F0D157
:1010B000236816EB08069B6B204647EB0907984709
:1010C000B94208BFB0422CBF01200020BDE8D08348
:1010D0000020704703689B6A18470368DB6A18475B
:1010E0004FF0FF3070477047704710B504460368F3
:1010F0005B6D984794F8603033B963662368204687
:101100009B6D9847002010BD636E013B6366002B0A
:10111000F4D184F8603000220023C4E90223EDE713
:101120004FF4007000217047C36881685B02480279
:1011300043EAD15170470000004870470C62030039
:1011400080F86110704770B50024064620460131D2
:10115000891A8C420CD01519A6EBD503DB7B05F060
:1011600007052B4103F00103A34018430134F0E7C6
:1011700070BD016870B5096B14461D460646884768
:1011800002460B4620462946FFF7C0FD134301D017
:10119000002070BDDDE90423A4185D41336814F11B
:1011A000FF32196B304645F1FF33884702460B4644
:1011B00020462946FFF7AAFD1343E9D1336830469C
:1011C0009B6B9847A94208BFA0422CBF012000207A
:1011D00070BD00002DE9F3419846194B1646036097
:1011E000002200230D460446C0E9022310300A9F66
:1011F00000F018FF4FF0FF332946002532460093D8
:1012000004F15806434604F1380000F0B9FD9DF999
:101210002010304684F8585001F02FFB304684F8F7
:1012200060506566012102F089F9064B2046236370
:101230004FF4007325716763E36502B0BDE8F08188
:1012400018620300A08601002DE9F843DDE9088952
:1012500014461D46C76D06463A46002320462946D9
:10126000FFF754FD134317D13A4600234046494641
:10127000FFF74CFD13430FD1336814EB08049B6B4D
:10128000304645EB09059847A94208BFA0422CBF4C
:1012900001200020BDE8F8830020BDE8F8830000AD
:1012A000416B08B5084B0246994200F1380003D85B
:1012B00000F0BFFD002008BD5363194600F0B9FDE2
:1012C0006FF0150008BD00BF40787D0138B50446B9
:1012D000154603685B6D984765632046FFF7E0FF9E
:1012E0000546236820469B6D9847284638BD000078
:1012F000094B10B5036090F8603004460BB1FFF75E
:10130000F4FE04F1380000F0DDFC04F1100000F000
:101310000BFE204610BD00BF1862030010B5044646
:10132000FFF7E6FF2046682102F09EF8204610BD38
:1013300073B501F03F0343F040038DF80030130E06
:101340008DF80130130C8DF80230130A0D468DF81C
:1013500003308DF8042019B1082921D0FF2300E0C3
:10136000952300268DF8053000F138041DF806108D
:101370002046013600F0A2FD062EF7D10C2D03D138
:10138000FF21204600F09AFD1025FF21204600F0A5
:1013900095FD030601D5013DF7D1C0B202B070BD85
:1013A0008723DEE770B500F11004054620460E469F
:1013B00000F027FE204600F0C7FD3835FF21284603
:1013C00000F07CFD8642204603D100F0E8FD0120BC
:1013D00070BD00F00DFEB0F5967FEFDB204600F00B
:1013E000DEFD002070BD70B500F1100405462046FA
:1013F0000E4600F006FE204600F0A6FD3835FF211F
:10140000284600F05BFDC0B2FF28204603D100F063
:10141000C6FD012070BD00F0EBFDB042EFDB2046C1
:1014200000F0BDFD002070BD70B50E46002400F137
:101430003805E3B2B34204F1010404DAFF2128467F
:1014400000F03CFDF5E770BD73B50D46FE21044686
:101450001646FFF7A7FF90B10022383411462B46FD
:101460000096204600F03AFDFF21204600F026FDC0
:10147000FF21204600F022FD002002B070BD01488F
:10148000FBE700BF70ECFFFFF7B500F1380405463D
:101490000E46204611461F4600F010FD00233A4636
:1014A00000933146204600F019FD6FF07F41204641
:1014B00000F004FD4FF0FF31204600F0FFFCFF215B
:1014C000204600F0FBFC42F2107104462846FFF76C
:1014D0008AFF04F01F0003B0F0BD38B5044600F1E8
:1014E0003805284600F0E4FBFF21284600F0E6FC22
:1014F00004F158000021BDE8384002F01FB838B5AB
:10150000054600F13804204600F0D2FB296B204646
:1015100000F08FFC00222046082100F06DFC2046E0
:10152000FF2100F0F4FC05F15800012102F006F85B
:1015300028460A21FFF778FF2046BDE8384000F032
:10154000B7BB10B5044601213834583001F0F6FF1E
:101550002046FF2100F0B2FC2046BDE8104000F01C
:10156000A7BB00002DE9F0470C46064691469A4677
:10157000DDF82080FFF7B1FF0C2C04D042F210718F
:101580003046FFF730FF0325BAF1000F09D03721AD
:1015900000223046FFF7CCFE42F210713046FFF7D2
:1015A00022FF4A4621463046FFF7C2FEFF28074683
:1015B00071D1013DE8D1B8F1000F03D0FF28C8F880
:1015C00000006BD13046FFF7BCFF3848BDE8F0871C
:1015D000420709D53046FFF7B4FF082C01D1042398
:1015E00033713348BDE8F08710F0120F1BD110F0B3
:1015F000600F304D08BF00250D2C3DD015DC082CA8
:1016000031D00C2C32D0B8F1000F01D0C8F80070E6
:10161000093CE4B2102C38D8274B23FA04F4E30732
:1016200033D595BB34E0254DE6E7262C1ED03A2C69
:10163000E9D106F13809FF21484600F03FFCFF21BF
:101640000706484600F03AFCFF2147EA00474846B3
:1016500000F034FCFF218246484600F02FFC07438F
:1016600047EA0A27CFE702233371E2E742F210711B
:101670003046FFF7B8FEC6E7FF2106F1380000F05C
:101680001DFC0746B8F1000FC0D13046FFF759FFE7
:101690002846BDE8F087B8F1000F8FD1010797D534
:1016A0003046FFF74EFF0648BDE8F08773ECFFFFBA
:1016B00076ECFFFF75ECFFFF01A301006EECFFFF6E
:1016C0006FECFFFF2DE9F341DDE90867CDE9006725
:1016D000044690461D46FFF7B7FD002840D023681A
:1016E00020465B6D984794F8603043B923682046E4
:1016F0009B6D98471B4D284602B0BDE8F0812379C9
:10170000B6F5007647F1FF37032B07D1730A43EA9A
:10171000C7531E464FEA582848EAC5580023424698
:10172000009320212046FFF71DFF054620B12368C6
:1017300020469B6D9847DEE70090034608EB0602C3
:1017400021212046FFF70EFF05460028EFD100902B
:101750000346024626212046FFF704FF0546E6E73A
:10176000014DC8E774ECFFFF75ECFFFF1FB50023C8
:1017700004AA42F8043D009208214FF4D5720446B1
:10178000FFF7F0FE58B92379022B08D1039BC3F36E
:101790000B03B3F5D57F1EBF04230248237104B0A9
:1017A00010BD00BF71ECFFFF7FB50546052403AEF9
:1017B000002300961A4619462846FFF7D3FE039BDE
:1017C000012B04D0012001F089FE013CF0D10398E7
:1017D00004B070BD00232DE9F043054680F8613068
:1017E00085B0FFF78CFE2846FFF7DEFF01285AD1AF
:1017F0002846FFF7BBFF10B12C4B98420ED10023B7
:1018000003AF00971A463A212846FFF7ABFE28B9E6
:10181000039BD90205D4042325482B7105B0BDE8EC
:10182000F0832B7905F11006022B304614BF4FF0E0
:1018300000094FF0804942F20F7800F085FB012348
:101840004A46009729212846FFF78CFE039B044651
:10185000DA0704D5304600F0CBFB4045EFDD3046DB
:1018600000F09DFB0CB9039B1BB1042320462B7198
:10187000D4E72B79022B14D10097234622463A2134
:101880002846FFF76FFE20B9039B5B0001D50323B9
:101890002B7100233B2100931A462846FFF762FE76
:1018A000BCE70123F4E70348B8E700BF76ECFFFF8D
:1018B00071ECFFFF73ECFFFF2DE9F7430A9D0B9FCF
:1018C0000E4601688DE8A000096C044690469946D2
:1018D000884700285CD0236820465B6D984794F8C1
:1018E000603043B9236820469B6D9847294F38469E
:1018F00003B0BDE8F0836D0A45EAC7550027237998
:101900000097032B04BF4FEA582848EAC958012D15
:101910001BD13B46424618212046FFF723FE0746CF
:1019200020B1236820469B6D9847E0E74FF4007391
:10193000FE2231462046FFF7A7FD174B052818BFAA
:101940001F462046FFF7FDFDEBE701232A4617213E
:101950002046FFF707FE00973B46424619212046E6
:10196000FFF700FE07460028DBD14FF40073FC228E
:1019700031462046FFF788FD052803D1013D06F5D5
:101980000076F2D1FD2104F1380000F097FAD8E793
:10199000024FACE774ECFFFF6DECFFFF75ECFFFF4F
:1019A0002DE9F347DDE90A890F460168CDE9008991
:1019B000C96B044615469A46884750B123682046AD
:1019C0005B6D984794F860302BB9236820469B6D77
:1019D0009847214D1BE023794FEA5826032B4FF0FF
:1019E000000308BF6D0A46EAC95608BF45EACA5552
:1019F000012E2A4600938CBF122111212046FFF7A9
:101A0000B1FD054638B1236820469B6D98472846AE
:101A100002B0BDE8F0875EB14FF40072394620464F
:101A2000FFF712FD18B907F50077013EF3E70B4DFC
:101A30002046FFF786FD00234FF400724B4508BF98
:101A40004245E0D200230C2100931A462046FFF7BE
:101A500089FD0546D7E700BF75ECFFFF70ECFFFF7F
:101A6000F8B50C46FE2105461746FFF79BFC20B94A
:101A70002846FFF766FD0D48F8BD274405F13806F6
:101A8000BC424FF0FF01304604D000F017FA04F8D2
:101A9000010BF5E700F012FAFF21304600F00EFAD4
:101AA0002846FFF74EFD0020F8BD00BF70ECFFFF99
:101AB000F0B5002487B0009423462246092106464B
:101AC000FFF750FD074600284DD1102202A93046ED
:101AD000FFF7C6FF0546002844D17E227F2102A8D9
:101AE000FFF731FB18B1012834D02C463BE03E22F1
:101AF000492102A8FFF727FB2F220446312102A823
:101B0000FFF721FB50220546532102A8FFF71BFBDC
:101B100001232E2202350134AC4003FA00F0A4FB6D
:101B20000001440A44EAC1544D0A02A81146FFF7D5
:101B30000AFB18B14FF40073F36507E027222D214B
:101B400002A8FFF700FB01304002F065204629465D
:101B500007B0F0BD3022452102A8FFF7F4FA0130AA
:101B60008402E7E73C462546F0E737B504460368BC
:101B70005B6D984794F8603003B96366636E013318
:101B8000012B63662FD12046FFF724FE051E0CBFF4
:101B90000123002384F8603004D0236820469B6D25
:101BA00098470DE02046FFF783FF50EA0103C4E9A0
:101BB000020108D1236820469B6D98476FF47A652F
:101BC000284603B030BD00952B464FF4007210211B
:101BD0002046FFF7C7FC0028ECD12046FFF760FB4A
:101BE00005460028D9D1236820469B6D98470025DB
:101BF000E6E77047704703F0F3B803F0FEB803F070
:101C0000FFB803F000B90246006818B9106808B9B7
:101C1000101D10607047000070B505460A4E304632
:101C2000FFF7F1FF284605F0F3F80446284603F0D5
:101C3000E1F801F009FC68603046FFF7E4FF201C82
:101C400018BF0120404270BDD422022038B505469D
:101C50000948FFF7D8FF284603F0C0F8003018BF46
:101C600001204442686808B101F000FC0248FFF717
:101C7000CAFF204638BD00BFD42202202DE9F04122
:101C80000F46164605469846084C2046FFF7BBFF10
:101C900043463A463146284605F0CAF805462046EE
:101CA000FFF7B1FF2846BDE8F08100BFD422022033
:101CB0004368DA6822B9DA6812B903F11002DA600F
:101CC0007047000008B5064B0360FFF7F1FF43685B
:101CD0005A69904204BF00225A61FFF7E9FF08BD2C
:101CE0007C62030010B50446FFF7ECFF204620217C
:101CF00001F0BAFB204610BD38B5054601F096FA52
:101D0000074B1B68002B08DD064C2078A84218BF43
:101D1000002401F095FA204638BD0024F9E700BF01
:101D2000F4220220DC2202201820044A1368591CE5
:101D30001160034A00FB0320704700BFF422022019
:101D4000DC22022038B5082303610C4B0025836197
:101D5000FF23457745610377044601F067FA28467B
:101D6000FFF7CAFF0546606018B9FFF7DDFF606046
:101D70000570BDE8384001F063BA00BF40420F0073
:101D800010B504460A48A3729DF908302060E3723A
:101D900020460023217262724FF0FF3100F80C3FA1
:101DA00000F06BFD2046FFF7CDFF204610BD00BFC1
:101DB0007C62030037B50446406843699C4219D0F1
:101DC00094F90B5094F90A3094F9092094F9081009
:101DD0000430009501F0FCFC606800236269216911
:101DE000043001F097FD6068A169043001F0D6FD70
:101DF00063685C6103B030BD70B504460D4616469D
:101E000003681B69984760682561436966619C4265
:101E10000BD1002332462946043001F07BFD2368B4
:101E20002046BDE870405B6918472046FFF7C2FFB7
:101E3000F5E770B504460D4603681B69984760686E
:101E4000A56143699C4209D12946043001F0A6FDF1
:101E500023682046BDE870405B6918472046FFF7BD
:101E6000A9FFF5E790F90C30013302D00C3001F0F6
:101E700065BB704738B5044603681B69984794F9F9
:101E80001D506B1C637745B92046FFF793FF294629
:101E90002046BDE83840FFF7E5BF38BD10B5437FA9
:101EA0000446013B5BB2437713B90121FFF7DAFF28
:101EB00023682046BDE810405B69184738B50446E2
:101EC0000D46FFF7D7FF60682946043001F076FD24
:101ED00005462046FFF7E2FF284638BDF7B5044621
:101EE0001F460D461646FFF7C5FF237F6068019326
:101EF000089B2946009332463B46043001F076FDAC
:101F000005462046FFF7CAFF284603B0F0BD70B56E
:101F100004460D4603681B699847236825772046C9
:101F2000BDE870405B69184710B5044601F07EF9C2
:101F300023681BB1237F0BB101F010FA002323604B
:101F400001F07EF9204610BD10B5044601F06EF98F
:101F5000236853B9237F0BB101F0E8F9A06900F0C1
:101F60000DFF0123C4E902012360BDE8104001F028
:101F700067B938B5044601F059F9236863B1A0691F
:101F800000F0FCFED4E90245041B61EB050501F0FD
:101F900057F92046294638BD00240025F7E710B53B
:101FA000044601F043F92046FFF7E3FFD4E9042398
:101FB000801859412368C4E904011BB1237F0BB188
:101FC00001F0CCF900232360BDE8104001F038B9DE
:101FD00070B5064601F02AF9D6E904453046FFF708
:101FE000C8FF24184D4101F02BF92046294670BD49
:101FF00008B5FFF7EDFF4FF47A720023FEF786FE77
:1020000008BD10B5044601F011F9A06900F0B6FE54
:1020100000220023C4E90201C4E90423BDE8104002
:1020200001F00EB9002310B5002203600023C0E9BF
:102030000223C0E90423044600F0B6FE0123A06198
:1020400023772046FFF7DDFF204610BD03689B681D
:102050001847000010B50446074B002223600023F8
:10206000C4E9022300230846A16123616361034997
:1020700000F0FAFD204610BD9C6603004D200300D1
:1020800007B5009000F10801806900F02CFE03B054
:102090005DF804FB00F10801806900F054BE000007
:1020A00010B50446024B0360FFF7F4FF204610BD55
:1020B0009C660300024B0A461B680021184700BFBC
:1020C000042202206C22002103F0C4BF10B16C2155
:1020D000FFF7F0BF70470000002303604360B9B909
:1020E000184B8360184BC360184B0361184B436156
:1020F000184B8361184BC361184B036203F174538F
:10210000A3F52303A3F69243436281660020704740
:10211000134B8360134BC36003F1794303F57403DE
:1021200003F501630361104B4361104B836103F1BD
:10213000D14303F5C01303F51E63C3610C4B036267
:102140000C4BE1E767E6096A85AE67BB72F36E3C4C
:102150003AF54FA57F520E518C68059BABD9831F72
:10216000D89E05C107D57C3639590EF7310BC0FF13
:10217000A78FF964A44FFABEFFF7AEBF2DE9F04F69
:1021800000F10803CBB000931A46002352F8044B29
:1021900002A840F823400133082BF7D14FF0000E7E
:1021A000059BDDF824B0069D089FDDF81CC002AC3D
:1021B0000193ADF1180294E85004BEF10F0F62D8FC
:1021C0004B7891F800901B0443EA0968CB7848EA01
:1021D000030391F8028043EA08231364354B4FEA66
:1021E000F52853F82E3088EAB5181846136C88EA9B
:1021F000756818448CEA07032B4080447B40984460
:10220000019BD8444344184646EA04094FEA743314
:1022100006EA040B83EAB40309EA0A0949EA0B094E
:1022200083EAB4530EF1010E4B44BEF1400F434418
:1022300001F1040102F10402BB46CDF804A01BD158
:102240000293002309970690CDF820C007950394C8
:102250000496CDF814A0009A02A951F82310126830
:1022600001330A440099082B41F8042B0091F2D164
:1022700000204BB0BDE8F08FB24667462646AC461C
:102280001C46054699E7936BD2F804904FEAF34851
:1022900088EA734888EA9328536A184613681844F2
:1022A0004FEAB94383EAF913804483EAD90908EB7A
:1022B000090392E7A86603002DE9F04105460F46A1
:1022C000144612B90020BDE8F081036803F03F0016
:1022D00013449A422B6082BF6B6801336B6008B372
:1022E000C0F14006B24216D305F1280832464044F8
:1022F00003F0A5FE41462846FFF740FF0028E2D143
:102300003744A61B3446311B3F2C39440CD8002CD3
:10231000D8D00F460020283522463946284403F0FD
:102320008EFECFE71646EDE72846FFF727FF002889
:10233000C9D1403CE7E7FFF7BFBF70B50446802234
:1023400003680D4603F03F03581C3828234483F8E4
:10235000282004F1280674D80021C0F13802304446
:1023600003F078FE236861685A0F42EAC102110E39
:10237000DB0084F86010110C84F8611084F863208D
:10238000110A1A0E84F864201A0C84F865201A0ABF
:1023900084F8621084F8662084F86730314620465D
:1023A000FFF7ECFE00284BD1E37A2B7063896B704A
:1023B000A3681B0AAB70A368EB70E37B2B71E38906
:1023C0006B71E3681B0AAB71E368EB71E37C2B7202
:1023D000638A6B7223691B0AAB722369EB72E37D1C
:1023E0002B73E38A6B7363691B0AAB736369EB73CB
:1023F000E37E2B74638B6B74A3691B0AAB74A369B4
:10240000EB74E37F2B75E38B6B75E3691B0AAB758C
:10241000E369EB7594F823302B76638C6B76236A33
:102420001B0AAB76236AEB76A36E4BB994F8273080
:102430002B77E38C6B77636A1B0AAB77636AEB7766
:1024400070BDC0F140020021304403F003FE31466C
:102450002046FFF793FE0028F2D10146382230468D
:102460007EE7FFF76ABF07230022012110B5C407EA
:1024700044BF01FA03F4224313F1FF334FEA500043
:10248000F5D2104610BD00002DE9F04F16468FB072
:10249000074606A80C469A46FFF7ABFB1022002120
:1024A0000AA803F0D7FD002E70D006A8FFF7B4FBF2
:1024B0000546002872D1394606A8FFF79CFB07F1B4
:1024C0008F039C42C0F0B18006A8FFF796FB8046C0
:1024D00006A8FFF794FB4044844200F2A680013432
:1024E000E41B4FEA5408A84507EB050104D906A8E8
:1024F000FFF781FB0544F6E74D4B0A97002BA4EB51
:1025000005040B9514BF0127022700250C910D949B
:1025100006A8FFF776FB0AAC54F835200DF1200829
:10252000814608234032414606A8FFF7A7FB30B991
:1025300018F800304B4533D101300828F8D1013567
:10254000022DE5D13B4C6CE018F1010849F100097E
:10255000DDE90001894508BF80455FD212F8010F0F
:102560000392FFF780FF0921039A8BEA006B013980
:1025700011F0FF01E8D0BBF1000F4FEA4B03B6BFEB
:10258000DFF8BCB09B4683EA0B0BF0E72A4C06A8A9
:10259000FFF730FB20460FB0BDE8F08F274CF6E781
:1025A000189BBDF8228013B1189BC3F80080C24568
:1025B000C5D354F835204346314606A8FFF75EFBE5
:1025C00004460028BBD100231FFA88F2022FCDE970
:1025D00000234FF000084FF000094FF0FF3B06F1D9
:1025E000FF32B5D012490491DDE90001894508BFE9
:1025F000804513D212F8010F03920592FFF733FFC3
:10260000049980EA1B60C0B251F8200018F101085B
:1026100080EA0B2B49F10009039AE4E7099A5A452D
:102620008DD106A8FFF712FBB1E7034CF9E700BF15
:10263000946203000701FF800101FF800F01FF800A
:10264000B71DC1042DE9F347054668460E46FFF75E
:10265000D0FA4D490846FDF71DFF68B94FF4142321
:102660004FF470502B602B68034433602B68FBB928
:10267000E0B94FF001081FE044494348FDF70AFF65
:1026800038B9434C6846FFF7B5FA204602B0BDE8BA
:10269000F08740493C48FDF7FDFE08B92860E2E7B5
:1026A0003D493948FDF7F6FE0028EAD03B4CE9E702
:1026B0000028FBD04FF000086846FFF7ADFA04464B
:1026C00000285ED1364A3748374B1044A0EB030A46
:1026D00051466846FFF78FFA81466846FFF78DFA44
:1026E00007466846FFF78BFA0744B8F1000F2ED172
:1026F000D5F8008068464146FFF77DFA234602463A
:10270000814621464046FEF701FBD6F800A000FBBB
:1027100009F90AF1FF316846FFF76DFA002180469A
:102720001AF1FF304246234641F1FF31FEF7EEFA3F
:102730002B6800FB08884B4504D13368434501D121
:102740009F421AD26846FFF781FA184C9AE7791E21
:102750006846FFF750FA0021A7EB40081AF1FF3056
:102760004A4641F1FF312346FEF7D0FA00FB0999B2
:10277000C845E7D3C5F8008037606846FFF766FABA
:1027800080E70B4C7EE700BFA8670300B367030038
:102790000701FF80C0670300CD6703000901FF80C8
:1027A000546E0300B8220220002202200601FF809E
:1027B0000F01FF8030B5114D87B0D5E88F3F13F082
:1027C000010418D1284600F027FEA0B100230C4ACE
:1027D0001A21CDE9022321232322009304942223EA
:1027E0000848FEF7F7FC284600F027FE064A07498E
:1027F000044800F000FE034807B030BDF822022074
:1028000040420F000023022000220220F1120300A8
:10281000EFF31083DB4372B6044A117829B90449F7
:1028200003F001030B70012313707047692302202A
:10283000682302200022034B1A70034B1B7803B15C
:1028400062B67047692302206823022070B50E46E5
:102850000446154600F044FE01360DD029462046B8
:1028600000F06CFE2046012100F047FE2046BDE846
:102870007040002100F03DBE70BD0022FFF7E6BFB2
:1028800013B5044601300FD102B010BD9C420AD1ED
:102890002046896800F062FE0021204602B0BDE8B3
:1028A000104000F097BE0C3191F900305A1CEDD168
:1028B0000023224600931946014800F025FD00BF81
:1028C00030010180884207B502460AD0431C08D077
:1028D000013105D0002305480093194600F014FD8E
:1028E0000146084603B05DF804FB00BF30010180DB
:1028F00091F900305A1C01D118467047834201D12A
:10290000486870470C31F3E7431C07B50AD0FFF75E
:10291000EFFF431C06D100230246009319460348EB
:1029200000F0F2FC03B05DF804FB00BF3001018051
:1029300091F900305A1C01D118467047834201D1E9
:10294000886870470C31F3E7431C07B50AD0FFF7DE
:10295000EFFF431C06D100230246009319460348AB
:1029600000F0D2FC03B05DF804FB00BF3001018031
:102970002DE9F74FD0F804A004469AF83A30002B1E
:1029800046D103685B68984763681B6A98423FD0EA
:10299000DAF82030DAF80840A0EB0308CAF8200083
:1029A000DAF80C30314808EA0308844246464FF012
:1029B000000727D0DAE90A239AF83BB0A8FB008980
:1029C000CDE900230025BBF1000F2BD05A4640462D
:1029D0004946FDF769FDDDE9002312EB080243EBF0
:1029E000090390465A46994606460F46FDF768FD8C
:1029F000B8EB000069EB0101A94208BFA0420AD26E
:102A0000CAE90A01DAE90C23B6185F41CAE90C6782
:102A100003B0BDE8F08F013647F10007001B61EB02
:102A20000501EDE722462B4640464946FEF76EF982
:102A3000224606460F46404649462B46FEF766F9B3
:102A4000DDE9008918EB020849EB0309A94508BF35
:102A5000A04502D2CAE90A89D4E7013647F1000746
:102A6000B8EB040869EB0509F4E700BF40420F002A
:102A7000824206D98A420BD9884294BF00200120A5
:102A80007047884206D98A428CBF002001207047D7
:102A900001207047002070472DE9F047466807463F
:102AA00096F83A30002B66D196F83930002B62D177
:102AB000FFF75EFF7D68D7F800A06B68002B50D051
:102AC000D5E90C89D3E90001894508BF804504D3C5
:102AD000DAF81430BDE8F0471847B0EB080861EBAE
:102AE0000909D5E906234B4508BF42452C6906D3A1
:102AF000AB68224A934216D1444528BF44462A6A0D
:102B0000DAF810301444EA681440204698473B68CD
:102B10005B68984722460146306AFFF7A9FF50B329
:102B20003B685B69D6E795F83B20AAB14046494629
:102B3000FDF7C6FC4FF00009DFF844800F4A18EBA0
:102B4000000849EB0109002340464946FEF7DEF83C
:102B5000844228BF0446D2E7A3FB080103FB091106
:102B6000E8E73369306AF26818441040DAF8103048
:102B7000BDE8F0471847BDE8F08700BF40420F00AE
:102B80003F420F002DE9F04F436885B093F838209D
:102B90000546002A63D193F83A30002B5FD10368D1
:102BA0001B6898472B68DB6998472E4B0668012203
:102BB000002E08BF1E461F2302FA03F1B1425FFA3E
:102BC00083FB02D0013BF7D19B4647684FF0070AD1
:102BD0003B1F1D2B28BF20273B1F0AFA03FA0023A7
:102BE00016F1FF301F4C43F1FF313246C4FB0A019E
:102BF000FEF78CF800236C682A68236063605268D3
:102C00000393CDE9000190474FF000084FF0000911
:102C100020626C683A46C4E90A89A66084F83BB031
:102C200001200021FDF74CFCDDE90023C4E9062367
:102C3000039B013884F8393084F83A300123E0608E
:102C4000C4F810A02846C4E90C8984F83830FFF78E
:102C50008FFE284605B0BDE8F04FFFF71DBF05B059
:102C6000BDE8F08F40420F0038B505460C46FFF72F
:102C700089FF00F0DBFA6B681C60BDE8384000F0AB
:102C8000DFBA70B5044600F0D1FA2368DB689847D4
:102C9000636893F83A201AB1BDE8704000F0D0BAEA
:102CA000012283F8392063685B68A3B12046FFF7EF
:102CB0005FFE65686E68D5E90C01D6E9002399428C
:102CC00008BF904207D3F3686B602B68002BEAD0F3
:102CD000B0689847E7E700226368204683F8392008
:102CE000FFF7DAFED8E72DE9F84305460C4616460D
:102CF0001F46DDF8208000F099FA2846FFF738FEDD
:102D000000216A68C4E900675368C4F8088033B9D1
:102D1000E36069B954602846FFF7BEFE0FE0D3E9CF
:102D200000894F4508BF4645F2D31946DB68EEE7F8
:102D3000D2E90C23BB4208BFB242CC60EBD2BDE863
:102D4000F84300F07DBA38B505460C4600F06EFA3F
:102D50006A685368A34209D1DB6828465360FFF7CD
:102D60009BFEBDE8384000F06BBA1346002BF8D04C
:102D7000DA689442F9D1E268DA60F2E738B50446DD
:102D8000FFF700FF00F052FA2046FFF7F1FD6368FD
:102D9000D3E90C4500F054FA2046294638BD08B561
:102DA000FFF7ECFF08BD704700487047D867030085
:102DB000024B1B680BB102481847704708220220DB
:102DC000D867030010B50446FFF744F90B4BA06920
:102DD0002360FFF7D3FF00220023C4E90A23002366
:102DE00084F83030C4E9080184F8313084F8323096
:102DF00084F8343084F83530204610BD0C68030068
:102E000010B50446FFF746F9002394F8352084F8FE
:102E1000313084F832302AB184F83530BDE81040C2
:102E200000F09CBA10BDD0E90A23013243F100033F
:102E3000C0E90A23D0E9082312F57A7243F10003AE
:102E4000C0E908237047D0E9082312F57A7243F1EC
:102E50000003FFF715B910B504468069FFF78EFF30
:102E6000D4E90823801A61EB0301002908BFB0F5FB
:102E70007A7F14D3002908BFB0F5FA6F11D3012966
:102E800008BF002805D24FF47A73B0FBF3F000219D
:102E900010BD4FF47A720023FDF738FF10BD0020FB
:102EA000F5E70120F3E7D0B50446FFF7D4FF002390
:102EB00084F830304FF47A73A0FB036703FB01778B
:102EC000D4E9082392197B41C4E90823D4E90A23F1
:102ED00080185941C4E90A01D0BD2DE9F0470446E4
:102EE0009046994690F831505DBBFFF7DCFF4945AD
:102EF00008BF404504D3012384F83230BDE8F08791
:102F00004FF47A73A8FB036703FB0977012394F856
:102F1000352084F8313084F8325042B9A269126801
:102F200092F820201AB984F8353000F0FFF9002318
:102F3000324684F8333020463B46BDE8F047FFF781
:102F40009FB8BDE8F08700004FF08062014B5A60E7
:102F5000704700BF00ED00E090F8313010B5044636
:102F60004BB1002380F8313090F833309BB9012306
:102F700080F8323010BD90F8343063B190F83030C2
:102F8000013380F83030FFF7DFFF2046FFF74BFFBB
:102F90002046FFF758FF10BD4FF00072014B5A60FA
:102FA000704700BF00ED00E010B50446FFF772F86F
:102FB000002384F83430FFF7EFFF10BD10B504464E
:102FC000054B0360FFF7F0FF2046FFF719FF20468F
:102FD000FFF766F8204610BD0C68030010B50446E4
:102FE000FFF7ECFF2046382100F03EFA204610BDE6
:102FF00038B5064C23683BB9FFF7D6FE044D0146B1
:103000002846FFF7DFFE2560206838BDE823022050
:10301000B023022008B5836823B9054B1B6893F8D9
:10302000320008BDC06898470028F6D008BD00BF30
:10303000E823022037B50446174D2046FFF7EAFF84
:1030400020BBD4E90023591C08BFB2F1FF3F02D0D6
:103050002868FFF742FF01A800F04CF82046FFF770
:10306000D9FF80B9D4E90023013308BFB2F1FF3F93
:103070000ED02B6893F8313053B901A800F040F816
:10308000BFF36F8FD9E701A800F03AF803B030BD65
:1030900000F080F9F1E700BFE82302207FB50E467B
:1030A0001546044618B91046884704B070BD431C45
:1030B00014D0FFF79DFFFFF7F6FE001941F1000164
:1030C000CDE9000102960395FFF792FF6846FFF7EE
:1030D000B1FF054B1868FFF793FEE6E74FF0FF30AE
:1030E0004FF0FF31ECE700BFE82302200022114639
:1030F000FFF7D4BF10B5044600F098F8204610BD85
:1031000010B5044600F09CF8204610BD02F0F8BF50
:1031100002F0A8BFF0B572B60023224A4FF0FF3686
:1031200013604FF0E0221D4651681F4F01F00F0160
:1031300001319A0002F1604202F56142C2F88060FA
:10314000C2F8806100224FEAC30E02EB0E04013286
:103150003C44082A84F80053F7D101339942E8DC53
:103160004FF02062114B5A6040F2FA529860DA60D8
:10317000002211461D619C1801320C2A2176FAD1D9
:103180004FF0FF3259629A62094A4168DA621F229F
:103190001A630368002282F314889D4682F3108824
:1031A0000847F0BD10E000E000E100E000ED00E0C5
:1031B000020000C007B500F039F8262101A8FFF78A
:1031C0005CFB124D0424012101A800F0B7F9284648
:1031D00000F075F9002101A800F0B0F9284600F0D0
:1031E0006EF9013CEFD10424094E012101A800F041
:1031F000A5F9304600F063F9002101A800F09EF91E
:10320000304600F05CF9013CEFD1DBE7F049020009
:10321000801A0600EFF31080C04300F001007047F1
:10322000EFF30580003018BF0120704708B5FFF7A5
:10323000EFFA024A13680133136008BDEC23022041
:10324000044A136823B1013B13600BB9FFF7F2BACC
:10325000704700BFEC23022008B501210D4BD3E8D5
:103260004F2FC3E8401FD2B20028F8D12AB1FFF790
:10327000DDFFBFF34F8F20BFFDE7FFF7D1FF08B1A0
:10328000FFF798FFFFF7C6FF0028F9D0012000F0F4
:10329000B4F800BF3024022070B5164C0D4634EA55
:1032A000200428BF044616468EB03422002101A80F
:1032B00002F0D0FE019402960395FFF7B7FF0E4A85
:1032C00013680133012B136004D1342201A90B4888
:1032D00002F0B5FE342201A9094802F0B0FE094B04
:1032E0001B680BB106489847FFF7AAFF00200EB0F5
:1032F00070BD00BF0101FF80F0230220FC230220EB
:1033000034240220F423022008B51146064B012480
:10331000D3E84F2FC3E8454FD2B212B97246FFF738
:10332000BBFFFFF799FF00BFF823022007B5094A4A
:10333000D2E85F3F0133C2E8513F0029F8D19BB288
:103340002BB91288194600930348FFF7DDFF03B03D
:103350005DF804FB682402202301048007B50B4AB2
:10336000D2E85F1F0139C2E8531F002BF8D14FF696
:10337000FF7089B2814205D1128819460093044832
:10338000FFF7C2FF03B05DF804FB00BF6824022012
:103390002401048008B5FFF749FF064B1B889BB248
:1033A0002BB900F005FABDE80840FFF749BF00F06F
:1033B000F5F9F8E76824022008B5012000F01DF8AF
:1033C000074A084913681844884283BF0C22064BF9
:1033D0004FF0FF3010608CBF1A601846704700BF76
:1033E0000C220220003004207466022008B508B1C7
:1033F000FFF7E0FEFEE70120704708B5FFF7F6FF94
:10340000012070477047704708B5FFF7FBFF08BD04
:1034100008B5FFF7F8FF08BD037803F00303012B9D
:1034200009D0037803F00302012A04D043F0020319
:1034300003700120704700207047037823F00303D6
:1034400043F001030370704713B5044602F0D8FD42
:10345000034628B90090014622460248FFF754FF70
:1034600002B010BD1F01018002F0D2BD02F0D0BD3C
:1034700070477047074A0848936830B5191F03F52D
:103480009674C31A51F8045FA1425D50FAD190605E
:1034900030BD00BF00ED00E00020022008B5FFF7BE
:1034A000E9FF00F093FB00F0C7FAFFF7E2FF08BD69
:1034B00008B5FFF7DDFFBDE8084002F0D9BA70B5E6
:1034C0000446FFF771FC0646FFF769FC05463046E7
:1034D000FFF765FC401BA042F9D370BDFFF706BEA5
:1034E0004A1C0B46017003D00021184600F036B884
:1034F000704790F9000000F06DB8202290F900307C
:1035000003F01F0093FBF2F3DBB211B101290CD0E1
:10351000704701229B0003F1804303F50E231968D5
:10352000824021EA0201196070479B0003F1804349
:1035300003F50E231A6881401143F4E790F9003037
:10354000202003F01F0293FBF0F3DBB25B0103F1D9
:103550008043C9B203F50C239954704730B51B4D15
:1035600085B003460C462868696801AA03C2202179
:10357000A8680125106003F01F0293FBF1F304A972
:10358000DBB201EB430131F80C1C02EB4313080AD8
:10359000C9B205FA01F14FF08045883045F8201096
:1035A0004FF40051C5F82012094904F00F0451F8F6
:1035B000232042F4807241F8232051F8232022F086
:1035C0000F02144341F8234005B030BDDC61030015
:1035D00000100040202310B500F01F0490FBF3F012
:1035E000C0B20A4A4001031952F82330012923F0DE
:1035F000300305D0022906D0204442F8203010BD07
:1036000043F01003F8E743F02003F5E70010004013
:10361000F0B50E4685B004463D4930461546FFF7E5
:1036200073F93C4907462846FFF76EF901463846CC
:10363000FFF748F9206007280CD8DFE800F0043EC7
:10364000444A50565C624FF4457000F0F5FA324837
:1036500001F069F901A801F003FB4FF4165301933F
:10366000012320688DF80D308DF80C302B4B2C4A3F
:1036700053F8200001A901F03CFB25493046FFF733
:10368000FFF824492846FFF7FBF8721C03D00221FB
:103690003046FFF79FFF6B1C03D002212846FFF73F
:1036A00099FF23683BB901221E4B21461A601E4830
:1036B000042202F0C4FC05B0F0BD40F2153000F069
:1036C000BBFA1A48C4E740F2163000F0B5FA1848C1
:1036D000BEE740F2173000F0AFFA1648B8E74FF4F3
:1036E000467000F0A9FA1448B2E740F2193000F031
:1036F000A3FA1248ACE740F21A3000F09DFA1048E5
:10370000A6E740F21B3000F097FA0E48A0E700BF92
:1037100054690300246903000B00010018680300CA
:10372000001BB7006C240220702602200C00010050
:103730000D0001000E0001000F000100100001004B
:1037400011000100120001000068034B034A53F806
:10375000200001F099BA00BF18680300001BB700F1
:103760000268044B53F82230D3F8040E00F0200016
:10377000704700BF1868030010B504462046FFF7E5
:10378000EFFF0028FAD02268034BC9B253F8223069
:10379000C3F8201E10BD00BF18680300034A136958
:1037A00023F00403136130BF704700BF00ED00E059
:1037B00007B500F0B3F90021102200910023612029
:1037C00002F01EFB03B05DF804EB00F0D3B900007B
:1037D0002DE9F74F884605464149404617461E46A3
:1037E0009DF93040FFF790F83E4981463846FFF793
:1037F0008BF83D4901903046FFF786F83B498246F9
:103800002046FFF781F8019B834619464846FFF79B
:1038100059F8594681465046FFF754F80146484644
:10382000FFF750F8002328606B7108280DD8DFE8F7
:1038300000F005272D33393F454B51004FF44570BB
:1038400000F0FAF92A4801F06EF825494046FFF7E2
:1038500017F824493846FFF713F823493046FFF795
:103860000FF8631C09D021492046FFF709F81F49CA
:103870002046FFF769F8000C687103B0BDE8F08FCF
:1038800040F2153000F0D8F91A48DCE740F2163063
:1038900000F0D2F91848D6E740F2173000F0CCF922
:1038A0001648D0E74FF4467000F0C6F91448CAE74E
:1038B00040F2193000F0C0F91248C4E740F21A3063
:1038C00000F0BAF91048BEE740F21B3000F0B4F93E
:1038D0000E48B8E74FF4477000F0AEF90C48B2E775
:1038E0009468030064680300C4680300F46803007C
:1038F0000B0001000C0001000D0001000E00010092
:103900000F00010010000100110001001200010071
:103910001C0002002DE9F043C9B287B007460171CF
:1039200099464E1E540802F00105DFF86C80684687
:1039300093B101F04BF83B6804F00104694658F874
:1039400023008DF804608DF801408DF8025001F0DD
:103950004FF807B0BDE8F08301F01CF87B7904F064
:1039600001048DF80D300A4B0A4A1B686946002B8A
:10397000C8BF02933B688DF80C6058F823008DF89F
:1039800002408DF803508DF8049001F0B3F8E0E7A1
:1039900070240220001BB70038680300044B006845
:1039A0001960044B044A53F8200001F087B800BFA7
:1039B0007024022038680300001BB70038B50546A4
:1039C0000368094C4FF4801254F8230089B201F0C7
:1039D0001FF92B6854F82330D3F8042E5206FBD578
:1039E000D3F8300E80B238BD386803002DE9F84FA7
:1039F0000A9F804697423D46894616469A46B8BF7A
:103A0000154600249DF82CB0AC4202DB2846BDE8E8
:103A1000F88FB442B4BF19F8041059464046FFF776
:103A2000CDFFBC42B8BF0AF804000134ECE7000047
:103A3000004870475C68030037B500F0C9F8174DBF
:103A400004462B78C3B9684600F092FC144B6946D3
:103A5000B4FBF3F4013C0194124C204600F06AFCE4
:103A6000636843F002036360636823F002036360EA
:103A7000636843F0010363600B4B0C4A9B68DA6692
:103A80004FF400620A4B1A60064A536923F001039F
:103A9000536101232B7003B030BD00BF742402209A
:103AA00040420F000090004000ED00E0B12D030007
:103AB00000E100E0014B9868704700BF00900040B3
:103AC0001FB500210123019001AA08488DF80810B4
:103AD0008DF809108DF80A108DF80B308DF80C3028
:103AE00000F052FC05B05DF804FB00BF0090004000
:103AF000024A536923F0010353617047009000406C
:103B00000122014B1A607047009000404FF40062A0
:103B1000014BC3F80021704700E100E070B520269A
:103B20000F4B104C104DC3F8C860204600F0BEF893
:103B3000284600F081F80D4800F0B8F8204602F061
:103B400027FA204600F0E8F800220121304600F074
:103B500099F8284600F070F8054B1C6070BD00BF56
:103B600000000240001BB7000891100000D8B80503
:103B70001022022038B520250E4B0F4CC3F8C85038
:103B80000E4800F093F80E4800F056F8204600F07A
:103B90008DF8204602F0FCF9204600F0BDF8002226
:103BA0000121284600F06EF8064800F045F8064B63
:103BB0001C6038BD0000024000D8B805001BB700EB
:103BC000089110000894100010220220FFF7D2BFC5
:103BD00008B540F2044000F02FF8BDE808401A2074
:103BE00000F0EEBA7047000008B5114BD3F88820FA
:103BF00042F47002C3F88820D3F8882042F00F0204
:103C0000C3F88820D3F88C2042F4406242F00302CB
:103C1000C3F88C20074A9A604FF080430022C3F813
:103C200008237822C3F82022FFF7DCFF08BD00BF7D
:103C300000ED00E000000300B0F1004F10B51DD012
:103C400002210F4CD0B1C0F30B039BB1DAB23F2A73
:103C50004FEA132308BFD4F8982003F1FF33DBB2F7
:103C600015BF9200134302F18042C4F8983018BF88
:103C7000C2F8603201394FEA2030E3D110BD00BFF5
:103C80000000024080002AB14FF0005200F1804352
:103C9000C3F8002300F1804021B94FF08043C0F801
:103CA000003370470139C0F800137047154B984234
:103CB00005D0154B984202D0144B98421FD14FF0BB
:103CC00080434FF00062C3F84821C3F82822202225
:103CD00003F50033C3F8C8200C4B98420C4B05D1B8
:103CE0001A6942F080421A6100207047064A9042E9
:103CF0001A690CBF42F4004242F48042F3E701200B
:103D0000704700BF001BB700006CDC0200D8B8058C
:103D1000003001400000000007EE900AF8EE677ADC
:103D200008B517EE900AFCF73BFD0FA3D3E900237B
:103D3000FCF78AFDFCF79AFF07EE900AFCEEE77AA3
:103D400017EE903A4FF08041082B28BF0823D1F896
:103D500000241B0303F4F83322F4F8321343C1F8B0
:103D6000003408BDAFF30080C19D76BEC028783E08
:103D7000034B186A10F400001CBF024B1868704710
:103D80000030014014220220074BD3F8B8309B06C4
:103D900007D4064B06481B6913F4804F08BF002068
:103DA00070470020704700BF000002400030014013
:103DB000001BB7004FF08043D3F8183A024813F0C5
:103DC000400F08BF0020704740420F00034B186AA5
:103DD00010F080701CBF024B186870470030014023
:103DE0001422022008B5FFF7E5FF4FF08043D3F817
:103DF0008C3303F03F030133B0FBF3F008BD000048
:103E0000074BD3F8B8309B0607D4064B06481B690E
:103E100013F0804F08BF002070470020704700BF9C
:103E2000000002400030014000D8B80508B54FF04E
:103E30008043D3F8E0121A4619B101290AD00020B4
:103E400001E0FFF7DDFFD2F8AC33DBB20133B0FBAA
:103E5000F3F008BD014B1868F5E700BF7C24022091
:103E6000074BD3F8B820D3F89820D3F8B820D3F86C
:103E7000983013F0010F14BF4FF40040002070473A
:103E8000000002404FF08043D3F88422012A1BD067
:103E900003D3032A1BD1FFF7E3BFD3F880220AB96B
:103EA000FFF772BFD3F88022012A01D1FFF78EBF3E
:103EB000D3F88022022A01D1FFF77CBFD3F88032E9
:103EC000032B04D1FFF79CBF024B186870470020FA
:103ED000704700BF7C24022008B54FF08043D3F820
:103EE00088221946062A1DD8DFE802F0040D1013B7
:103EF000161C1900FFF7C6FFD1F88433DBB201337B
:103F0000B0FBF3F008BD084B1868F5E7FFF75EFF5C
:103F1000F2E7FFF775FFEFE7FFF74CFFECE7FFF77E
:103F20009FFFE9E70020E7E77C24022008B54FF077
:103F30008043D3F8A4221946012A0ED003D3022AC3
:103F40000ED0002001E0FFF79DFFD1F8943303F07D
:103F500007030133B0FBF3F008BD034B1868F4E727
:103F6000FFF74EFFF1E700BF7C24022008B54FF0B9
:103F70008043D3F8A8221946012A0ED004D3032A7D
:103F80000ED1FFF73DFF01E0FFF77CFFD1F898333A
:103F9000DBB20133B0FBF3F008BD024B1868F5E764
:103FA0000020F3E77C24022008B54FF08043D3F8CB
:103FB000F8221946012A0ED004D3032A0ED1FFF7A6
:103FC0001FFF01E0FFF75EFFD1F8BC33DBB2013326
:103FD000B0FBF3F008BD024B1868F5E70020F3E7EB
:103FE0007C24022008B54FF08043D3F8F022194614
:103FF000052A18D8DFE802F0030C0F121715FFF797
:1040000041FFD1F8B433DBB20133B0FBF3F008BDAC
:10401000064B1868F5E7FFF7D9FEF2E7FFF7F0FE69
:10402000EFE7034BF5E70020EBE700BF7C2402201D
:10403000782402204FF0804208B5AC3052F820308E
:10404000062B28D8DFE803F0040811151C202300F4
:10405000BDE80840FFF716BFD2F8C4030F4AC0B24C
:10406000431C1068B0FBF3F008BDBDE80840FFF743
:104070008BBEFFF7C5FED2F88833DBB20133F1E720
:10408000BDE80840FFF796BE054B186808BDBDE8BF
:104090000840FFF7E5BE002008BD00BF7C240220D9
:1040A0007824022010B50446FFF7C4FFA20002F1F5
:1040B0008042D2F82033D2F8202303F47F43D2B2D7
:1040C0000132B3FBF2F30133B0FBF3F010BD00009B
:1040D0004FF0804208B5D2F8D032062B25D8DFE861
:1040E00003F0040811151C242000BDE80840FFF768
:1040F000C9BED2F8C4030E4AC0B2431C1068B0FB5C
:10410000F3F008BDBDE80840FFF73EBEFFF778FEBC
:10411000D2F88833DBB20133F1E7BDE80840FFF79E
:1041200049BEBDE80840FFF79BBE002008BD00BFA8
:104130007C240220800000F1804000F51A70436862
:10414000062B12D8DFE803F0040611090B0D0F004F
:10415000FFF798BE064B18687047FFF751BEFFF790
:1041600029BE044BF7E7FFF77BBE0020704700BF76
:104170007C2402207824022008B54FF0804300F10F
:10418000980253F822300146012B10D003D3022BA2
:1041900011D0002008BDFFF775FE890001F18041B4
:1041A000D1F80033DBB20133B0FBF3F008BDBDE85A
:1041B0000840FFF7FFBDBDE80840FFF751BE000013
:1041C00008B51F287CD8DFE800F010141F33232720
:1041D0002B7B2F464A373B3F424E505557595B5D2C
:1041E0005F6163676C6E70727479BDE80840FFF7B9
:1041F00049BEFFF747FE4FF08043D3F88033DBB270
:104200000133B0FBF3F008BDBDE80840FFF764BE22
:10421000BDE80840FFF78ABEBDE80840FFF7A6BE2C
:10422000BDE80840FFF7A4BDBDE80840FFF7FEBDAC
:10423000BDE80840FFF7E4BDBDE80840FFF7A4BDB6
:10424000BDE80840FFF7C2BD1E4B186808BDBDE8B9
:104250000840FFF7C7BDBDE80840FFF7C3BEBDE893
:104260000840FFF7A1BE184BEFE70020BDE808406B
:10427000FFF718BF0120F9E70220F7E70320F5E771
:104280000420F3E70520F1E70620EFE70720EDE73C
:10429000BDE80840FFF71CBF0020BDE80840FFF75D
:1042A00049BF0120F9E70220F7E70320F5E70420E2
:1042B000F3E70020BDE80840FFF75EBF0120F9E703
:1042C000002008BD7C2402207824022010F1800FF9
:1042D0000CD0002808DB0123420900F01F0003FA7C
:1042E00000F0034B43F82200002070470120704784
:1042F00000E100E00E4B984212D003F58053984243
:1043000010D003F5F83398420ED003F5805398424D
:104310000CD003F58053984214BF05200420704749
:10432000002070470120704702207047032070472B
:104330000080004070B50E460546FFF7DBFF012404
:104340004FF08041084B33F810301A0ADBB204FA00
:1043500003F3883241F82230044B53F8200000F078
:10436000E2FA7368EB6070BD98690300A869030006
:1043700010B508220021044601F06CFE00232370D2
:104380006370636010BD0000F8B50546FFF7B2FF2B
:1043900007234FEA410E6C690EEB0107BB4024EA8C
:1043A00003031479167A07F1010C04FA0CF41C4388
:1043B00006FA07F31C435379023703FA07F73C4325
:1043C0006C6130240127EB6B04FA0EF423EA040439
:1043D00093790EF1040E03FA0EF32343D4798F4040
:1043E0008C4023EA07032343EB631368063145F847
:1043F00021302F602EB1034B1856BDE8F840FFF76F
:1044000065BFF8BDA2690300134B2DE9F04153F8D5
:10441000203006461D681D60104B1B5C43B9104BD5
:1044200053F820301B68ABB12846BDE8F04118476F
:1044300000240127DFF8288007FA04F32B4206D076
:1044400058F8263053F824300BB1284698470134E9
:10445000072CF1D1BDE8F08184690300802402209B
:10446000882402200020FFF7CFBF0120FFF7CCBF38
:104470000220FFF7C9BF0320FFF7C6BF0420FFF7E4
:10448000C3BF0000054B984206D003F51433984291
:104490000CBF012002207047002070470020084018
:1044A0002DE9F047FFF7EEFF002398424DD11E277C
:1044B00000264FF001094743DFF89480F31958F8BC
:1044C0002340002C3CD0257BA3686A09583353F85D
:1044D000221005F01F0509FA05F529420BD0D4F882
:1044E00000A043F82250BAF1000F04D000230122AB
:1044F00061682046D047A368227B6033520953F895
:1045000022100D420BD0D4F800A043F82250BAF18B
:10451000000F04D0012361681A462046D047A368E3
:10452000227B4033520953F822100D4208D043F841
:104530002250256825B10223002261682046A84741
:1045400001361E2EBAD1BDE8F0870133ADE700BFBA
:104550009C2402200148FFF7A3BF00BF00200840B1
:104560000148FFF79DBF00BF00700A400023064AC4
:1045700052F82310884204D00133092BF8D10020CF
:1045800070471846704700BFBC69030070B5054608
:104590000C46FFF7EBFF002832DB01264FF080418D
:1045A0001A4B33F810301A0ADBB206FA03F38832DA
:1045B00041F82230164B53F8200000F0B4F954B102
:1045C000042C16D8D5F8F83FE21C96401E4214BFC2
:1045D00001230023B3B1D5F8F83F1B0705D5D5F863
:1045E000F83F03F00703A3420ED1C5F8F84F0020AF
:1045F00070BD052C06D1D5F8F83FC3F3C013E9E729
:10460000042070BD032070BD012070BDE06903006F
:10461000F4690300024B034A1B68116802481847FB
:10462000B02502208C25022000600840024B034A7E
:104630005B68516802481847B02502208C2502208B
:1046400000700840024B034A9B6891680248184773
:10465000B02502208C25022000800840024B034A2E
:10466000DB68D16802481847B02502208C2502205B
:1046700000900840024B034A1B6911690248184721
:10468000B02502208C25022000A00840024B034ADE
:104690005B69516902481847B02502208C25022029
:1046A00000600940024B034A9B6991690248184720
:1046B000B02502208C25022000700940024B034ADD
:1046C000DB69D16902481847B02502208C250220F9
:1046D00000800940044A136843F001031360034B50
:1046E0001B6803B11847704700200040D425022002
:1046F000044A136843F001031360034B5B6803B182
:104700001847704700300040D4250220024B034A6E
:104710001B68116802481847E0250220DC250220AA
:1047200000D00240836A1B0E1CBFC26AC2621846D8
:104730007047000008B50848FFF7F4FF074B014633
:104740001B6A0BB108209847034B1A68D2075CBF5D
:1047500001225A6208BD00BF00500040E42502203B
:1047600008B50848FFF7DEFF074B01465B6A0BB14F
:1047700009209847034B1A68D2075CBF02225A628D
:1047800008BD00BF00500040E425022008B54FF0EE
:104790004020FFF7C7FF074B01461B680BB1002005
:1047A00098474FF040231A68D2075CBF01225A6233
:1047B00008BD00BFE425022008B54FF04020FFF7F8
:1047C000B1FF074B01465B680BB1012098474FF0E2
:1047D00040231A6892075CBF02225A6208BD00BFDC
:1047E000E425022008B54FF04020FFF79BFF074B60
:1047F00001469B680BB1022098474FF040231A688E
:1048000052075CBF04225A6208BD00BFE4250220A3
:1048100008B54FF04020FFF785FF074B0146DB68E6
:104820000BB1032098474FF040231A6812075CBF72
:1048300008225A6208BD00BFE425022008B54FF0E7
:104840004020FFF76FFF074B01461B690BB10420A7
:1048500098474FF040231A68D2065CBF10225A6274
:1048600008BD00BFE425022008B54FF04020FFF747
:1048700059FF074B01465B690BB1052098474FF084
:1048800040231A6892065CBF20225A6208BD00BF0E
:10489000E425022008B54FF04020FFF743FF074B07
:1048A00001469B690BB1062098474FF040231A68D8
:1048B00052065CBF40225A6208BD00BFE4250220B8
:1048C00008B54FF04020FFF72DFF074B0146DB698D
:1048D0000BB1072098474FF040231A6812065CBFBF
:1048E00080225A6208BD00BFE4250220012382B263
:1048F000000C8000934000F18040C0F82031D0F8D7
:1049000000211342FBD07047012382B2000C8000CB
:10491000934000F18040C0F84031D0F8002133EAE4
:104920000202FAD0704708B50146FFF7DFFFBDE885
:1049300008400846FFF7E8BF014B02481B681847CC
:104940000C26022000500840024B034A1B681168E5
:1049500002481847142602201026022000B0094001
:104960000023064A52F82310884204D00133092B51
:10497000F8D1002070471846704700BF186A03003E
:1049800010B50C46FFF7ECFF014B1C5410BD00BFE7
:104990002A26022010B518220021044601F05AFBF5
:1049A00001226270084A0023A2600722A374E37404
:1049B000237563752370A370E3702371227363738F
:1049C00023746374E38110BD20A1070010B50A228F
:1049D0000021044601F03EFB01230722237000233F
:1049E00022716370A370E37023726372E38010BD61
:1049F00070B50D46044600285CD000295AD002212B
:104A0000FFF7C4FD064600284DD12046FFF7A8FF5A
:104A1000D4F80024EB8822F4736222F00D0203F430
:104A200070631343AA78FF21120102F010021343AE
:104A30006A78520102F020021343EA78D20002F0B1
:104A400008021343C4F800342A791B4B03F81020E2
:104A5000D4F8003E204643F44033C4F8003ED4F876
:104A6000003E43F00303C4F8003ED4F8082E2B7A2E
:104A700022F470221B0222F4706203F4706342F08D
:104A800003021A436B7A1B0403F470231343C4F824
:104A9000083EFFF775FF2B783BB1D4F8003443F0A4
:104AA0000103C4F80034304670BDD4F8003423F05C
:104AB0000103F6E70426F6E718260220A0B199B113
:104AC00092B1B2FBF1F2013AB2F5803F0ED2D0F8CA
:104AD00024341B0C1B04C0F82434D0F824140A43DB
:104AE000C0F82424002070470420704741F2E350AE
:104AF00070470000F8B50D4617460446002800F040
:104B0000828000297FD0002A7DD00221FFF73EFD60
:104B10000646002870D13A46A9682046FFF7CEFF26
:104B20000646002868D12046FFF71AFFD4F8003463
:104B3000297823F47B63EA8923F00D0343EAC11348
:104B400002F4706243F004031343EA78FF21120178
:104B500002F010021343AA78520102F0200213431C
:104B60002A79D20002F008021343C4F800342A7BE9
:104B7000264B03F8102003EB40006B7B4370D4F806
:104B8000003E204643F44033C4F8003ED4F8003ED3
:104B900043F00303C4F8003ED4F8082E2B7C22F423
:104BA00070221B0222F4706203F4706342F003026D
:104BB0001A436B7C1B0403F470231343C4F8083EB0
:104BC000EB7C2A7D1B01120202F47062DBB21343FC
:104BD000AA7C02F00F0213436A7D120392B21343C0
:104BE000C4F80434FFF7CCFE6B783BB1D4F8003442
:104BF00043F00103C4F800343046F8BDD4F8003463
:104C000023F00103F6E70426F6E700BF182602208A
:104C10002DE9D84104460F469046FFF7A1FE002833
:104C200017DB0D4E0D4916F8103008EA01011B067E
:104C300003F07063394306EB40061943737803F1C0
:104C4000100201239340DB4303F470231943C4F89B
:104C5000201EBDE8D88100BF182602200000F0F019
:104C600010B50C220021044601F0F4F94FF4E133B1
:104C7000012223600023A27123716371E371237207
:104C80006372A372E37210BD2DE9F04150B349B3D2
:104C900042B30F264FF0FF353446AE460F01B2FB4C
:104CA000F7F808F1FF3CBCF5803F04F101030CD29A
:104CB00003FB08F3B2FBF3F3994234BF5B1ACB1A40
:104CC00073453EBF654626469E46013C072CA7EB32
:104CD0000107E4D1B5F5803F07D286620562002066
:104CE000BDE8F0810420BDE8F08141F25160BDE8EB
:104CF000F08170B50D461646044600285FD00029A5
:104D00005DD0002A5BD00121FFF740FC002857D17D
:104D1000324629682046FFF7B7FF002850D16B7A4A
:104D2000D3B1D4F8003E43F00113C4F8003ED4F8E8
:104D3000083E23F47063C4F8083EAB7AD4F8082E1A
:104D40001B0203F470631343C4F8083ED4F8083E12
:104D500043F00103C4F8083E2B7AD3B1D4F8003EE7
:104D600043F00213C4F8003ED4F8083E23F4702345
:104D7000C4F8083EEB7AD4F8082E1B0403F4702321
:104D80001343C4F8083ED4F8083E43F00203C4F8C5
:104D9000083E2B79EA791B0103F0300343EAC23362
:104DA0006A7943F00103920102F040021343AA79A9
:104DB0000020920002F00C021343236070BD042017
:104DC00070BD0000024B034A1B6811680248184777
:104DD000382602203426022000E0004000207047E0
:104DE000A1F54031B1F5D02F34BF4FF400704FF032
:104DF000FF3070474FF4007070474FF440307047F9
:104E00004FF4D02070470020704700004FF0FF3370
:104E100010B5094C0144884201D1D84310BD10F8A7
:104E2000012B5340082213F0010F4FEA530318BF20
:104E30006340013AF7D1EEE72083B8ED48B14378FB
:104E4000027843EA02228378C07843EA022340EAE8
:104E50000320704730B5002837D0002300251D43BC
:104E60002B0200250478002122024478144343EAEF
:104E700014631D432B02002522028478144343EA65
:104E800014631D432B0200252202C478144343EA15
:104E900014631D432B02002522020479144343EAC4
:104EA00014631D432B02002522024479144343EA74
:104EB0001463220284791D4314432B02C07943EA10
:104EC000146322021043194330BD0020002130BD7D
:104ED00030B10B0AC17083700B0C090E4370017066
:104EE000704768B1110AC2718171110C120E027102
:104EF0001A0AC37082701A0C1B0E41714270037043
:104F0000704770B54B6845689D420FD100231A4623
:104F1000AB4203D150421043C00F70BD84688E680D
:104F2000E45CF65C013374402243F1E7012070BD7C
:104F30002DE9F0418846BCB01446074600287BD0D6
:104F40008368002B78D04368402B75D8002973D034
:104F50008B68002B70D0002A6ED09368002B6BD02A
:104F600013681F2B68D901AE40223621304611AD9F
:104F700001F070F840225C21284601F06BF8002314
:104F80007868834217D121A8FDF79CF8002121A859
:104F9000FDF7A2F8E0B1294C21A8FDF797F84021D0
:104FA0003046FDF787F840212846FDF783F8204674
:104FB0003CB0BDE8F081B968F25C11F803E082EA28
:104FC0000E02F254C95CEA5C4A40EA540133D8E765
:104FD0004022314621A8FDF76FF90028DBD1D8F82F
:104FE0000420D8F8081021A8FDF766F90028D2D1CE
:104FF000A16821A8FDF7A1F901460028CBD121A87D
:10500000FDF76AF80028C6D14022294621A8FDF7FD
:1050100053F90028BFD12022A16821A8FDF74CF93F
:105020000028B8D1A16821A8FDF787F90028B2D1DE
:10503000202363600446AFE7004CB8E70100435506
:1050400030B5016885B01F29044606D80E4D226888
:105050000021A06800F0FEFF13E0806800F0E7FC8C
:105060000028F3D1094A01AB07CA83E807001022E0
:105070001946626020462246FFF75AFF054600287F
:10508000E5D1284605B030BD01004355E861030075
:1050900070B50C46054608B9022070BD0029FBD04A
:1050A0006C21FFF7B3FE064605F16C00FFF7C6FE64
:1050B0008642F1D105F10800FFF7CCFEC4E90001FA
:1050C00005F11000FFF7C6FE2022C4E9020105F138
:1050D000180104F1100000F0B2FF102205F1580190
:1050E00004F1300000F0ABFF002070BD38B50C4675
:1050F000054600283AD0002938D00B686F2B35D9E7
:1051000070220021A06800F0A5FFA0681849FFF7F1
:10511000DFFEA06802210430FFF7DAFED5E90023A4
:10512000A0680830FFF7DDFED5E90223A068103043
:10513000FFF7D7FEA06805F110012022183000F01B
:105140007EFFA068102205F13001583000F077FF93
:105150006C21A068FFF75AFEA368014603F16C00BA
:10516000FFF7B6FE70230020636038BD022038BD13
:10517000D4B3515AF0B50F469BB0064618B311B3DD
:1051800020250AAC00212A46204600F063FF0023B8
:1051900001A8019502930394FFF752FF01B291B960
:1051A000E82312AC2A46204604930593069600F0A5
:1051B00051FF07AA04A901A8079508950994FFF7CC
:1051C000B7FE00B208B1022027E006F1E80307A904
:1051D00004A8049505950693FFF793FE044600285E
:1051E000F1D106F10800FFF735FEC7E9000106F12D
:1051F0001000FFF72FFE2A46C7E9020106F1180149
:1052000007F1100000F01BFF102206F1A00107F1CA
:10521000300000F014FF20463C641BB0F0BD0000DD
:10522000014B1860002070473C26022008B5044B53
:105230001B6813B11B68984708BD022008BD00BF5A
:105240003C260220044B10B51B681BB112B19B69B0
:10525000984710BD022010BD3C26022008B5044B23
:105260001B681BB110B11B6A984708BD022008BD1E
:105270003C26022008B5044B1B681BB111B15B6AC8
:10528000984708BD022008BD3C26022038B50546D7
:1052900078B100F007F90446284624B200F032F84D
:1052A0002CB900B2002814BF0420002038BD04200F
:1052B00038BD022038BD0000024B1B6803B11847FF
:1052C000704700BF4026022010B5A0B999B192B135
:1052D0006FF07C44094B1B68B4FBF3F404FB03340C
:1052E0000C600749B1FBF3F15943091BB1FBF3F122
:1052F0004B43136010BD022010BD00BF4C2602209E
:1053000000FC050470B5054608B9022070BD00F028
:105310008DF8044600F092F80B4E306000F098F8DB
:1053200040F22712094B18603368B2FBF3F202FB1C
:105330000333074A1360002CE7D1064B20461D605B
:10534000FFF7BAFF204670BD482602204C260220F7
:1053500044260220402602207FB50E46144652B352
:10536000936843B34FF0FF3304AA42F8043D02A907
:105370000293FFF7A9FF6368054633B10F4A013B6B
:105380001268B3FBF2F303FB022322689A420FD3A5
:105390000B4A1168029A00930A44A0683244002321
:1053A00000F060F8044618B90420FFF785FF254691
:1053B000284604B070BD0225FAE700BF4826022047
:1053C000442602202DE9F04184B0022402AF0E46AB
:1053D00029B34FF0FF3307F1080242F8043D394684
:1053E0003B60FFF771FF104BE84619680446CB1D80
:1053F00023F00703ADEB030D02AD3A6800230091E3
:10540000284600F02FF848B931462846FFF7B2FE8B
:1054100003B2044613B90720FFF74EFFC5462046E6
:105420000837BD46BDE8F08144260220024B1868CB
:1054300003689B68184700BF5026022008B5034B3D
:10544000186803689B6A984708BD00BF5026022071
:1054500008B5034B18680368DB6A984708BD00BFAE
:105460005026022037B50649069D0C682168009534
:10547000002501954D6901462046A84703B030BD7F
:105480005026022008B5FDF795F9014B186008BDBC
:1054900050260220024B1B6803B11847704700BF1B
:1054A0005426022038B5054600F04CF8044628B9C9
:1054B000034B1D60FFF7EEFF204638BD0224FBE7DB
:1054C00054260220F0B505469FB018B902242046A4
:1054D0001FB0F0BD002308224FF4603168460093EE
:1054E000019300F079F804240646D8B96846FFF71E
:1054F000A5FC07460DEB0400FFF7A0FC022811D124
:105500000F4B70229F4208BF0024314602A800F0D2
:10551000A1FD3CB970224FF4603102A800F05CF8A4
:1055200038B1042423B2002BD1D10620FFF7B2FFFB
:10553000CDE7294602A8FFF7ABFD0446F2E700BF1E
:10554000D4B3515A014801F063BC00BF5826022071
:105550000148FFF743BC00BF582602202DE9F8435D
:105560000E461746804618B94FF0FF30BDE8F88365
:105570001848FFF742FC04461648FFF741FCB442C6
:1055800004EB0002F0D8F3199A42EDD3B842EBD302
:105590001048FFF72FFCB6FBF0F300FB1363054642
:1055A000002BE1D1B7FBF0F400FB1474002CDBD12D
:1055B0002046DFF82090BC4200D208B1BDE8F88355
:1055C00008EB0402A1192B46484601F019FC2C44B3
:1055D000F1E700BF5826022013460246014801F0B9
:1055E00027BC00BF582602200148FFF703BC00BFBC
:1055F0005826022001460148FFF7F2BB5826022038
:10560000F8B505460E480E46FFF7F7FB04460C4872
:10561000FFF7F6FB2044A84211D9AC420ED2084F46
:1056200021463846FFF7DCFB2044854204D836B1DA
:10563000854218BF2046F8BD0446F1E72046F8BD74
:1056400058260220F8B50E4601210446FFF7D8FF80
:1056500000210546A019FFF7D3FFAC42074611D140
:1056600000250A4EBC4200D20DB12846F8BD2146A5
:10567000304601F0D5FB214605463046FFF7B0FB2A
:105680000444EFE74FF0FF35EFE700BF5826022054
:1056900008B5FFF757FFB0FA80F0400908BDFFF7E3
:1056A00057BF000010B580B14FF0FF33084C2360A6
:1056B000FFF7D4FD00B240B92068421C01D130BFD1
:1056C000FDE7831F5842584110BD002010BD00BFA8
:1056D000182202202DE9F0410446A4B018B9012097
:1056E00024B0BDE8F081FFF7DDFF0028F7D0D4E952
:1056F000022313433FD04FF0000809A8FCF7E2FC57
:10570000002109A8FCF738FD2022002101A800F0A3
:10571000A1FC1A4FA568C5B1B8F1000F15D1B5F5B8
:10572000804F2E4628BF4FF48046A168324601F5CF
:105730006131491B3846FFF74FFF324680463946F4
:1057400009A8FCF7F8FDAD1BE5E701A909A8FCF7DE
:1057500088FE103409A8FCF7B9FC202201A92046D4
:1057600000F05EFC0028BBD0204600F05FF901A8E5
:1057700000F05CF9B3E70220B2E700BF7426022014
:1057800070B5054604464618B44204D22046FFF7D9
:1057900031FF0444F8E7601B70BD000038B570218C
:1057A00005464FF46030FFF7EBFF00F56033B3F5CB
:1057B000613F04460BD2134800F012F921464FF422
:1057C0006030FFF73FFF90B94FF4613403E04FF4CE
:1057D000603405F5806529462046FFF7D1FF0A4B66
:1057E0002044984207D829462046FFF72BFFB0FAFD
:1057F00080F0400938BD054800F0F2F84FF0FF3066
:10580000F5E700BF5D6A030000440900986A0300E1
:1058100030B5054685B0002838D0FFF7E5FE00F129
:105820006F04B4FBF0F4444370214FF46030FFF791
:10583000A7FFB4F5804F04D9164800F0D1F830BF67
:10584000FDE7844204D9134800F0CAF830BFFDE7F1
:105850002246FF21104800F0FDFB104A01AB07CAA9
:1058600083E8070019462846FFF740FC00B268B9F4
:10587000029B702B0AD122464FF460310648FFF795
:105880006DFEB0FA80F0400905B030BD4FF0FF303A
:10589000F7E700BF9A6B030074260220F46103004F
:1058A0002DE9F04F824685B00E4600295ED0FFF705
:1058B0009BFE4FF46134B4FBF0F44443D4F56134FF
:1058C000054604D02A4800F08BF830BFFDE7294B8D
:1058D0004FF0FF3B03934FF48043B3FBF0F343439C
:1058E0000120254F01934FF00009D6E90223994585
:1058F00008BF944237D2002835D00199121B0846C0
:105900004FF0000163EB0903994208BF904238BF92
:10591000024621460292504601AAC7F800B0FFF79E
:1059200091FC00B220B93B68013301D130BFFDE7E3
:105930003B68042B13D1029B8BB103F1FF38A844C1
:10594000B8FBF5F805FB08F804F561314246039809
:10595000FFF704FEB0FA80F044444009C3E707486B
:1059600000F03EF8002005B0BDE8F08F0846FAE7E9
:105970009A6B03007426022018220220056B030094
:1059800038B50C460546124800F02AF8A068FFF723
:1059900005FF08B9002038BD0E4800F021F8204668
:1059A000FFF736FF0028F5D00B4800F019F8214624
:1059B0002846FFF775FF0028ECD0084800F010F8E3
:1059C0002046FFF787FEB0FA80F0400938BD00BFDF
:1059D0002C6B03004E6B0300646B03007E6B0300B3
:1059E00038B50D4B04461A785AB100221E211A70A0
:1059F0000A481D22FDF70CFE4FF4E1310748FDF780
:105A0000A3FE064D013C14F8011F01B938BD28461C
:105A1000FDF7B2FEF7E700BF1C2202205C26022041
:105A2000014B1860704700BF182202207047002306
:105A300010B50F2986B0044603930493059300D94B
:105A400010B94FF0FF3011E004A903A8FCF7FAFDEC
:105A500040B258B905AB009322461023049903982D
:105A6000FCF712FD059B40B2102BEAD106B010BD29
:105A700038B5082000F0C4FA164B174C1860012006
:105A800000F0BEFA20601548FFF7AAFF1448FFF7A0
:105A9000C7FB1448FFF7CAFB00B278B11248FFF702
:105AA0009FFF4FF46130FDF735FB23680BB10022F7
:105AB0001A700E48FFF794FF002038BDFFF7E8FD8D
:105AC0000028EBD000F082F80546FFF7E8FD002D36
:105AD000EBD0E3E76426022060260220AA6B0300D5
