:020000041004E6
:1000000000750408AB2804100D0000000D29041031
:100010000D2904100D2904100D2904100000000002
:10002000000000000000000000000000092904108A
:1000300009290410000000000929041009290410EE
:100040000929041009290410092904100929041098
:100050000929041009290410092904100929041088
:100060000929041009290410092904100929041078
:100070000929041009290410092904100929041068
:1002800009290410092904100929041010B5054C86
:10029000237833B9044B13B10448AFF30080012332
:1002A000237010BDB808010800000000649204101B
:1002B0000C4B43B10C480D4910B5AFF300800C480E
:1002C000036823B910BD0A48036833B97047094B66
:1002D000002BF7D0BDE810401847064B002BF5D097
:1002E000184700BF0000000064920410BC08010819
:1002F000B003010800000000154B002B08BF134B92
:100300009D46A3F5803A00218B460F461348144AB8
:10031000121A06F03BFE0F4B002B00D098470E4BF5
:10032000002B00D098470020002104000D000D484C
:10033000002802D00C4802F01DFA06F0D9FD20007A
:10034000290002F059FA02F012FA00BF000008007A
:100350000075040800000000ED270410B80801082B
:100360004C4F010875270410000000000020704762
:100370002DE9D0431F4603689B6A16460446DDE913
:100380000689984702460B463046394606F0F2FE8B
:10039000134302D00020BDE8D083236820469B6A27
:1003A000984702460B464046494606F0E3FE134393
:1003B000F0D1236816EB08069B6B204647EB090734
:1003C0009847B94208BFB0422CBF01200020BDE8C9
:1003D000D0832DE9D0431F4603685B6A1646044666
:1003E000DDE90689984702460B463046394606F055
:1003F000C1FE134302D00020BDE8D083236820460D
:100400005B6A984702460B464046494606F0B2FEF4
:100410001343F0D1236816EB08069B6B204647EB8D
:1004200009079847B94208BFB0422CBF01200020FD
:10043000BDE8D0830020704703689B6A18470368B3
:10044000DB6A18474FF0FF307047838803F00702DC
:10045000012310B59340046809B9636010BDA3601F
:1004600010BD70477047036810B504465B6D984730
:1004700094F8703033B96367236820469B6D9847C2
:10048000002010BD636F013B6367002BF4D184F83B
:10049000703000220023C4E90223EDE74FF400701E
:1004A00000217047C36881685B02480243EAD1516A
:1004B0007047000000487047A874041080F871105D
:1004C000704770B5013100240646891A20468C42D7
:1004D0000CD01519A6EBD50305F00705DB7B2B41E6
:1004E00003F00103A34018430134F0E770BD016835
:1004F00070B5096B14461D460646884702460B46F2
:100500002046294606F036FE134301D0002070BD78
:10051000DDE90423A4185D41336814F1FF32196B3F
:10052000304645F1FF33884702460B4620462946B0
:1005300006F020FE1343E9D1336830469B6B9847A1
:10054000A94208BFA0422CBF0120002070BD0000BE
:100550002DE9F3419846194B03601646002300220B
:100560000446C0E9022310300D460A9F00F0DBFF6D
:100570004FF0FF333246009329464346002504F1ED
:10058000600604F1380000F071FEBDF92010256608
:100590003046656601F056FD304684F87050656758
:1005A0000121FFF752FF064B236320464FF40073EF
:1005B00025716763E36602B0BDE8F081B47404108E
:1005C000A08601002DE9F843C76E14461D46064675
:1005D0003A4600232046294606F0CCFD1343DDE9C8
:1005E000088917D13A4600234046494606F0C2FD25
:1005F00013430FD1336814EB08049B6B304645EB73
:1006000009059847A94208BFA0422CBF012000203D
:10061000BDE8F8830020BDE8F8830000416B08B511
:10062000084B9942024600F1380003D800F077FEEB
:10063000002008BD5363194600F071FE6FF01500ED
:1006400008BD00BF40787D0138B5036804461546F3
:100650005B6D984765632046FFF7E0FF236805461A
:100660009B6D20469847284638BD0000094B10B5C1
:10067000036090F8703004460BB1FFF7F4FE04F10C
:10068000380000F093FD04F1100000F0CEFE20468B
:1006900010BD00BFB474041010B50446FFF7E6FFA8
:1006A000204602F09DF8204610BD73B501F03F03CF
:1006B00043F040038DF80030130E8DF80130130C19
:1006C0008DF80230130A0D468DF803308DF80420A2
:1006D00019B1082921D0FF2300E095238DF80530BA
:1006E000002600F138041DF806102046013600F0FF
:1006F00064FE062EF7D10C2D03D1FF21204600F019
:100700005CFE1025FF21204600F057FE030601D5B0
:10071000013DF7D1C0B202B070BD8723DEE770B5EE
:1007200000F11004054620460E4600F0EBFE204680
:1007300000F08BFE3835FF21284600F03EFE864251
:10074000204603D100F0ACFE012070BD00F0D1FEC8
:10075000B0F5967FEFDB204600F0A2FE002070BDD2
:1007600070B500F11004054620460E4600F0CAFEA2
:10077000204600F06AFE3835FF21284600F01DFEB5
:10078000C0B2FF28204603D100F08AFE012070BDD0
:1007900000F0AFFEB042EFDB204600F081FE00200B
:1007A00070BD70B50E46002400F13805E3B2B342C7
:1007B00004F1010404DAFF21284600F0FEFDF5E70C
:1007C00070BD000073B50D46FE2104461646FFF7C6
:1007D000A6FF90B10022383411462B4600962046E1
:1007E00000F0FBFDFF21204600F0E7FDFF21204641
:1007F00000F0E3FD002002B070BD0148FBE700BF40
:1008000070ECFFFFF7B500F1380405460E462046B0
:1008100011461F4600F0D1FD002300933A463146B1
:10082000204600F0DAFD6FF07F41204600F0C5FD64
:100830004FF0FF31204600F0C0FDFF21204600F0C0
:10084000BCFD42F2107104462846FFF789FF04F010
:100850001F0003B0F0BD38B500F138050446284646
:1008600000F09AFCFF21284600F0A7FD04F160008B
:100870000021BDE83840FFF7E8BD38B500F1380485
:100880000546204600F088FC296B204600F047FD15
:1008900000222046082100F025FD2046FF2100F01F
:1008A000B6FD05F160000121FFF7CFFD28460A21C2
:1008B000FFF777FF2046BDE8384000F06DBC10B56B
:1008C0000446383401216030FFF7BFFD2046FF2188
:1008D00000F073FD2046BDE8104000F05DBC000054
:1008E0002DE9F0470C46064691469A46DDF82080F1
:1008F000FFF7B1FF0C2C04D042F210713046FFF725
:100900002FFF0325BAF1000F09D03721002230460E
:10091000FFF7CBFE42F210713046FFF721FF4A4647
:1009200021463046FFF7C1FEFF28074671D1013D41
:10093000E8D1B8F1000F03D0FF28C8F800006BD150
:100940003046FFF7BCFF3848BDE8F087420709D5BD
:100950003046FFF7B4FF082C01D10423337133482C
:10096000BDE8F08710F0120F1BD110F0600F304D72
:1009700008BF00250D2C3DD015DC082C31D00C2CE7
:1009800032D0B8F1000F01D0C8F80070093CE4B2D1
:10099000102C38D8274B23FA04F4E30733D595BB42
:1009A00034E0254DE6E7262C1ED03A2CE9D106F19D
:1009B0003809FF21484600F000FDFF2107064846A0
:1009C00000F0FBFCFF2147EA0047484600F0F5FC39
:1009D000FF218246484600F0F0FC074347EA0A2719
:1009E000CFE702233371E2E742F210713046FFF79E
:1009F000B7FEC6E7FF2106F1380000F0DEFC07462F
:100A0000B8F1000FC0D13046FFF759FF2846BDE8C6
:100A1000F087B8F1000F8FD1010797D53046FFF767
:100A20004EFF0648BDE8F08773ECFFFF76ECFFFF52
:100A300075ECFFFF01A301006EECFFFF6FECFFFF01
:100A40002DE9F341DDE90867CDE9006704469046EA
:100A50001D46FFF7B7FD002840D0236820465B6D98
:100A6000984794F8703043B923681D4D9B6D20461C
:100A70009847284602B0BDE8F0812379B6F50076A4
:100A800047F1FF37032B07D1730A43EAC7534FEAF5
:100A900058281E4648EAC5580023009342462021A4
:100AA0002046FFF71DFF054620B1236820469B6DB9
:100AB0009847DEE70090034608EB06022121204616
:100AC000FFF70EFF05460028EFD1009003460246CF
:100AD00026212046FFF704FF0546E6E7014DC8E75B
:100AE00074ECFFFF75ECFFFF1FB504AA002342F86A
:100AF000043D082100924FF4D5720446FFF7F0FE42
:100B000058B92379022B08D1039BC3F30B03B3F528
:100B1000D57F1EBF04230248237104B010BD00BF5F
:100B200071ECFFFF7FB50546052403AE00231A468E
:100B3000194600962846FFF7D3FE039B012B04D0ED
:100B4000012001F0ACFE013CF0D1039804B070BD6F
:100B50002DE9F043002380F8713085B00546FFF79A
:100B60008CFE2846FFF7DEFF01285AD12846FFF702
:100B7000BBFF10B12C4B98420ED103AF002300975E
:100B80001A463A212846FFF7ABFE28B9039BD90243
:100B900005D4042325482B7105B0BDE8F0832B79DB
:100BA00005F11006022B304614BF4FF000094FF03C
:100BB000804900F04AFC42F20F7801234A46009730
:100BC00029212846FFF78CFE039BDA07044604D54B
:100BD000304600F08EFC4045EFDD304600F060FC12
:100BE0000CB9039B1BB104232B712046D4E72B794E
:100BF000022B14D10097234622463A212846FFF7BC
:100C00006FFE20B9039B5B0001D503232B710023EA
:100C100000931A463B212846FFF762FEBCE70123FA
:100C2000F4E70348B8E700BF76ECFFFF71ECFFFF85
:100C300073ECFFFF2DE9F7430A9D0B9F0E460168F9
:100C40008DE8A000096C0446904699468847002824
:100C50005CD0236820465B6D984794F8703043B9A8
:100C600023682B4F9B6D20469847384603B0BDE85C
:100C7000F08323796D0A032B45EAC75504BF4FEA79
:100C8000582848EAC9580027012D00971BD13B4638
:100C9000424618212046FFF723FE074620B123686D
:100CA00020469B6D9847E0E74FF40073FE223146E3
:100CB0002046FFF7A7FD174B052818BF1F46204603
:100CC000FFF7FDFDEBE701232A4617212046FFF73A
:100CD00007FE00973B46424619212046FFF700FEDB
:100CE00007460028DBD14FF40073FC223146204632
:100CF000FFF788FD052803D1013D06F50076F2D106
:100D0000FD2104F1380000F058FBD8E7024FACE7B2
:100D100074ECFFFF6DECFFFF75ECFFFF2DE9F3476F
:100D2000DDE90A890F460168CDE90089C96B0446EF
:100D300015469A46884750B1236820465B6D984710
:100D400094F870302BB9236820469B6D9847204D4E
:100D50001AE023794FEA5826032B08BF6D0A46EAAA
:100D6000C95608BF45EACA550023012E2A460093FA
:100D70008CBF122111212046FFF7B2FD054638B184
:100D8000236820469B6D9847284602B0BDE8F0874F
:100D90005EB14FF4007239462046FFF713FD18B9D3
:100DA00007F50077013EF3E70A4D2046FFF787FD80
:100DB00000234FF400724B4508BF4245E0D20023A8
:100DC00000931A460C212046FFF78AFD0546D7E717
:100DD00075ECFFFF70ECFFFFF8B50C46FE210546F1
:100DE0001746FFF79CFC20B92846FFF768FD0D4821
:100DF000F8BD274405F13806BC424FF0FF013046EC
:100E000004D000F0DAFA04F8010BF5E700F0D5FAA7
:100E1000FF21304600F0D1FA2846FFF750FD0020B0
:100E2000F8BD00BF70ECFFFFF0B587B00024009460
:100E30002346224609210646FFF752FD07460028B1
:100E40004DD1102202A93046FFF7C6FF0546002803
:100E500044D17E227F2102A8FFF733FB18B101287D
:100E600034D02C463BE03E22492102A8FFF729FB63
:100E70002F220446312102A8FFF723FB502205460A
:100E8000532102A8FFF71DFB023501340123AC40BA
:100E900003FA00F0A4FB0001440A2E2244EAC154E4
:100EA0004D0A02A81146FFF70CFB18B14FF400736E
:100EB000F36607E027222D2102A8FFF702FB01308D
:100EC0004002F0662046294607B0F0BD3022452199
:100ED00002A8FFF7F6FA01308402E7E73C46254610
:100EE000F0E7036837B504465B6D984794F87030B7
:100EF00003B96367636F0133012B63672FD120460A
:100F0000FFF726FE051E0CBF0123002384F8703076
:100F100004D0236820469B6D98470DE02046FFF7DC
:100F200083FF50EA0103C4E9020108D12368204687
:100F30009B6D98476FF47A65284603B030BD0095E5
:100F40002B464FF4007210212046FFF7C9FC002801
:100F5000ECD12046FFF762FB05460028D9D1236873
:100F600020469B6D98470025E6E77047704702F0E2
:100F70008DBA02F081BA02F08BBA02F08CBA02F09C
:100F80008DBA0246006820B9106810B902F1080055
:100F90001060704770B50B4E05463046FFF7F1FF05
:100FA000284602F021FA0446284602F06FFA01F0C2
:100FB00007FC68603046FFF7E4FF201C18BF0120E3
:100FC000404270BDD808010838B505460948FFF70A
:100FD000D8FF284602F00AFA003018BF0120444228
:100FE000686808B101F0FEFB0248FFF7CAFF20461F
:100FF00038BD00BFD80801082DE9F0410A4C0F4662
:101000001646054698462046FFF7BBFF43463A463C
:101010003146284600F0E8FF05462046FFF7B1FFBD
:101020002846BDE8F08100BFD80801082DE9F74F38
:101030001646994680460F4602F028FA0546404675
:1010400002F029FA8246404602F022FAB6FBF5F396
:1010500005FB136404B917B94FF0FF3353E009EBF4
:10106000060382445345F7D82948FFF78AFF2346F1
:10107000B9F1000F42D0002B40D13146404602F07A
:10108000FBF9B6FBF0F400FB1464041B4C4528BFCD
:101090004C46BB0701D1A54229D9AC4228BF2C46FA
:1010A00022463946D8F8040005F065FFAC4206D266
:1010B000D8F804002A1BFF21204405F067FFD8F868
:1010C00004300193AB464FF0100A5B46019A31465B
:1010D000404602F097F9034620B1BAF1010AF4D173
:1010E0004FF0FF33A9EB040926442744C0E7B4FBC3
:1010F000F5F405FB04FB5C460197E4E70448019323
:10110000FFF73FFF019B184603B0BDE8F08F00BF1B
:10111000D80801082DE9F0410D461646074602F0B1
:10112000BAF90446384602F0B3F92044AC19A0429B
:1011300003D24FF0FF30BDE8F08119D81548FFF712
:1011400020FF0024FEB1F4B94FF0100829463846BC
:1011500002F04EF9044620B1B8F10108F6D14FF083
:10116000FF342946384602F087F9361A0544E9E784
:101170002146384602F080F9B4FBF0F303FB10403F
:101180000028D6D1DAE70348FFF7FBFE2046BDE88A
:10119000F08100BFD808010843689A6C22B99A6CA4
:1011A00012B903F150029A647047000008B5064B6B
:1011B0000360FFF7F1FF43689A6D904204BF00227D
:1011C0009A65FFF7E9FF08BD1875041010B50446CD
:1011D000FFF7ECFF204601F003FB204610BD0000A6
:1011E00038B5054601F0FAF9074B1B68002B08DDFE
:1011F000064C2078A84218BF002401F0F9F92046D7
:1012000038BD0024F9E700BF48090108E8080108D3
:10121000044A1368591C1160034A602000FB032034
:10122000704700BF48090108E808010838B50823DD
:1012300083610D4B03620025FF2380F82550C561B3
:1012400080F82430044601F0C9F92846FFF7C8FFAA
:101250000546606018B9FFF7DBFF60600570BDE808
:10126000384001F0C5B900BF40420F0010B5044638
:101270000A482060A38104F11000BDF90830E38121
:1012800000232181628123614FF0FF31436000F030
:10129000D9FE2046FFF7CAFF204610BD187504107E
:1012A00037B504464068836D9C4219D0B4F90E509E
:1012B000B4F90C30B4F90A20B4F9081000950430E0
:1012C00004F0D0F96068E269A1690023043004F0F9
:1012D00079FA6068216A043004F094FA63689C65C6
:1012E00003B030BD036870B504461B690D46164651
:1012F00098476068A561836DE6619C420BD100232D
:1013000032462946043004F05DFA236820465B69C2
:10131000BDE8704018472046FFF7C2FFF5E70368B5
:1013200070B504461B690D46984760682562836D59
:101330009C4209D12946043004F064FA236820460F
:101340005B69BDE8704018472046FFF7A9FFF5E745
:10135000B0F914305A1C08D003F0070201230069C9
:10136000934009B9436070478360704738B503689C
:1013700004461B69984794F925506B1C84F8253066
:1013800045B92046FFF78CFF29462046BDE8384086
:10139000FFF7DEBF38BD10B590F82530013B5BB2DA
:1013A000044680F8253013B90121FFF7D1FF2368E7
:1013B00020465B69BDE81040184738B504460D4625
:1013C000FFF7D4FF60682946043004F040FA054670
:1013D0002046FFF7E0FF284638BDF7B504461F4614
:1013E0000D461646FFF7C2FF94F82430606801935B
:1013F000089B009329463B463246043004F035FAF8
:1014000005462046FFF7C7FF284603B0F0BD70B57C
:10141000036804461B690D469847236884F82450E6
:1014200020465B69BDE87040184710B5044601F0DE
:10143000D5F823681BB1237F0BB101F005FA002317
:10144000236001F0D5F8204610BD10B5044601F028
:10145000C5F8236853B9237F0BB101F0D5F9A06912
:1014600000F0FAFFC4E9020101232360BDE8104047
:1014700001F0BEB838B5044601F0B0F8236863B196
:10148000A06900F0E9FFD4E90245041B61EB050502
:1014900001F0AEF82046294638BD00240025F7E7C4
:1014A00010B5044601F09AF82046FFF7E3FFD4E9AF
:1014B0000423801859412368C4E904011BB1237F28
:1014C0000BB101F0C1F900232360BDE8104001F029
:1014D0008FB870B5064601F081F83046D6E904456C
:1014E000FFF7C8FF24184D4101F082F82046294635
:1014F00070BD08B5FFF7EDFF4FF47A72002305F0D9
:1015000039FE08BD10B5044601F068F8A06900F086
:10151000A3FF00220023C4E90201C4E90423BDE8BB
:10152000104001F065B8002310B5002203600023CD
:10153000C0E90223C0E90423044600F0A3FF01230D
:10154000A06123772046FFF7DDFF204610BD000095
:10155000052804D00628034818BF00207047024819
:10156000704700BF60790410307904100C2200210C
:1015700005F00CBD10B50446A8B103689BB14068E6
:1015800008B15B6A9847A06838B12368D9684900F8
:1015900000F028F9A06805F0D7FC20460C21BDE832
:1015A000104000F01FB910BD70B5044616460D4638
:1015B00099B190B10B6A9847606048B156B1E9683B
:1015C000022005F08DFCA06020B96B6A6068984726
:1015D000034870BD2560002070BD024870BD00BF8B
:1015E00080AEFFFF00AFFFFF2DE9F0410E4688B04F
:1015F00017460446002857D00368002B54D0826851
:10160000002A51D0DA68BA4217D21B69406898475D
:101610000546002834D1236860685B693A46314644
:101620009847054660BB236860689B696946984790
:10163000054628BB23689F686E462368D4F8088057
:10164000DA683621404608EB020505F09FFC236866
:101650005C21DA68284605F099FC013E4346681E85
:1016600047449F4214D1236860681B699847054628
:1016700030B9236860685D69DA684146A847054665
:101680002021684600F0AEF8284608B0BDE8F08199
:1016900071781A784A4003F8012B427816F8011F36
:1016A0004A4000F8012FDCE7004DEDE700AFFFFFF7
:1016B00010B440B1036833B1846824B15B694068F9
:1016C0005DF8044B184702485DF8044B704700BFB3
:1016D00000AFFFFF2DE9F0410E4688B0044630B35D
:1016E000036823B3856815B3D3F80C8040689B6901
:1016F00069469847C0B9236860681B69984798B9DC
:10170000236860685F69DA6805EB0801B84758B973
:10171000236860685D699A686946A84720B92368AC
:1017200060689B693146984708B0BDE8F081014880
:10173000FAE700BF00AFFFFFF0B50E4685B01746D1
:101740001D46044610B301A8FFF710FF21460122F1
:1017500001A8FFF729FF044690B93A46314601A88F
:10176000FFF742FF044658B90A9A294601A8FFF735
:101770009FFF044620B90B9901A8FFF7ABFF044671
:1017800001A8FFF7F7FE204605B0F0BD004CFAE7D0
:1017900000AFFFFF00F08EB800F035B810B504467A
:1017A00000F02CF82046BDE8104005F0CDBB10B588
:1017B0006C21012005F094FB044608B100F01AF8F2
:1017C000204610BD012300F0EAB9002300F0E7B97C
:1017D00000F04FB900F00CB9012100F019B8002158
:1017E00000F016B8024B0A461B680021184700BFDC
:1017F000900201086C22002105F0C8BB10B16C21D9
:10180000FFF7F0BF704708B56C2205F0B4FB08BDC8
:10181000002303604360B9B9184B8360184BC36061
:10182000184B0361184B4361184B8361184BC3611C
:10183000184B036203F17453A3F52303A3F69243F9
:101840004362816600207047134B8360134BC36073
:1018500003F1794303F5740303F501630361104B4E
:101860004361104B836103F1D14303F5C01303F5CA
:101870001E63C3610C4B03620C4BE1E767E6096A28
:1018800085AE67BB72F36E3C3AF54FA57F520E51A1
:101890008C68059BABD9831FD89E05C107D57C36C4
:1018A00039590EF7310BC0FFA78FF964A44FFABE68
:1018B000FFF7AEBF2DE9F04FCBB000F10803009366
:1018C0001A46002302A852F8044B40F82340013383
:1018D000082BF7D102AC94E85004059BDDF824B046
:1018E000069D089FDDF81CC00193ADF118024FF072
:1018F000000EBEF10F0F62D84B7891F800901B04D8
:1019000043EA0968CB7848EA030391F8028043EA86
:1019100008231364354B53F82E301846136C4FEAE6
:10192000F528184488EAB5188CEA070388EA756830
:101930002B4080447B409844019BCDF804A0D844C0
:101940004344184646EA04094FEA743306EA040B96
:1019500083EAB40309EA0A0949EA0B0983EAB453A2
:101960000EF1010E4B44BEF1400F434401F104015E
:1019700002F10402BB461BD1029309970690CDF8F1
:1019800020C0079503940496CDF814A00023009A74
:1019900002A9126851F823100A440099013341F852
:1019A000042B082B0091F2D100204BB0BDE8F08F42
:1019B000B24667462646AC461C46054699E7936BF9
:1019C000D2F804904FEAF34888EA734888EA9328EB
:1019D000536A1846136818444FEAB94383EAF91367
:1019E000804483EAD90908EB090392E7A07904103F
:1019F0002DE9F04105460F46144612B90020BDE816
:101A0000F081036803F03F0013449A422B6082BFC9
:101A10006B6801336B6008B3C0F14006B24216D365
:101A200005F128083246404405F0A5FA414628460B
:101A3000FFF740FF0028E2D13744A61B3446311B94
:101A40003F2C39440CD8002CD8D00F460020283524
:101A500022463946284405F08EFACFE71646EDE7D0
:101A60002846FFF727FF0028C9D1403CE7E7FFF7EA
:101A7000BFBF036870B503F03F030446581C2344FE
:101A8000802238280D4683F8282004F1280674D8CF
:101A9000C0F138020021304405F078FA236861680B
:101AA0005A0F42EAC102110EDB0084F86010110CDB
:101AB00084F8611084F86320110A1A0E84F86420F7
:101AC0001A0C84F865201A0A84F8621084F86620DB
:101AD00084F8673031462046FFF7ECFE00284BD1F2
:101AE000E37A2B7063896B70A3681B0AAB70A368E1
:101AF000EB70E37B2B71E3896B71E3681B0AAB71BD
:101B0000E368EB71E37C2B72638A6B7223691B0AB7
:101B1000AB722369EB72E37D2B73E38A6B736369AA
:101B20001B0AAB736369EB73E37E2B74638B6B747B
:101B3000A3691B0AAB74A369EB74E37F2B75E38B7A
:101B40006B75E3691B0AAB75E369EB7594F8233099
:101B50002B76638C6B76236A1B0AAB76236AEB7653
:101B6000A36E4BB994F827302B77E38C6B77636ABD
:101B70001B0AAB77636AEB7770BDC0F140020021AE
:101B8000304405F003FA31462046FFF793FE002863
:101B9000F2D10146382230467EE7FFF76ABFF0B542
:101BA0009DB01C46064601A80F461546FFF722FECB
:101BB000214601A8FFF72CFE044658B93A463146A3
:101BC00001A8FFF715FF044620B9294601A8FFF731
:101BD00050FF044601A8FFF711FE20461DB0F0BDDE
:101BE00010B5072300220121C40744BF01FA03F402
:101BF000224313F1FF334FEA5000F5D2104610BDD7
:101C00002DE9F04F8FB0074606A816460D469A46B6
:101C1000FFF7ABF9102200210AA805F0B7F956B971
:101C20006748684C04F0F4FA06A8FFF79FF92046CD
:101C30000FB0BDE8F08F06A8FFF7ACF9044628B155
:101C400001466148614C04F0E3FAEDE7394606A825
:101C5000FFF78FF907F18F039D4266D306A8FFF7C0
:101C60008AF9804606A8FFF788F9404485425CD887
:101C70000135ED1B4FEA5508A04507EB040104D9D7
:101C800006A8FFF776F90444F6E7514B0A972D1B97
:101C9000002B0D950B940C9114BF012702270025F2
:101CA00006A80AACFFF76BF954F835200DF12008AF
:101CB000814608234032414606A8FFF79DF930B916
:101CC00018F800304B4539D101300828F8D10135DA
:101CD000022DE5D13F4940483E4C04F099FA06A850
:101CE000FFF772F9A0E718F1010849F10009DDE9F1
:101CF0000001894508BF80455ED212F8010F0392AA
:101D0000FFF76EFF039A8BEA006B0921013911F08E
:101D1000FF01E8D0BBF1000F4FEA4B03B6BFDFF87D
:101D2000C4B09B4683EA0B0BF0E72C48254C04F02B
:101D30006FFA24492A4804F06BFAD0E7189BBDF8E3
:101D4000228013B1189BC3F80080C245BFD354F85A
:101D500035204346314606A8FFF74EF904460028D1
:101D6000B5D11FFA88F20023022FCDE900234FF0EE
:101D700000084FF000094FF0FF3B06F1FF32B6D0EC
:101D800013490491DDE90001894508BF804513D25C
:101D900012F8010F03920592FFF722FF80EA1B6001
:101DA000C0B20499039A51F8200018F1010880EAA2
:101DB0000B2B49F10009E4E7099A5A458FD086E7D1
:101DC000A07A04100101FF80C37A04100F01FF8084
:101DD000307504100701FF80EB7A04101C7B04109F
:101DE000577B0410B71DC1042DE9F347054668462B
:101DF0000E46FFF7BAF84949084605F099F920B9A7
:101E0000474B2B604FF4B84005E04649434805F086
:101E10008FF948B928602B68034433602B688BB96D
:101E200040B94FF0010811E03F493C4805F080F906
:101E30000028E7D03D4C6846FFF798F8204602B0EE
:101E4000BDE8F0870028F5D04FF000086846FFF79E
:101E5000A1F8044600285ED1354A3648364B104476
:101E6000A0EB030A51466846FFF783F881466846AF
:101E7000FFF781F807466846FFF77FF80744B8F197
:101E8000000F2ED1D5F8008068464146FFF771F863
:101E90002346024681462146404605F06BF9D6F8B6
:101EA00000A000FB09F90AF1FF316846FFF761F86D
:101EB000002180461AF1FF304246234641F1FF31AE
:101EC00005F058F92B684B4500FB088804D13368AE
:101ED000434501D19F421AD26846FFF775F8174C67
:101EE000A9E7791E6846FFF744F80021A7EB4008F0
:101EF0001AF1FF304A4641F1FF31234605F03AF925
:101F000000FB0999C845E7D3C5F8008037606846EB
:101F1000FFF75AF88FE70A4C8DE700BF887B041063
:101F200000800F10937B0410A07B04100901FF8038
:101F300090920410400801088C0201080601FF80FD
:101F40000F01FF8030B5144D2B78BFF35B8F13F07A
:101F5000010487B01CD1284600F018FCC0B10F4A1C
:101F600004940023CDE9022340F6034340F60142E6
:101F70004FF4406100930A4840F60243FEF7E8FA46
:101F8000284600F015FC074A0749054800F0EDFB1C
:101F9000034807B030BD00BF4C09010840420F00A4
:101FA000500901088C0201086D060410EFF310833C
:101FB000DB4372B6044A117829B9044903F00103DE
:101FC0000B70012313707047C9090108C809010883
:101FD000034B00221A70034B1B7803B162B67047A3
:101FE000C9090108C809010808B510461A4604F0D5
:101FF000C2FF002008BD38B504460D46A38800681E
:1020000003F0070101238B4052B9436020460121B0
:1020100001F0B3FA29462046BDE8384001F0AABADB
:102020008360F3E770B50E460446154601F07AFA70
:10203000013606D02A4620460021BDE87040FFF751
:10204000DABF70BD0022FFF7EDBF0000884207B580
:1020500002460AD0431C08D0013105D0002300936A
:102060001946044800F054FB0146084603B05DF8E9
:1020700004FB00BF30010180B1F900305A1C01D1CE
:1020800018467047834201D1486870470C31F3E726
:10209000431C07B50AD0FFF7EFFF431C06D100230E
:1020A000024600931946034800F032FB03B05DF886
:1020B00004FB00BF30010180B1F900305A1C01D18E
:1020C00018467047834201D1886870470C31F3E7A6
:1020D000431C07B50AD0FFF7EFFF431C06D10023CE
:1020E000024600931946034800F012FB03B05DF866
:1020F00004FB00BF300101802DE9F74FD0F804A0A8
:102100009AF83A300446002B46D103685B6898473A
:1021100063681B6A98423FD0DAF82030DAF808404A
:10212000CAF82000A0EB0308DAF80C30314808EABE
:102130000308844246464FF0000727D0DAE90A2315
:102140009AF83BB0A8FB0089CDE900230025BBF13C
:10215000000F2BD05A464046494604F0F3FFDDE914
:10216000002312EB080243EB090390465A469946B6
:1021700006460F4604F0F2FFB8EB000069EB0101E0
:10218000A94208BFA0420AD2CAE90A01DAE90C232F
:10219000B6185F41CAE90C6703B0BDE8F08F01369D
:1021A00047F10007001B61EB0501EDE722462B46D6
:1021B0004046494604F0DEFF224606460F464046AA
:1021C00049462B4604F0D6FFDDE9008918EB0208EA
:1021D00049EB0309A94508BFA04502D2CAE90A890B
:1021E000D4E7013647F10007B8EB040869EB0509AD
:1021F000F4E700BF40420F00824206D98A420BD961
:10220000884294BF002001207047884206D98A4244
:102210008CBF0020012070470120704700207047CC
:102220002DE9F047466896F83A300746002B66D10C
:1022300096F83930002B62D1FFF75EFF7D68D7F842
:1022400000A06B68002B50D0D5E90C89D3E90001C0
:10225000894508BF804504D3DAF81430BDE8F0475B
:102260001847D5E90623B0EB080861EB09094B458F
:1022700008BF42452C6906D3AB68224A934216D167
:10228000444528BF44462A6ADAF810301444EA6804
:102290001440204698473B685B68984722460146B1
:1022A000306AFFF7A9FF50B33B685B69D6E795F842
:1022B0003B20AAB14046494604F050FFDFF8488071
:1022C000104A18EB00084FF0000949EB0109002300
:1022D0004046494604F04EFF844228BF0446D2E7F8
:1022E000A3FB080103FB0911E8E73369306AF268D0
:1022F00018441040DAF81030BDE8F0471847BDE840
:10230000F08700BF40420F003F420F002DE9F04F21
:10231000436893F8382085B00546002A64D193F8C5
:102320003A30002B60D103681B6898472B68DB6943
:1023300098472F4B06680122002E08BF1E461F2318
:1023400002FA03F1B1425FFA83FB02D0013BF7D1FD
:102350009B464768264C3B1F1D2B28BF20273B1F51
:102360004FF0070A16F1FF300AFA03FA4FF00003A4
:1023700043F1FF313246C4FB0A0104F0FBFE6C68F6
:102380002A6800232360636052680393CDE900014B
:10239000904720626C684FF000084FF000093A4601
:1023A000C4E90A89A66084F83BB00120002104F04A
:1023B000D5FEDDE90023C4E90623039B84F8393008
:1023C00084F83A3001380123E060C4F810A02846B0
:1023D000C4E90C8984F83830FFF78EFE284605B032
:1023E000BDE8F04FFFF71CBF05B0BDE8F08F00BFA0
:1023F00040420F0070B5044600F0F0F82368DB6837
:102400009847636893F83A201AB1BDE8704000F02D
:10241000EFB8012283F8392063685B68A3B12046D6
:10242000FFF76AFE65686E68D5E90C01D6E90023FE
:10243000994208BF904207D3F3686B602B68002B6A
:10244000EAD0B0689847E7E76368002283F839204C
:102450002046FFF7E5FED8E738B50446FFF756FFFC
:1024600000F0BCF82046FFF747FE6368D3E90C454F
:1024700000F0BEF82046294638BD08B5FFF7ECFF4E
:1024800008BD000000487047A87B0410024B1B6881
:102490000BB102481847704794020108A87B04104A
:1024A00004F0D8BD04F088BD04F078BDF0B572B674
:1024B000224A234F002313604FF0E0224FF0FF36F3
:1024C000516801F00F0101311D469A0002F160428E
:1024D00002F561424FEAC30EC2F88060C2F8806123
:1024E000002202EB0E043C440132082A84F8005317
:1024F000F7D101339942E8DC124B4FF020625A6069
:1025000040F2FA529860DA6000221D6111469C1870
:1025100001320C2A2176FAD14FF0FF3259629A62C9
:10252000094ADA621F221A6341680368002282F3B3
:1025300014889D4682F310880847F0BD10E000E043
:1025400000E100E000ED00E0020000C0838803F03D
:102550000702012310B59340046809B9636010BDF8
:10256000A36010BD07B500F039F803216846FFF7F6
:1025700069FD124D042401216846FFF7E7FF284654
:1025800000F07EF900216846FFF7E0FF284600F0E2
:1025900077F9013CEFD10A4E042401216846FFF788
:1025A000D5FF304600F06CF900216846FFF7CEFFFA
:1025B000304600F065F9013CEFD1DBE7F04902005D
:1025C000801A0600EFF31080C04300F0010070474E
:1025D000EFF30580003018BF0120704708B5FFF702
:1025E000E5FC024A13680133136008BD100A0108B4
:1025F000044A136823B1013B13600BB9FFF7E8BC31
:10260000704700BF100A01080122D0E84F3FC0E820
:10261000412F0029F9D1D8B2003018BF01207047EE
:10262000D0E85F3F0B449BB2C0E8523F002AF7D18D
:1026300018467047D0E85F3F5B1A9BB2C0E8523F34
:10264000002AF7D11846704708B50B48FFF7DCFFA2
:1026500028B1FFF7C3FFBFF34F8F20BFFDE7FFF7A0
:10266000B7FF08B1FFF77EFFFFF7ACFF0028F9D0F6
:10267000012000F07CF800BF540A010870B5164C28
:102680008EB034EA200428BF04460D4616460021C9
:10269000342201A804F07AFC019402960395FFF716
:1026A0009DFF0E4A13680133012B136004D13422BD
:1026B00001A90B4804F05FFC342201A9094804F089
:1026C0005AFC094B1B680BB106489847FFF790FF6F
:1026D00000200EB070BD00BF0101FF80140A010888
:1026E000200A0108580A0108180A01080FB4064810
:1026F00008B57446FFF788FF014618B9224603481B
:10270000FFF7BCFFFFF7A0FF1C0A01080001FF80D4
:1027100008B50446064876461546FFF775FF20B90A
:10272000324629462046FFF7A9FFFFF78DFF00BF7D
:102730001C0A0108074A084913681844884289BFDF
:10274000064B10600C224FF0FF308CBF1A60184609
:10275000704700BF9802010800650408484F01084F
:1027600008B508B1FFF7FEFEFEE70120704708B587
:10277000FFF7F6FF012070477047704708B5FFF775
:10278000FBFF08BD08B5FFF7F8FF08BD0378DBB213
:1027900003F00303012B09D0037803F00302012A9D
:1027A00004D043F0020303700120704700207047FB
:1027B000037823F0030343F0010303707047000024
:1027C00013B5044604F0B8FB034628B9009001464F
:1027D00022460248FFF79CFF02B010BD1F01018096
:1027E00004F0B2BB04F0B0BB7047704708B500F00E
:1027F00085F9FFF7FAFF08BD08B5FFF7F5FFBDE85B
:10280000084004F059B9000013B50D4CFFF7E6FE7F
:1028100022884FF6FF739A4208D1FFF7E9FE0023A2
:102820002288009319460748FFF772FF01212046CE
:10283000FFF7F6FE02B0BDE81040FFF7D9BE00BFBB
:102840008C0A01082301048037B50B4CFFF7C6FE44
:10285000258845B9FFF7CCFE228800952B462946EE
:102860000648FFF755FF01212046FFF7E3FE03B0BE
:10287000BDE83040FFF7BCBE8C0A0108240104808B
:1028800070B50446FFF7FEFD0646FFF7F6FD054668
:102890003046FFF7F2FD401BA042F9D370BD4FF464
:1028A0007A735843FFF7ECBF7047FFF7FDFF72B62E
:1028B0000F4C104DAC4209DA21686268A368043BF2
:1028C000A2BFC858D050FAE70C34F3E70A490B4AC4
:1028D00000209142BCBF41F8040BFAE708480949BF
:1028E0000860BFF34F8F00F013F9FDF705FDFEE719
:1028F0007092041088920410B80801084C4F010827
:102900000000010808ED00E0FEE7FEE700B5042046
:102910007146084202D0EFF3098001E0EFF308802E
:10292000043001F093FFFEE7012001F0DFBA7047A9
:10293000544BD3F8801301F00F018A0002F180425A
:1029400002F5181210B5D2F8403313F0070369D01E
:10295000042B5CD04C4B002969D14A4AD2F890052F
:10296000D2F88815D2F8884514F0405FC1F30171A0
:1029700005D0D2F88825C2F30172012A01D1C4071B
:1029800001D4032913D13F4AD2F88015D2F8840527
:10299000D2F88025C0F30C00B3FBF0F0C1F31103B3
:1029A00003FB00F1C2F300630133B1FBF3F3354ADB
:1029B0003648D2F88023C2F30112D340344A136060
:1029C000344AD2F890101269120E0132B3FBF2F2BF
:1029D0000260C1F307220132B3FBF2F32E4A2F4902
:1029E00013602F4A136003F5742202F23F22B2FBF8
:1029F000F1F22C4903F2E7330A704FF47A72B3FB19
:102A0000F2F3294A1360294ADB03136010BDD2F8A0
:102A1000003303F01F03112B01D0132B04D14FF40B
:102A2000004398E7224B96E74FF4FA4393E70139C6
:102A30000129BCD8D2F83C46D2F8FC15D2F8FC05E6
:102A400010F0405FC1F3017105D0D2F8FC05C0F36E
:102A50000170012801D1E00701D40329A7D1D2F8E0
:102A6000FC15D2F8FC45D2F8FC0501F07F02534377
:102A7000C4F30422B3FBF2F3C0F30442B3FBF2F35A
:102A800095E700BF0000264000366E01A402010851
:102A9000A0020108000021409C02010840420F00F2
:102AA000AC020108B4020108B0020108A802010842
:102AB00000127A0008B50D4800F0CAFEFFF737FF94
:102AC000FFF736FF00221146042001F04DFA0848B6
:102AD00001F01EF9074B1B6893F8513013B10648FB
:102AE00001F052F9BDE8084000F082BF2C880410C4
:102AF000900A0108140F01082080041008B500F0A6
:102B000057FEFFF7D7FF00F017F862B608BD0000C8
:102B100008B500F096FE074AD2F8883043F47003F7
:102B2000C2F88830BFF34F8FBFF36F8FBDE8084006
:102B300000F08BBE00ED00E008B500F05DF800F09D
:102B4000DFF800F003F900F099FABDE8084000F062
:102B5000F9BB0000F0B50F4B1C6894F87050A668E4
:102B600094F8717094F8733094F87240032202FA6A
:102B700003F305FA04F423432940104043F00043D3
:102B8000B8400B430343C6F80034D6F800340020A5
:102B9000F0BD00BF140F010810B5094B1B6893F876
:102BA00071409A6893F8703000F003001940A0401B
:102BB00041F080410843C2F80004002010BD00BF6E
:102BC000140F0108072811D8FF290FD8084B1B68DC
:102BD000B3F874209B681A4452F8203023F47F43E2
:102BE00043EA012142F82010002070470148704755
:102BF000140F010801004A0008B500210120FFF769
:102C0000CBFF284B1B689A68B3F876108B5823F4D7
:102C10007F0323F47F4343F4793343F440738B50B1
:102C200001200021FFF796FF00210846FFF7B4FFBF
:102C300000210846FFF7C6FF00210846FFF78AFF7C
:102C400001210020FFF7A8FF07210120FFF7BAFFAD
:102C500001210020FFF77EFF02210020FFF79CFFEB
:102C60006C210220FFF7AEFF02210020FFF772FF68
:102C700003210020FFF790FF01210320FFF7A2FFAF
:102C800003210020FFF766FF04210020FFF784FFE7
:102C9000FF210420FFF796FF04210020BDE8084033
:102CA000FFF758BF140F010830B5134B1B6893F89A
:102CB0003F40844204D9032902D819B9072A0BD905
:102CC0000E4830BD012901D10F2AF8E7022901D1B0
:102CD000032AF4E7002AF3D193F871509C6893F823
:102CE000703001F00301A9401A4000F54070114313
:102CF00044F82010002030BD140F010801004A00E4
:102D000008B5042200213320FFF7CEFF0222002164
:102D10001046FFF7C9FF012200210320FFF7C4FF7F
:102D2000022200210520FFF7BFFF032200211C2003
:102D3000FFF7BAFF002211460920FFF7B5FF002276
:102D400001213A20BDE80840FFF7AEBF10B5634C43
:102D5000634A0021204600F0EFFE624A012120462E
:102D600000F0EAFE604A0321204600F0E5FE5F4ADB
:102D70000421204604F5B06400F0DEFE5C4A012127
:102D8000204600F0D9FE5B4A0221204600F0D4FE26
:102D9000594A0321204600F0CFFE584A042120461C
:102DA00000F0CAFE564A0521204600F0C5FE554AED
:102DB0000621204600F0C0FE534A0721204600F0BD
:102DC000BBFE04F5C074514A5148072100F0B4FE1F
:102DD000504A0021204600F0AFFE4F4A0121204614
:102DE000A4F5D06400F0A8FE4C4A0121204600F072
:102DF000A3FE4B4A05212046803400F09DFE494A3F
:102E00000021204600F098FE474A0121204600F0AC
:102E100093FE464A0221204600F08EFE444A0321DA
:102E2000204600F089FE434A0421204600F084FE3B
:102E3000414A0521204600F07FFE404A06212046F7
:102E4000803400F079FE3E4A0021204600F074FEF6
:102E50003C4A0121204600F06FFE3B4A02212046F9
:102E600000F06AFE394A0321204600F065FE384A28
:102E70000421204600F060FE364A0521204600F07D
:102E80005BFE04F58074344A3448002100F054FE9F
:102E9000334A0021204600F04FFE324A01212046ED
:102EA000803400F049FE304A0021204600F044FE04
:102EB0002E4A0121204600F03FFE2D4A04212046E3
:102EC00000F03AFE2B4A0621204600F035FE20464F
:102ED000294A0721BDE8104000F02EBE0000324014
:102EE000088704103C8704102C830410D08504103C
:102EF000C482041064840410FC830410C88304108A
:102F000094830410608304103084041090820410B1
:102F10008006324070870410A4870410F8820410E1
:102F20005C82041000850410348504106885041048
:102F30009C850410CC84041098840410C081041073
:102F4000588104108C81041024810410F080041036
:102F5000BC800410888004105480041000023240A9
:102F6000A0860410D4860410F48104102882041072
:102F70006C86041038860410048604100A4B1B6803
:102F800093F83E30834281BF800000F1804000F51D
:102F90001810D0F8803383BF43F00043C0F880336B
:102FA00000200248704700BF140F010801004A00CA
:102FB0000B4B1B6893F83E3083420FD90F290DD875
:102FC000800000F1804000F51810D0F8803323F025
:102FD0000F031943C0F88013002070470148704761
:102FE000140F010801004A000D4B1B6893F83E3096
:102FF000834212D9032910D8800000F1804000F5E7
:1030000018100901D0F8803301F0300123F03003AB
:103010001943C0F88013002070470248704700BF72
:10302000140F010801004A00044B1B681968D3F80B
:1030300084208B5823F47F438B507047140F010872
:10304000044B1B681968D3F888208B5823F47F43FE
:103050008B507047140F0108064BD3F80C2542F033
:103060000042C3F80C25D3F80C2542F00102C3F846
:103070000C25704700002640FEE7000073B596213E
:10308000002001F02FFC01F0D3FB70B901F0C2FB6E
:10309000A44BD3F88021D2075EBFD3F80C2522F0D1
:1030A0000042C3F80C25FFF7D7FF012001F0DAFD3D
:1030B0009D4A536C23F47F4343F468535364536C29
:1030C000C3F307233A2B07D1536C23F0005323F4A7
:1030D000685343F4685353640021944D0846FFF746
:1030E00083FFFFF7ADFF2B681968D3F884208B5856
:1030F00023F07F4343F080738B50FFF795FF2B68DD
:1031000093F83D308BB1874CD4F8003623F0405310
:1031100043F00053C4F80036012001F06BFBD4F8F3
:10312000003623F00043C4F800360021012001F0EE
:10313000B5F97C4BD3F8804314F00F040AD1204634
:1031400001F0D6F940F21113984203D10121204633
:10315000FFF72EFF734B764ED3F8882522F04052AE
:1031600042F00052C3F88825D3F8802522F00042AF
:10317000C3F88025D3F88C25002122F00042C3F843
:103180008C25084601F08AF9002100240846FFF743
:103190000FFF2346224621460094664800F064FD56
:1031A000224600942346604C6248012100F05CFDF9
:1031B000226842F00802226023695B0709D41EB925
:1031C0000520FFF759FF06E0012001F013FB013E47
:1031D000F2E7002EF4D0534AD2F8003523F003036F
:1031E00043F00103C2F80035FFF72AFF2B68D3F83C
:1031F000842019688B5823F07F438B50FFF714FF0E
:103200000021012001F04AF901210020FFF7D0FE42
:103210000021084601F042F90021022001F03EF9A8
:103220000021032001F03AF90021042001F036F9D1
:10323000414801F06FF910B10420FFF71DFF3F482E
:1032400001F0BAF910B10420FFF716FF002108467B
:10325000FFF7AEFE00210846FFF7C6FE0021012061
:1032600001F01CF93649012001F006FA10B10320E3
:10327000FFF702FF42F21071012001F04BFA10B18A
:103280000320FFF7F9FE01210846FFF791FE002118
:103290000120FFF7A9FE0120FFF770FE00210220A8
:1032A000FFF786FE01210220FFF79EFE0220FFF7B6
:1032B00065FE01210320FFF77BFE00210320FFF7BD
:1032C00093FE0320FFF75AFE164BD3F8042522F095
:1032D0000042C3F80425D3F8042522F4407222F0FA
:1032E0000102C3F80425D3F8042522F47F02C3F8B1
:1032F0000425D3F8042542F00042C3F80425002039
:1033000001F00AFD084A136823F440731360FFF7C5
:10331000A3FE6421002001F0E5FA02B0BDE8704090
:10332000FFF706BB0000264000002740140F0108ED
:1033300040420F0000003240D8870410400D0300C7
:10334000EC87041008B500231A464FF080412E2068
:1033500001F06CFD00231A461B492F2001F066FD89
:1033600000231A46194940F6016001F05FFD002371
:103370001A46174940F6026001F058FD00231A462C
:10338000144940F6046001F051FD00231A46124929
:1033900040F6086001F04AFD00231A460F4940F24A
:1033A0002B1001F043FD00231A460D494FF496708F
:1033B00001F03CFD0B4B42F2080133225A5042F21D
:1033C00010015A5008BD00BF01000040010E00402E
:1033D000040E0040030E0040000E004003010040B8
:1033E000010100400000314000207047002070477C
:1033F00008B5084600F002FB003018BF012040422B
:1034000008BD00002DE9F74F1C46DFF868B0184BE7
:103410000D46924600272CB901F0F4F9384603B066
:10342000BDE8F08FC5F3080804EB0802B2F5007F91
:1034300005EA03098CBFC8F5007626464FF40072F2
:1034400049460C48019303F096FD324651460BEB7A
:10345000080003F090FD0749484600F009FB0028EA
:1034600018BF4FF0FF373544A41B019BD3E700BFC3
:1034700000FEFFFF100C010801F17041B1F5801F43
:1034800034BF4FF400704FF0FF307047202070477A
:103490004FF0805070474FF4801070470020704705
:1034A0008288C379F0B502F007028579052B28D808
:1034B000DFE803F0191F212325030E2318490068B4
:1034C000096891F87D709400C1590F26A64021EA41
:1034D000060103FA04F42143C151FDB90A2B14D0AB
:1034E0000B2B17D0F0BD75B1012D0CBF0E2300239F
:1034F000E4E70A23E2E70B23E0E70C23DEE70D23F2
:10350000DCE70023DAE70823D8E7012303FA02F215
:103510008260F0BD012303FA02F24260F0BD00BFF9
:10352000140F010837B504460023A1808371C371CD
:103530004B1C0D4619D0FFF74BF828B9FFF742F89E
:1035400010B9284600F09CF8094BA1881B680A0AAC
:1035500098690E2A98BF00EBC210002320600093E8
:10356000082201F0070100F07FFB03B030BD00BF6F
:10357000140F0108C171FFF793BF8171FFF790BF6E
:10358000052916D8DFE801F0050D0F1113030E20F1
:10359000704720B101280CBF0E2000207047082082
:1035A00070470A2070470B2070470C2070470D2091
:1035B0007047002070470000431C73B50A461DD0B9
:1035C000144B1B6884B29D69210A0E2998BF05EB34
:1035D000C115C2F30050C2F30341FFF7D1FF04F05D
:1035E0000704D2B20646009201230246214628462D
:1035F00000F03AFB0A2E03D00B2E06D002B070BDAD
:10360000012000FA04F4AC60F8E7012000FA04F4A9
:103610006C60F3E7140F0108F8B5431C02462CD088
:103620000020FFF7ADFF93B21A0A144D0E2A95BF82
:1036300029682A688969916998BF01EBC2112A68D3
:1036400092F87D6003F007039F008A590F25BD4063
:1036500000F00F0422EA0502BC4022430A288A51E6
:1036600002D00B2805D0F8BD012202FA03F38B60CB
:10367000F8BD012202FA03F34B60F8BD140F0108F4
:1036800080B270B5060A0D2E00F0070513D8FEF7BC
:10369000A5FF0A4B9A5D42FA05F414F0010403BF3A
:1036A0000120A84010434FF0FF3408BF9855FEF7A3
:1036B0009FFF204670BD0248FFF718F8100E010862
:1036C0000388041070B506460C460D4DFEF786FFC4
:1036D0000C2303FB06F0291801228B68A24013EA91
:1036E00002060BD113432A588B60631C93424B6034
:1036F00000D94E60FEF77CFF204670BDFF24F9E73D
:10370000B80201082DE9F84306461C4C4FF00C089E
:1037100008FB06F804EB0807FEF760FF79683046FF
:10372000FFF7D0FFFF280546234616D1D7F80490AF
:1037300054F8081009F101028A427A604FF00C0433
:1037400084BF00227A6004FB06340027616830469B
:10375000FFF7B8FFFF28054604D0FEF749FF2846CB
:10376000BDE8F883626823689A4288BF676063682F
:103770009945F2D001336360E8E700BFB802010861
:10378000072838B505460DD8FEF728FF074B5C5DC6
:103790002CB901225A55FEF72BFF204638BD4FF0B9
:1037A000FF34F8E74FF0FF34F7E700BF1E0E0108C3
:1037B000F0B51A4A002387B01946154699540133CB
:1037C0000E2BFBD10023164A194699540133082BBE
:1037D000FBD10023134A194699540133202BFBD106
:1037E000114B01AA03F110071646186859681446D0
:1037F00003C40833BB422246F7D11B882380002331
:10380000F21802339178D2786A54102BF8D1074B12
:1038100011229A6001225A6107B0F0BD100E010812
:103820001E0E0108260E0108F1870410B8020108D7
:103830000230800803D001300238FCD100BF00BF45
:103840007047EFF3108072B6704780F310887047AE
:10385000014B1860704700BF140F0108034B1B6831
:103860001A68D3F88430D058000E7047140F01083E
:10387000044B1B681A68D3F88430D058C0F3072073
:10388000704700BF140F0108034B1B68B3F8B0204A
:103890001B6A00FB02307047140F01081D4B984251
:1038A00036D00FD840282ED005D800282FD0102889
:1038B00027D019487047802827D0B0F5807FF8D1ED
:1038C00018467047154B984214D008D8B0F1204FD5
:1038D0001DD0134B9842ECD14FF4A0007047114B10
:1038E00098420AD00133984209D0023B9842E0D175
:1038F0000D4870474FF4A40070470C4870470C48BF
:1039000070470C4870470C4870470C4870470020BF
:10391000704700BF06005200FF005200010000F097
:10392000090000A0040000F0010052000200520053
:103930000300520001005000020050000500520038
:1039400008B50120FFF7A0FF094B1A68D2F8B43080
:10395000C358002B0ADB074B1868FFF79FFF53681B
:1039600001229A609A68002AFCD108BD024808BD6D
:10397000140F0108480E010802005000174B13B540
:10398000186028B102230370FF2343700023438093
:10399000134C236893F85010F1B11B8FADF8003031
:1039A000104900236846019300F0F8FEBDF900308D
:1039B000002B08DB5909012203F01F0302FA03F36D
:1039C000094A42F82130236893F8513023B102228A
:1039D0000649012000F038FA02B010BD580E010867
:1039E000140F01083F04010800E100E00D04010884
:1039F0000148FFF7C3BF00BF5C0E010838B5C0F334
:103A00000804054634BBFEF793FF134B134A1A60B4
:103A10005D609C60DC60124B1B6893F8541099B198
:103A2000FFF71CFF0146FFF723FF013001FB0000F9
:103A30000C4B0D49414318684FF47A73B0FBF3F017
:103A4000B1FBF0F101F698014FF48070BDE8384009
:103A500003F026BD054838BD480E01080001001CD2
:103A6000140F0108A002010860F590000600520042
:103A7000C0F3080370B506460D4643BB39B3FEF7E5
:103A800057FF144B144A1A604FF480745C609E60B8
:103A9000DD60124B1B6893F8531099B1FFF7DEFEFF
:103AA0000146FFF7E5FE013001FB00000C4B0D491C
:103AB000414318684FF47A73B0FBF3F0B1FBF0F1B7
:103AC00001F561712046BDE8704003F0E9BC06488D
:103AD00070BD00BF480E010800010006140F010868
:103AE000A0020108808D5B0006005200114B70B5EA
:103AF0001C68A3696669C01AC00900011F23032955
:103B000000EB060402EA030209D88459CD00AB4059
:103B100024EA030302FA05F10B43835170BD043913
:103B20006068C9008B4020EA030302FA01F10B43ED
:103B3000636070BD140F01082DE9F8430F46164667
:103B40000446002800F08980002A00F08680126870
:103B500001238B40002A7ED14360DFF80881D8F82A
:103B6000003093F87D10BD000B590F22AA4023EAC4
:103B70000203726802F00F02AA4013430B51327A1B
:103B800039462046FFF7B2FFD8F800E09EF87CC027
:103B90007A005CF80410032303FA02F021EA000122
:103BA000F0681840904001434CF804104FF0010CAD
:103BB0003169A0690CFA07FC6FEA0C0801F00101F9
:103BC00000EA0800B9400143A1619EF87E107069C7
:103BD00051F8049000F0010009EA0808B84040EAF2
:103BE000080008519EF87F80B169F06958F8049088
:103BF0001032184001F0010193409040B94043EA6F
:103C00000C0C014329EA0C0C41EA0C0148F80410A1
:103C1000736AB06A9EF880205B00800000F00400A8
:103C200003F002030343306A115900F0010003431B
:103C3000F06AC00000F018000343306B4001C0B2CE
:103C4000034305F47E75AB4021F0FF010B43135194
:103C50000020BDE8F88383607FE70148BDE8F88372
:103C600001005A00140F0108F0B505689DF81470A2
:103C70004FF0010E0EFA01FE03F0010325EA0E05D6
:103C80008B401D430B4B05601B6893F87DE08C0057
:103C900050F80E300F25A54002F00F0202FA04F48E
:103CA00023EA0503234340F80E303A46BDE8F040CE
:103CB000FFF71CBF140F0108054B1B68D3F8B43085
:103CC000C358002BBDBF89B2416000200148704736
:103CD000140F010801008A000368002BBBBF89B2E2
:103CE000C26002488160B8BF0020704701008A00AE
:103CF000054B1B68D3F8B430C358002BBDBFC36855
:103D00000B60002001487047140F010801008A0071
:103D1000024B1A6802B91860704700BF600E0108B4
:103D2000F0B52C246043164C059F25685FFA83FC90
:103D300045F800C02C1813480668306AB6F8B06021
:103D4000C3F307254FEA134E0CFB060626617346A4
:103D500005F18006656000EB46161B0400EB45107C
:103D600041F2080543EA0E03C4F808E066614351D6
:103D70000023E2612162A3610FB13B88A381F0BD02
:103D8000600E0108140F0108F0B5174B826919681D
:103D90004369C98EC668076985B002AD00950B44BA
:103DA0000446C16AADF808300392436A826A006A29
:103DB000FFF7B6FF00223B46114600923046FFF760
:103DC000AFFF216B284600F0E9FCBDF90830002B5D
:103DD00008DB5909012203F01F0302FA03F3034A27
:103DE00042F8213005B0F0BD140F010800E100E0F9
:103DF000F0B5124C26682C2707FB0064256945B1F5
:103E000007FB0161886910B92E68002E03DB0C489E
:103E1000F0BD0C48F0BD4E68D4F804E0012404FA6B
:103E200006F7168846EA07461660EA608C6104FACF
:103E30000EF4A4B24B62AC60F0BD00BF600E01088E
:103E400007028A0004028A00074B10B51C682C2365
:103E500003FB0040C369934283BF036A002043F819
:103E60002210024810BD00BF600E01080A028A003D
:103E700073B54369DD6800262A0C044601961FD0FD
:103E80002A0C12041A601B68174B00691B68D3F8D0
:103E9000B430C358B34213DA01A9FFF729FF58B968
:103EA0000198E26903681E0CDBB2934204D2226AD5
:103EB00052F8233003B1984731462069FFF7FCFEE2
:103EC000ADB245B163691D601B68636A002533B1FB
:103ED00098476562A56163691B6802B070BDA36AFB
:103EE000002BF7D09847F5E7140F0108034B1B6828
:103EF0002C2202FB0030FFF7BBBF00BF600E0108A1
:103F000070B5154B0D46196891F83130834221D9AF
:103F100005B32A6812F01F061CD1B1F8B030096A47
:103F20000E4C00FB0310D20820603146686803F095
:103F30002DF831462068FFF7BFFE31462A4620683B
:103F4000FFF7CAFE014618B92068FFF7B5FE10B1A9
:103F5000034870BD034870BD140F01086C0E0108C2
:103F600001018A0003018A0010B404466AB9A9B9A4
:103F70000B4B1B68B3F8B0001B6A04FB0030094B05
:103F8000186008465DF8044B704739B1064B5DF880
:103F9000044B83E806001946FFF7B2BF0348F1E778
:103FA000140F01086C0E0108640E010803018A0059
:103FB0002DE9F0411A4E3268D2F80C80D8F8002072
:103FC000824204460D461AD971B9FFF73AFC0746FA
:103FD00030680368002B14DB124C15B93846FFF724
:103FE00034FC2046BDE8F0810027F1E723EA020314
:103FF00041F8243000240021FFF75EFEEDE70A4C73
:10400000EFE704F01F02D8F804106409012303FA53
:1040100002F251F824301A42E8D1044CEBE700BF19
:104020006C0E01080301880004018A000201880067
:104030000B4B1B68DB681A6882420ED941095A682B
:1040400000F01F00012303FA00F052F8213018425B
:10405000044B054808BF184670470448704700BF26
:104060006C0E0108000188000101880004018A002B
:10407000044B1B6810301B698002185800F00F00B9
:10408000704700BF140F0108036813F4006FD0F8E5
:10409000083214BF80224022C3F3080393421ABFA0
:1040A000C0F8401201200020704700002DE9F04FB9
:1040B000002800F0AA80002900F0A78091F801A054
:1040C00091F80290BAF1050F06D8DFE80AF00599D9
:1040D000030505994FF000098D68CE68082D00F2A0
:1040E0009280082E8CBF00244FF400640B7F002BBD
:1040F0004B6803F1FF3303F00F0343F0807314BFE9
:104100004FF48077002723433B430360CB7C0C7D37
:10411000BAF1050F0CBF4FF002084FF00008002B5A
:104120004B7C14BF4FF0100C4FF0000C002B0B78A1
:1041300014BF4FF0200E4FF0000E012B8B6984F05E
:10414000010B4FEA032404F470644FEA0A6303F09E
:10415000407344EA0B0444EA03044FEA890303F082
:104160000C0343EA040343EA080343EA0C030CBFCD
:104170004FF00047002743EA0E033B4303620B7CEA
:104180008C7C002B05F1FF3514BF4FF480730023A6
:1041900005F00F05002C06F1FF3614BF4FF4007434
:1041A00000241D4306F00F0625431E4391F82040CE
:1041B00091F82830C0F80053C0F80443C0F80062FA
:1041C000C0F804324B6A03F06D03C0F8C83FCB6AF5
:1041D00003F07303C0F8883F0B6B03F4007103F422
:1041E0000063C0F8001FC0F8403F0023C0F8C83E7D
:1041F00072B11360D36193611846D360BDE8F08F4C
:104200004FF0020968E7002470E70348BDE8F08F2B
:104210001046BDE8F08F00BF0140AA000E4B0360BE
:104220004FF04073036240F207120023C0F80023EE
:10423000C0F80433C0F80022C0F80432C0F8C83E09
:10424000C0F8883EC0F8C83FC0F8883FC0F8083FB3
:10425000C0F8483F704700BF0F000003036823F019
:104260000043036019B100230B60CB608B61036ACC
:10427000002BA2BF0023C0F8C83FC0F8883F70479A
:104280002DE9F043002800F0D180002900F0CE8015
:104290000F78022F01D18B7F0BB14B68013B0C7F54
:1042A0008D68002C03F00F030CBF00264FF48036FE
:1042B00043F00073082D8CBF00244FF40064334397
:1042C000234303603B0603F0407303644B7F4C7B46
:1042D0008E7B002B8B7C0CBF4FF000094FF0400908
:1042E000002B0B7C0CBF4FF000084FF48068002BB4
:1042F0004B7C0CBF4FF0000C4FF4807C002BCB6A42
:1043000003F1FF3304F1FF344FEA034304F00704E1
:104310004FEA061603F4702306F0300643EA04035E
:1043200043EA060343EA090343EA08030CBF4FF0DC
:10433000000E4FF4007E43EA0C0343EA0E0383644D
:104340000B7B002BCB7B0CBF4FF0000E4FF4807E1D
:10435000002B68D1022F14BF00234FF40073013DDE
:1043600005F00F0545EA0E052B43C0F800338B69B5
:1043700091F814E01B0403F47F0343EA0E03C0F832
:104380001033CB7F23B1012F0CBF4FF48073002378
:104390003443012F44EA030414BF00234FF4803355
:1043A0001D4391F830304464C0F80052C0F8043323
:1043B00091F82030002B91F821300CBF00264FF0EF
:1043C0000076012B91F8283014BF00254FF080753E
:1043D000012B91F8243043EA060314BF00244FF464
:1043E00080342B432343036591F83830C0F80432FE
:1043F0004B6B23F4926323F002031B051B0DC0F8E3
:10440000C83FCB6B23F08C035B055B0DC0F8883F86
:10441000002072B1506090601060D0601062106334
:10442000D062BDE8F0834FF4007398E70248BDE81E
:10443000F0831046BDE8F0830160AA00104B0360D2
:104440004FF04073036440F2071200238364C0F806
:104450000023C0F80433C0F810334364C0F80022CE
:10446000C0F804320365C0F8C83EC0F8883EC0F802
:10447000C83FC0F8883FC0F8083FC0F8483F7047C1
:104480000F000003036823F00043036021B1002301
:104490004B600B600B62CB6270470000114B1B68D6
:1044A00093F83C3083421AD9042911D9A1F58073BD
:1044B000132B14D8800000F1804000F5181001F093
:1044C0001F010423C0F80013C0F8403300207047D8
:1044D000D030054B01F0070143F82010F6E7034800
:1044E000704700BF140F01080000264001004A0079
:1044F000800000F1804303F51813D3F8400300F067
:104500000700042802BFD3F8000300F01F0040F4A6
:1045100080707047244AD2F88035002B30B541DBDB
:10452000C179036884888589002914BF4FF08071A0
:104530000021C3F311030B43C2F880351B490389E3
:10454000C4F30C0401EA03432343C2F88435C37A5D
:10455000174C1B0104EA0524DBB22343847A04F0E0
:104560000F042343847B240704F040542343C2F800
:1045700088358379D2F88C45008A1B0224F4E064E4
:1045800003F4E0632343C2F88C35D2F88C3523F072
:10459000FF7301EA004123F480331943C2F88C15FC
:1045A000002030BD034830BD000026400000FF0160
:1045B00000FF1F0003004A00F8B52D4ED6F88C25E9
:1045C00042F000420446C6F88C2505463746D6F828
:1045D00090355A0700D415BBD7F8883523F04053DF
:1045E00043F00053C7F8883504B135B1204AD2F8FA
:1045F000803543F00043C2F880351D4F3E46D7F862
:104600009035DB0715D47DB9BCB92546D6F8883579
:1046100043F04053C6F888352CBB2046F8BD012036
:1046200000F0E8F8013DD2E7012000F0E3F8013D99
:10463000E5E7002CEAD0002DE8D1D6F888350D4802
:1046400023F0405343F00053C6F88835D6F8803540
:1046500023F00043C6F88035D6F88C3523F00043AC
:10466000C6F88C35F8BD002D024818BF0020F8BDF3
:104670000000264002004A0070B5234B1B6893F8E7
:104680003D30421E9A4239D2800000F1804000F550
:104690001810D0F8FC35002B2EDB8E78B31E0E2BB5
:1046A0002CD84B785A1E112A28D8CD780C783DBBCF
:1046B000152C23D97022A24220D30A79022A0FD0C6
:1046C0001B02360403F4F85306F4F816334304F0DF
:1046D0007F04ED06234305F000652B43C0F8FC354D
:1046E000D0F8FC35120723F0405302F040521A4331
:1046F000C0F8FC25002070BD044870BD044870BDA2
:10470000122CFBD93822D6E7140F010803004A0007
:1047100001004A0038B5134B1B6893F83D30421E28
:104720009A420D461BD2800000F1804404F5181413
:10473000D4F8FC3543F00043C4F8FC35D4F83C36DB
:10474000DB0707D40DB9084838BD012000F052F846
:10475000013DF3E7002D044818BF002038BD034891
:1047600038BD00BF140F010802004A0001004A00D2
:10477000074B9A68074B9A4218BF074A00F110038B
:1047800006BF52F8230042F8231052F82300704766
:1047900000ED00E0000001080000041010B5F0B1C9
:1047A000B0F900204368002AA8BF02F160404FEA38
:1047B0004313ADBF00F561400A4802F00F04DBB2BD
:1047C000B6BFDBB280F800330355074B9868074B40
:1047D000984202D11046FFF7CBFF002010BD0448DD
:1047E00010BD00BF14ED00E000ED00E00000010886
:1047F00001005600024B1B785843FFF719B800BF61
:10480000B4020108024B1B685B6801229A60704782
:10481000140F0108044B05484FF000429A649B6C4A
:10482000002BA8BF0020704700002740030046006F
:10483000044BD3F800085B6813F0FF0F18BF40F477
:104840008020704700002640FEE7000008B5234B9B
:1048500002681A6042685A6082689A60C268DA60C8
:1048600002691A6142695A6182699A61C269DA61B0
:104870001B4A916A1962D16A5962516A9962516BF5
:10488000D962926B1A63F1EE102A12F0900F21D0C8
:10489000026A5A63426A9A63826ADA63C26A1A6473
:1048A000026B5A64426B9A64826BDA64C26B1A655B
:1048B000026C5A65426C9A65826CDA65C26C1A6643
:1048C000026D5A66426D9A66826DDA66C26D1A672B
:1048D000026E5A67FFF7B8FF08BD00BF4008010825
:1048E00000ED00E0284B1B68002814BF1922642249
:1048F00070B58A421E68B3F8A82094592CBF0025D1
:10490000012524F003042C4394511E68945924F487
:1049100040749451B3F8AA401E68A25922F00302D1
:104920002A43A2511D68625922F44072625160B15B
:10493000102921D921298CBF022001205B68196828
:1049400021F00F010843186070BD93F85520914283
:10495000F4D993F85620914210D993F857209142F8
:104960000ED993F8582091420CD993F859008142FE
:1049700094BF04200520E1E70020DFE70120DDE708
:104980000220DBE70320D9E7140F01084FF0B053F2
:104990005A7812B15878C0B27047212070474FF052
:1049A000B05293899BB213B1908980B270474FF493
:1049B0008070704710B5FFF7F2FF134B1A68B0F51F
:1049C000807FD2F8981010680FD1435823F00F035E
:1049D00043F0020343501168D2F89C208B5823F017
:1049E0000F0343F002038B5010BD084B1B68445863
:1049F00043F44073234343501168D2F89C30044A77
:104A00001268CA5010BD00BF140F010848180016E4
:104A10004418001638B5FFF7C2FF144BB0F5807F7D
:104A20001A6812D1D2F898101068435823F00F0377
:104A300043F0030343501168D2F89C208B5823F0B5
:104A40000F0343F003038B5038BD0949D2F8980097
:104A500014680B68255843F440732B4323501068A7
:104A6000D2F89C300A68C25038BD00BF140F01084C
:104A70002018001608B5FFF792FF0B4B1B68B0F526
:104A8000807F1968D3F8982017BF084B8B581B6894
:104A900088580BBF23F4E04343F4407343F4C0430E
:104AA00003438B5008BD00BF140F010818180016EF
:104AB00038B5FFF774FFB0F5807F0F4B0AD11B6844
:104AC0001968D3F898208B5823F4E04343F48043CB
:104AD0008B5038BD1A680949D2F8980014680B68E1
:104AE000255843F440732B4323501068D2F89C3070
:104AF0000A68C25038BD00BF140F01084C180016D8
:104B000008B50E20FFF7B4FA0146FFF73FFF222851
:104B10009ABFB1FA81F04009012008BD30B5D8B183
:104B2000C368BBB10368ABB104790C4A52F8245096
:104B300000212B463BB95DB942F8240000230161F6
:104B40004361012030BD834204D019465B69F1E71F
:104B50004861F3E7002030BD30BD00BF900E010872
:104B600030B5D8B104790E4951F824502B460BB911
:104B7000184630BD83425A6907D01346F7E71969D2
:104B80004A615B6943B1196106E0AB42F7D141F874
:104B900024200AB100231361012030BD30BD00BFC5
:104BA000900E010870B50446FFF7F0FE85B2FFF7DE
:104BB000F6FE06460E20FFF75BFA90B9B6F5807F49
:104BC00012D1222D10D8214B1B684FF218025968C0
:104BD0008B58240623F0807304F080741C438C509F
:104BE00070BDB6F5807F27D0184B1B68B3F8B05066
:104BF0001B6AB6F5807F1D440BD1154B154A002C5E
:104C000008BF1A4601212846FFF766F820B112486E
:104C100070BD124B124AF2E70C4B1B68D3F8B4304C
:104C20002B441A68002AFCDBEB6803F07F43B3F1E6
:104C3000204FECD1002070BD222DE8D9034B1B681A
:104C4000B3F8B0501B6A1D44D7E700BF140F01082A
:104C50000100003001010030040042000100000C9E
:104C60000300000CF8B50646FFF799FEB0F5807F0B
:104C70001CD0FEF7E6FD254A07464FF0B053E6B1DB
:104C80002349086847F6307150504FF61C7193F86D
:104C90004147535823F01F0343F00B0353500320A5
:104CA000E4B2FFF7A7FDFFF703FF13E0FFF728FFCC
:104CB0000028DED1174D2846F8BD47F63071012097
:104CC000565093F84047FFF76DFFE4B20546C8B968
:104CD000FFF770FE0D494FF61C7204F01F048B584D
:104CE00023F01F031C438C504EB10720FFF782FDB9
:104CF000FFF790FE0020FFF755FF054602E0FFF7A3
:104D0000B9FE35463846FEF7A0FDD4E70000264040
:104D1000101800160300420004280A4B04D11A6838
:104D200042F004021A607047074A126800061168D0
:104D3000D2F8A02000F0407088501A6822F00402D7
:104D4000F0E700BF10E000E0140F010870B5002884
:104D500067D0002A65D053689468D56816691B022D
:104D6000A40404F480249BB22343147F23432C0423
:104D700004F440342343340604F0E06423430C1D60
:104D8000A401890103511468431815B9C3F80851E7
:104D900003E0012D43D1C3F8084136B943185569E2
:104DA000C3F80C519569C3F810514518C5F8144162
:104DB000946C631C15D0136B966B1B02360406F4BF
:104DC000702603F470633343966A06F00F0633438C
:104DD000166C3603B6B224013343E4B22343C5F85C
:104DE0002031D36A546B1B01240204F4407403F095
:104DF00030032343546A04F003042343D46BA40117
:104E0000E4B22343546CA400084404F00C0423438C
:104E1000C0F82431136AC0F83831002070BD012574
:104E2000B4E7014870BD00BF0100B6002DE9F843AA
:104E30001C4680EA010313F4706780460D469146D4
:104E400030D1FEF7FEFC194B1968B1F86EE08A68A4
:104E50004FEA9E06013E06EA0503B1F86C6016446F
:104E600006EB8306B1F86A3003EA0501090A0EFB76
:104E700001F1630275585FFA88F825F47F7503F431
:104E80000073B9F1000F25F0030543EA080318BFCA
:104E90004FF480772B433B437350FEF7D6FC002042
:104EA000BDE8F8830248BDE8F88300BF140F01088D
:104EB0000100CE0070B5144D06460FCD90B06C4683
:104EC0000FC40FCD0FC40FCD0FC495E80F0084E8B9
:104ED0000F00737D0293F37D8DF80E30B37D8DF856
:104EE0000D30B6F90E303068013318BF01230022AF
:104EF00069468DF82030FFF7C3F93268136843F034
:104F00000043136010B070BDE4880410F8B5037D51
:104F1000FF2B04460D461DD10220FEF7F3FB0328AC
:104F20008B4E5FD83168A27C91F83F30934201D814
:104F30008848F8BD8F6891F87130022691F870109A
:104F400006FA03F3014002F540720B4347F82230A2
:104F5000E6742075E37C207D032B03D8002B54D10D
:104F600007285CD99A1E012A7B4E4FF00C0200F2F2
:104F700086806A433568510801EB4511022BB1FB6D
:104F8000F2F24FEA521505F1FF3502F01F0157D139
:104F9000032800F2A880B5F5803F80F0A4806C4A19
:104FA000D2F800C0BCF87820DCF8086000B202EB50
:104FB000060E6A4E5EF8207006EA052527F47F0685
:104FC00026F47F4635434EF82050DCF808502A443A
:104FD00052F8205025F0F80545EAC10142F82010AA
:104FE000002046E00120FEF78DFB0F280AD831682B
:104FF000A27C91F83F3093429AD98F6891F8713032
:1050000001269BE75648FDF771FB012B01D10F28C4
:10501000A7E7022B01D10328A3E70028A2D14C4A1D
:10502000116891F871708E6891F8701003F00302A6
:105030000140BA4041F080410A43C6F8002491E79C
:10504000002850D1B5F1807F4DD2414A1768B7F89A
:105050007A60D7F808E056F80E20D2B242EA052569
:1050600046F80E50BD68725922F0F80242EAC101BA
:105070007151217D002B38D107294BD9F8BD02FB96
:1050800005F1326802EB5102B2FBF1F293B9072845
:1050900029D8FF2A27D82E490D68B5F87410AD68B5
:1050A000294401EB8000016821F47F4141EA02229A
:1050B000026095E7012B22D10F2814D8B2F5803F6A
:1050C00011D223490D68B5F87610AD68294401EB7B
:1050D00080002249056801EA022225F47F0121F4BB
:1050E0007F410A43E4E71B48C3E7012B02D10F29A4
:1050F00010D9F8BD022B07D103290BD9F8BD032B1A
:105100003FF616AF217D1348032B7FF412AF002921
:105110007FF40FAF0E4A156895F87070AE6895F879
:1051200071E095F8732095F87250032404FA02F2A6
:1051300007FA05F52A433940234042F000420A436A
:1051400003FA0EF31343C6F80034D6F80034F8BD62
:10515000140F010801004A00A402010800FFFF002B
:10516000AD8904102DE9F84340F2015399420446F9
:105170000F46904616D0A2F5A0614E424E4140F235
:1051800001339F4210D0A8F54072554255416EB18F
:10519000564B1B6853B1564918222046BDE8F843C8
:1051A00001F0E9BE0126EAE70125F0E72DB1514BF8
:1051B0001B6813B118225049EFE750493846FCF7F5
:1051C00067FF4F4981464046FCF762FF014648466B
:1051D000FCF73CFF431C00F08480206000F13F405E
:1051E00000F51F00000C454960603846FCF770FF71
:1051F000FF2300122375A0746068FEF7C1FA00282F
:1052000014BF0123002323724FF6FF732382E3812F
:105210004FF0080363754FF000014FF00203A781C0
:10522000A4F80A80A375E1751BD02068FFF72AF95E
:105230002068FFF703F9334B1868A37C826890F865
:10524000701090F8710003F5407352F82370032337
:10525000834041EA03023A4013401140C3402175A4
:10526000E3744FF4E1312046FFF750FEB4F90C002F
:10527000FEF706FA20B1237A43B92348FDF736FA40
:10528000B4F90A00FEF7FCF90028F4D1B4F90C7067
:105290001A493846FCF71CFF01463846FEF78CF9E0
:1052A000B4F90A7016493846FCF712FF0146384631
:1052B000FEF782F92046FFF7FDFD4EB11822214688
:1052C0000B4801F058FE094B01221A60BDE8F88333
:1052D0004DB118222146084801F04DFE0122054B30
:1052E000F3E70A48CAE7BDE8F88300BFAC0E01083F
:1052F000180F0108A80E0108300F0108607F041084
:10530000A07E0410140F0108248904104B89041096
:1053100038B504460D4600680021FFF7B3F829466A
:105320002046FFF7F3FD2268136843F00043136043
:1053300038BD03681A68D3F8083212F4006F14BF3E
:1053400080204020C3F30803181A18BF01207047BB
:1053500010B504462046FFF7ECFF0028FAD023687A
:10536000C3F8401210BD0000F8B54369FF2B044696
:105370000D4622D101202076FEF7C4F9FF28606196
:1053800040F0A9805D48B7E0012B01D10F28B0E0C3
:10539000022B01D10328ACE0002840F0AC8091F84A
:1053A00071708E6891F8701003F00303BB400840E1
:1053B00002F54072034346F82230514B1B6805EB5F
:1053C00045021A44B2FBF5F18908B3FBF1F39B08DF
:1053D000E361237E6269032B02D833B9072A26D9F9
:1053E000FF22032B626148D843E0012B19D10F2A19
:1053F0001DD90F2AF4D8B1F5803FF1D24148006899
:10540000B0F87660806806443F4856F8225000EABB
:10541000012125F47F0020F47F40014346F822104B
:1054200027E0022B01D1032AD9E7002AD8D1354839
:10543000066896F8700096F871E0B568104003F0C1
:10544000030740F0804007FA0EF73843C5F8000420
:10545000ABB9072AC4D8FF29C2D8B068B6F87450CF
:10546000054455F8220020F47F4040EA012145F828
:105470002210616933B9072910D90020F8BD012B2A
:10548000B7D0ADE7012B01D10F29F5E7022B01D1F0
:105490000329F1E7032BF0D10029EED1194A146852
:1054A00094F87070A56894F8716094F8732094F87B
:1054B0007240032000FA02F207FA04F4224342F099
:1054C0000042394003400A43B3401343C5F8003457
:1054D000D5F80034D1E70B4BA27C196891F83F3026
:1054E000934208D9237E032B05D8002B7FF44CAFC1
:1054F00007287FF654AF0548FDF7F8F8908A0410A6
:10550000A4020108140F010800FFFF006E8A0410B6
:1055100038B50446B0F90E00451C11D0FEF7B0F8BE
:1055200020B1237A13B93348FDF7E0F8B4F90E50EF
:1055300031492846FCF7CCFD01462846FEF73CF8E9
:10554000B4F90C00411C10D0FEF79AF818B1237A78
:105550000BB92A48E8E7B4F90C5029492846FCF76A
:10556000B7FD01462846FEF727F8B4F90A00421CA9
:1055700010D0FEF785F818B1237A0BB92148D3E78C
:10558000B4F90A5020492846FCF7A2FD01462846F6
:10559000FEF712F8B4F91000431C10D0FEF770F8B3
:1055A00018B1237A0BB91948BEE7B4F9105018495D
:1055B0002846FCF78DFD01462846FDF7FDFF94F8CF
:1055C0002050ADB92946B4F90E00FEF725F829465A
:1055D000B4F90C00FEF720F8B4F90A000521FEF733
:1055E0001BF82946B4F91000BDE83840FEF714B89E
:1055F00038BD00BFB48A0410507D0410D78A04104F
:10560000907C0410FA8A0410D07B04101D8B0410C7
:10561000F87D041070B5124D06460FCD8EB001AC6A
:105620000FC40FCD0FC40FCD0FC42B68236096F8A5
:1056300020308DF8043096F821308DF8063096F839
:105640002230039306F1240201A930680493FEF787
:105650002DFD3268136843F0004313600EB070BD37
:10566000D48904102DE9F8430446481C0E4691469F
:105670009846BDF9207000F091804B493046FCF708
:1056800007FD01464FF0FF30FCF7E0FC46490546B8
:105690003046FCF71DFDC0F30723B9F1FF3F0ED0E4
:1056A00042494846FCF7F4FC01462846FCF7CEFC8C
:1056B0003E4905464846FCF70BFDC0F30723B8F109
:1056C000FF3F0ED03A494046FCF7E2FC014628462F
:1056D000FCF7BCFC364905464046FCF7F9FCC0F334
:1056E0000723791C0ED033493846FCF7D1FC01461C
:1056F0002846FCF7ABFC2F4905463846FCF7E8FC8A
:10570000C0F307236A1C4CD0256005F13F4505F521
:105710001F05280CA374FF2363616060FEF730F857
:10572000002814BF0123002323724FF0010384F8E3
:1057300020304FF00803A681A4F80A90A4F80E8048
:10574000278284F822301DD004F124012068FEF75E
:1057500085FD2068FEF762FD174B1868A37C826800
:1057600090F8701090F8710003F5407352F82350D0
:105770000323834041EA03022A4013401140C340FF
:10578000616123760D492046FFF7EEFD2046FFF7C5
:10579000BFFE2046BDE8F843FFF73CBF00230D469F
:1057A0007BE70748FCF7A2FF907C0410D07B041035
:1057B000507D0410F87D0410140F0108A08601002C
:1057C000088A0410F8B504460F4600F12401006869
:1057D000B3FA83F51646FEF741FD94F8203084F8BD
:1057E00022706D0906F00306AB4284F8216004D0F4
:1057F00084F820502046FFF78BFE2046BDE8F84095
:10580000FFF708BF38B504460D4600F124010068D3
:10581000FEF724FD29462046FFF7A6FD22681368FF
:1058200043F00043136038BD0368596AD3F8082277
:10583000D3F80832C90708D4C3F3C033C2F308024F
:10584000D34214BF0120002070470120704710B5DB
:1058500004460068FEF718FC2046FFF7E5FF002825
:10586000FAD12368D3F8400310BD2DE9F74F1E4647
:1058700003680F46D3F8041341F48031C3F80413CE
:10588000D3F8041321F48031C3F80413D3F804339C
:105890000C9B93465B45B8BF5B4604469DF834209D
:1058A0009A46BBF1000F2DD097F8009001374FF0CA
:1058B00000084546D04527DB2046FFF7B5FF0C9B87
:1058C0009D420ADA2268D2F80833C3F3080323B1F1
:1058D000D2F840333370013501360028ECD123680B
:1058E000D3F8042342F48032C3F80423D3F804230A
:1058F00022F48032C3F80423D3F80433504603B0B3
:10590000BDE8F08F9146D2E7494620680192FEF744
:10591000BBFB019A38B108F10108C345CABF97F82B
:105920000090914601370C9B9D42C3DA2068D0F865
:105930000813C1F308010029BCD0D0F8401331701E
:1059400001350136B6E70000082902BF034B0222E9
:105950009A604FF0000008BF9A617047000038401D
:10596000044B4FF00062C3F88820BFF34F8FBFF3A2
:105970006F8F704700E100E008B5FFF7F1FF054BBE
:10598000054802225A60FFF7EBF8044B00221A6028
:1059900008BD00BF00003840E8020108B00E010851
:1059A000034B0222C3F87021D3F87031704700BF57
:1059B0000000384038B5FFF7D3FFFFF7F1FF284B61
:1059C0001A68002A4AD101221A60264B26481A6812
:1059D00092F83F309168142B82BF92F8703003F038
:1059E0000703C1F8503C214B1B68B3FBF0F3013BAC
:1059F000FF2B08D81C31B2F87440085920F47F40BE
:105A000040EA03230B51906892F8701092F87340AB
:105A100092F87220032301FA02F2A340134301F02B
:105A2000070143F000430B43114CC0F80034D0F899
:105A30000034104A012120460225FFF787F9A560AE
:105A40000D48FFF76BF810B90C48FCF74FFEA56145
:105A50000B490C48BDE83840FEF7A0BE38BD00BF7A
:105A6000B00E0108140F010840420F00A402010803
:105A700000003840408B0410E8020108948B0410A9
:105A8000E15A0410B88B041008B5044B1B680BB91D
:105A9000FFF790FF024BD3F8480108BDB00E010894
:105AA00000003840F8B50B4A0B4C1268D4F8487126
:105AB0006FF001060546F61B0AB9FFF77BFF2E447F
:105AC0000536064B88BFBD1C4FF00062C4F84C5130
:105AD0009A60F8BDB00E01080000384000E100E017
:105AE00008B5FFF75DFFFFF73BFFBDE80840FCF797
:105AF000CDBC0000034B4FF000629A60C3F8082150
:105B0000704700BF00E100E0004870478C8B041034
:105B100010B50A4C01444FF0FF33884201D1D843FD
:105B200010BD10F8012B5340082213F0010F4FEA6B
:105B3000530318BF6340013AF7D1EEE72083B8ED75
:105B400048B14378027843EA02228378C07843EA76
:105B5000022340EA0320704730B5002837D004788C
:105B600000232202002544781D4314432B0243EAFC
:105B700014632202002584781D4314432B0243EA58
:105B8000146322020025C4781D4314432B0243EA08
:105B900014632202002504791D4314432B0243EAB7
:105BA00014632202002544791D4314432B0243EA67
:105BB0001463220200258479C0791D4314432B020B
:105BC00043EA1463220200211043194330BD002030
:105BD000002130BD30B10B0AC17083700B0C090E6F
:105BE00043700170704768B1110AC2718171110C64
:105BF000120E02711A0AC37082701A0C1B0E4171C8
:105C000042700370704770B54B6845689D420FD174
:105C100000231A46AB4203D150421043C00F70BD5F
:105C200084688E68E45CF65C744022430133F1E7DB
:105C3000012070BD73B5054606200E461446FBF7DD
:105C400087FC10B9084802B070BDA368019373685F
:105C500000936A68B368A968FBF76EFD40B200283C
:105C6000F0D120236360EEE70100435530B50168B1
:105C70001F2985B0044606D80E4D2268A068002171
:105C800001F084F913E0806800F0F4FE0028F3D1FD
:105C9000094A07CA01AB83E807001022626019466F
:105CA00022462046FFF7C6FF05460028E5D12846D4
:105CB00005B030BD01004355C08B041070B50C46D3
:105CC000054608B9022070BD0029FBD06C21FFF702
:105CD0001FFF064605F16C00FFF732FF8642F1D147
