:020000023000CC
:1000000000400420210203009D020300A10203001E
:100010009902030099020300990203000000000006
:10002000000000000000000000000000A502030026
:100030009902030000000000A9020300AD020300C2
:10004000B1020300B5020300B9020300BD020300C0
:10005000C1020300C5020300C9020300CD02030070
:10006000D1020300D5020300D9020300DD02030020
:10007000C9480300E5020300E9020300ED020300A2
:10008000F1020300F5020300F9020300FD02030080
:100090000103030005030300090303000D0303002C
:1000A0001103030015030300190303001D030300DC
:1000B0002103030025030300290303002D0303008C
:1000C0003103030035030300390303003D0303003C
:1000D0004103030045030300490303004D030300EC
:1000E0005103030055030300590303005D0303009C
:1000F0006103030065030300690303006D0303004C
:100100007103030075030300790303007D030300FB
:100110008103030085030300890303008D030300AB
:100120009103030095030300990303009D0303005B
:1001400010B5054C237833B9044B13B1044800E0D3
:1001500000BF0123237010BDB82202200000000060
:10016000647403000C4B43B10C480D4910B500E01A
:1001700000BF0C48036823B910BD0A48036833B9AF
:100180007047094B002BF7D0BDE810401847064BCD
:10019000002BF5D0184700BF000000006474030076
:1001A000BC220220B022022000000000154B002BD0
:1001B00008BF134B9D46A3F5803A00218B460F469E
:1001C0001348144A121A06F089F80F4B002B00D07E
:1001D00098470E4B002B00D09847002000210400C8
:1001E0000D000D48002802D00C4803F0C3F806F0BB
:1001F00027F82000290003F015F903F0B8F800BF34
:100200000000080000400420000000001534030036
:10021000B82202207066022075330300000000003F
:10022000124880471249134A134B9A42BEBF51F8F5
:10023000040B42F8040BF8E71049114A00209142E0
:10024000BCBF41F8040BFAE700200E490E4A914268
:10025000BCBF41F8040BFAE70C490D4A9142BCBF00
:1002600041F8040BFAE762B60A4880477D3B030079
:10027000D874030000220220B8220220B8220220F3
:1002800070660220706602200030042000300420D6
:1002900000400420AD010300FFF7FEBF40480047C7
:1002A0004048004740480047404800474048004712
:1002B0004048004740480047404800474048004702
:1002C00040480047404800474048004740480047F2
:1002D00040480047404800474048004740480047E2
:1002E00040480047404800474048004740480047D2
:1002F00040480047404800474048004740480047C2
:1003000040480047404800474048004740480047B1
:1003100040480047404800474048004740480047A1
:100320004048004740480047404800474048004791
:100330004048004740480047404800474048004781
:100340004048004740480047404800474048004771
:100350004048004740480047404800474048004761
:100360004048004740480047404800474048004751
:100370004048004740480047404800474048004741
:100380004048004740480047404800474048004731
:100390004048004740480047404800474048004721
:1003A0009D020300A1020300A5020300A9020300AD
:1003B000AD02030099020300E54403006546030013
:1003C000814603001D4703004947030075470300AA
:1003D000A1470300554D030099020300F5430300B4
:1003E000FB4303009902030007440300A5450300F3
:1003F000BD450300D5450300ED4503000546030058
:100400001D460300354603004D46030099020300D4
:100410009902030099020300990203009902030064
:100420009902030099020300990203009902030054
:1004300099020300CD470300F94703002548030054
:1004400051480300014403000D4403009D4603008E
:10045000990203009902030099020300D94803009E
:100460009902030099020300990203009902030014
:10047000990203009902030099020300C546030094
:10048000F146030099020300990203009902030058
:10049000990203009902030099020300F14403004A
:1004A0009902030010F8012B11F8013B012A28BF23
:1004B0009A42F7D0D01A7047D0400B1CD1409C46CE
:1004C000203AD34018435242634693401843704742
:1004D0009140031C90409C46203A9340194352425D
:1004E0006346D3401943704781F0004102E000BFEA
:1004F00083F0004330B54FEA41044FEA430594EAE4
:10050000050F08BF90EA020F1FBF54EA000C55EA1E
:10051000020C7FEA645C7FEA655C00F0E2804FEAEF
:100520005454D4EB5555B8BF6D420CDD2C4480EAD1
:10053000020281EA030382EA000083EA010180EA01
:10054000020281EA0303362D88BF30BD11F0004F4F
:100550004FEA01314FF4801C4CEA113102D0404285
:1005600061EB410113F0004F4FEA03334CEA1333C0
:1005700002D0524263EB430394EA050F00F0A780D8
:10058000A4F10104D5F1200E0DDB02FA0EFC22FAD3
:1005900005F2801841F1000103FA0EF2801843FAC7
:1005A00005F359410EE0A5F120050EF1200E012AB8
:1005B00003FA0EFC28BF4CF0020C43FA05F3C018F6
:1005C00051EBE37101F0004507D54FF0000EDCF16F
:1005D000000C7EEB00006EEB0101B1F5801F1BD318
:1005E000B1F5001F0CD349085FEA30004FEA3C0C1C
:1005F00004F101044FEA445212F5800F80F09A8012
:10060000BCF1004F08BF5FEA500C50F1000041EB15
:10061000045141EA050130BD5FEA4C0C404141EB19
:10062000010111F4801FA4F10104E9D191F0000F40
:1006300004BF01460020B1FA81F308BF2033A3F1C3
:100640000B03B3F120020CDA0C3208DD02F1140CBA
:10065000C2F10C0201FA0CF021FA02F10CE002F1F5
:100660001402D8BFC2F1200C01FA02F120FA0CFCEE
:10067000DCBF41EA0C019040E41AA2BF01EB045137
:10068000294330BD6FEA04041F3C1CDA0C340EDC35
:1006900004F11404C4F1200220FA04F001FA02F378
:1006A00040EA030021FA04F345EA030130BDC4F136
:1006B0000C04C4F1200220FA02F001FA04F340EA2B
:1006C0000300294630BD21FA04F0294630BD94F0DC
:1006D000000F83F4801306BF81F480110134013DC3
:1006E0004EE77FEA645C18BF7FEA655C29D094EA34
:1006F000050F08BF90EA020F05D054EA000C04BFB2
:100700001946104630BD91EA030F1EBF002100209C
:1007100030BD5FEA545C05D14000494128BF41F03B
:10072000004130BD14F580043CBF01F5801130BD9F
:1007300001F0004545F0FE4141F470014FF000002A
:1007400030BD7FEA645C1ABF194610467FEA655CDB
:100750001CBF0B46024650EA013406BF52EA03357D
:1007600091EA030F41F4002130BD00BF90F0000F6B
:1007700004BF0021704730B54FF4806404F13204A7
:100780004FF000054FF0000150E700BF90F0000F60
:1007900004BF0021704730B54FF4806404F1320487
:1007A00010F0004548BF40424FF000013EE700BF57
:1007B00042004FEAE2014FEA31014FEA02701FBFE7
:1007C00012F07F4393F07F4F81F06051704792F0B9
:1007D000000F14BF93F07F4F704730B54FF4607433
:1007E00001F0004521F0004120E700BF50EA01027E
:1007F00008BF704730B54FF000050AE050EA01022B
:1008000008BF704730B511F0004502D5404261EB9A
:1008100041014FF4806404F132045FEA915C3FF4DB
:10082000DCAE4FF003025FEADC0C18BF03325FEA74
:10083000DC0C18BF033202EBDC02C2F1200300FA29
:1008400003FC20FA02F001FA03FE40EA0E0021FA4E
:1008500002F11444C1E600BF70B54FF0FF0C4CF438
:10086000E06C1CEA11541DBF1CEA135594EA0C0FEE
:1008700095EA0C0F00F0DEF82C4481EA030621EA29
:100880004C5123EA4C5350EA013518BF52EA033564
:1008900041F4801143F4801338D0A0FB02CE4FF016
:1008A0000005E1FB02E506F00042E0FB03E54FF046
:1008B0000006E1FB03569CF0000F18BF4EF0010E3E
:1008C000A4F1FF04B6F5007F64F5407404D25FEA3A
:1008D0004E0E6D4146EB060642EAC62141EA5551ED
:1008E0004FEAC52040EA5E504FEACE2EB4F1FD0C2F
:1008F00088BFBCF5E06F1ED8BEF1004F08BF5FEAAD
:10090000500E50F1000041EB045170BD06F000465E
:1009100046EA010140EA020081EA0301B4EB5C040B
:10092000C2BFD4EB0C0541EA045170BD41F4801103
:100930004FF0000E013C00F3AB8014F1360FDEBF28
:10094000002001F0004170BDC4F10004203C35DA04
:100950000C341BDC04F11404C4F1200500FA05F387
:1009600020FA04F001FA05F240EA020001F0004228
:1009700021F0004110EBD37021FA04F642EB06019E
:100980005EEA430E08BF20EAD37070BDC4F10C04C8
:10099000C4F1200500FA04F320FA05F001FA04F28C
:1009A00040EA020001F0004110EBD37041F1000178
:1009B0005EEA430E08BF20EAD37070BDC4F1200583
:1009C00000FA05F24EEA020E20FA04F301FA05F2EB
:1009D00043EA020321FA04F001F0004121FA04F293
:1009E00020EA020000EBD3705EEA430E08BF20EA63
:1009F000D37070BD94F0000F0FD101F0004640009D
:100A000041EB010111F4801F08BF013CF7D041EA1E
:100A1000060195F0000F18BF704703F00046520022
:100A200043EB030313F4801F08BF013DF7D043EAF3
:100A30000603704794EA0C0F0CEA135518BF95EAA9
:100A40000C0F0CD050EA410618BF52EA4306D1D130
:100A500081EA030101F000414FF0000070BD50EA4F
:100A6000410606BF1046194652EA430619D094EAD9
:100A70000C0F02D150EA013613D195EA0C0F05D1C3
:100A800052EA03361CBF104619460AD181EA030117
:100A900001F0004141F0FE4141F470014FF00000CF
:100AA00070BD41F0FE4141F4780170BD70B54FF06A
:100AB000FF0C4CF4E06C1CEA11541DBF1CEA1355EA
:100AC00094EA0C0F95EA0C0F00F0A7F8A4EB0504CC
:100AD00081EA030E52EA03354FEA013100F08880C3
:100AE0004FEA03334FF0805545EA131343EA12638C
:100AF0004FEA022245EA111545EA10654FEA002641
:100B00000EF000419D4208BF964244F1FD0404F5F9
:100B1000407402D25B084FEA3202B61A65EB030555
:100B20005B084FEA32024FF480104FF4002CB6EB12
:100B3000020E75EB030E22BFB61A754640EA0C0092
:100B40005B084FEA3202B6EB020E75EB030E22BFD2
:100B5000B61A754640EA5C005B084FEA3202B6EB13
:100B6000020E75EB030E22BFB61A754640EA9C00D2
:100B70005B084FEA3202B6EB020E75EB030E22BFA2
:100B8000B61A754640EADC0055EA060E18D04FEA60
:100B9000051545EA16754FEA06164FEAC30343EA00
:100BA00052734FEAC2025FEA1C1CC0D111F4801FCD
:100BB0000BD141EA00014FF000004FF0004CB6E7C6
:100BC00011F4801F04BF01430020B4F1FD0C88BF65
:100BD000BCF5E06F3FF6AFAEB5EB030C04BFB6EB70
:100BE000020C5FEA500C50F1000041EB045170BD63
:100BF0000EF0004E4EEA113114EB5C04C2BFD4EB90
:100C00000C0541EA045170BD41F480114FF0000E13
:100C1000013C90E645EA060E8DE60CEA135594EA8F
:100C20000C0F08BF95EA0C0F3FF43BAF94EA0C0F92
:100C30000AD150EA01347FF434AF95EA0C0F7FF407
:100C400025AF104619462CE795EA0C0F06D152EA5B
:100C500003353FF4FDAE1046194622E750EA41063F
:100C600018BF52EA43067FF4C5AE50EA41047FF450
:100C70000DAF52EA43057FF4EBAE12E74FEA4102B3
:100C8000B2F1E04324BFB3F5001CDCF1FE5C0DD9EA
:100C900001F0004C4FEAC0024CEA5070B2F1004F34
:100CA00040EB830008BF20F00100704711F0804F37
:100CB00021D113F13872BCBF01F00040704741F4FC
:100CC00080114FEA5252C2F11802C2F1200C10FA00
:100CD0000CF320FA02F018BF40F001004FEAC123E4
:100CE0004FEAD32303FA0CFC40EA0C0023FA02F388
:100CF0004FEA4303CCE77FEA625307D150EA01335E
:100D00001EBF4FF0FE4040F44000704701F000402D
:100D100040F0FE4040F40000704700BF53B94AB9AC
:100D2000002908BF00281CBF4FF0FF314FF0FF30F3
:100D300000F070B9ADF1080C6DE904CE00F006F8D2
:100D4000DDF804E0DDE9022304B070472DE9F04F3F
:100D50008C460D460446099E002B4CD18A4296468D
:100D600065D9B2FA82F757B1C7F1200CBD4000FA3D
:100D700007F402FA07FE20FA0CF040EA050C4FEAED
:100D80001E4A4FEA14481FFA8EF2BCFBFAF90AFB1E
:100D900019C509FB02FB48EA0545AB4509D975446D
:100DA000AB4540F21F81AE4500F21C81A9F102095A
:100DB0007544A5EB0B05A3B2B5FBFAF00AFB105581
:100DC00000FB02F243EA0544A24208D914EB0E04E8
:100DD00080F01181A24240F20E8102387444A41ABC
:100DE00040EA09400021002E60D0FC40002334601E
:100DF0007360BDE8F08F8B4207D9002E54D00021DC
:100E000086E821000846BDE8F08FB3FA83F1002997
:100E100040F08880AB42C0F0E880824240F2E5803A
:100E20000846002E42D086E81010BDE8F08F1AB9AF
:100E30004FF0010EBEFBF2FEBEFA8EF7C7BBA5EB6C
:100E40000E054FEA1E4C1FFA8EF80121230CB5FB4C
:100E5000FCF20CFB125508FB02F043EA0545A842E0
:100E600008D97544A84240F2B980AE4500F2B68078
:100E7000023A75442D1AA3B2B5FBFCF00CFB1055D9
:100E800008FB00F843EA0544A04508D914EB0E041A
:100E900080F0A680A04540F2A38002387444A4EB01
:100EA000080440EA02409EE731463046BDE8F08F34
:100EB000C7F120020EFA07FE05FA07F300FA07F45D
:100EC000D5404FEA1E4CD0401FFA8EF8B5FBFCF11E
:100ED00018430CFB115201FB08F3050C45EA0245CF
:100EE000AB4208D97544AB4240F28E80AE4500F269
:100EF0008B8002397544EB1A85B2B3FBFCF20CFB14
:100F0000123302FB08F045EA0345A84206D915EB67
:100F10000E0572D2A84270D9023A75442D1A42EADF
:100F2000014193E7C1F120048B4002FA01F705FA71
:100F300001FCE24020FA04F8E54000FA01FE1A4301
:100F400048EA0C0C4FEA12484FEA1C431FFA82FA97
:100F5000B5FBF8F908FB195509FB0AF043EA05450A
:100F6000A84207D91544A8424BD9AA4249D8A9F1A9
:100F7000020915442D1A1FFA8CFCB5FBF8F008FB8A
:100F8000105500FB0AFA4CEA05439A4505D99B180F
:100F900035D29A4533D90238134440EA0940A3EBCD
:100FA0000A03A0FB07894B45C4464D4602D306D130
:100FB000C64504D20138B8EB070C69EB02052EB325
:100FC000BEEB0C0263EB0503CA4003FA04F4CB400A
:100FD0000021144373603460BDE8F08F013A49E7A3
:100FE00001385CE709F1FF39E3E6841A65EB030594
:100FF0000120AC4615E70138F1E6013A8EE70138E9
:10100000CBE709F1FF39B5E7013974E73146BDE8AF
:10101000F08F00BF704700BF002070472DE9D0431C
:10102000DDE906891F46036816469B6A0446984711
:1010300002460B4630463946FFF770FE134302D096
:101040000020BDE8D083236820469B6A984702466B
:101050000B4640464946FFF761FE1343F0D1236833
:1010600016EB08069B6B204647EB09079847B942E9
:1010700008BFB0422CBF01200020BDE8D0832DE97D
:10108000D043DDE906891F46036816465B6A0446BD
:10109000984702460B4630463946FFF73FFE13435A
:1010A00002D00020BDE8D083236820465B6A9847C1
:1010B00002460B4640464946FFF730FE1343F0D147
:1010C000236816EB08069B6B204647EB09079847F9
:1010D000B94208BFB0422CBF01200020BDE8D08338
:1010E0000020704703689B6A18470368DB6A18474B
:1010F0004FF0FF3070477047704710B504460368E3
:101100005B6D984794F8603033B963662368204676
:101110009B6D9847002010BD636E013B6366002BFA
:10112000F4D184F8603000220023C4E90223EDE703
:101130004FF4007000217047C36881685B02480269
:1011400043EAD1517047000000487047C064030073
:1011500080F86110704770B50024064620460131C2
:10116000891A8C420CD01519A6EBD503DB7B05F050
:1011700007052B4103F00103A34018430134F0E7B6
:1011800070BD016870B5096B14461D460646884758
:1011900002460B4620462946FFF7C0FD134301D007
:1011A000002070BDDDE90423A4185D41336814F10B
:1011B000FF32196B304645F1FF33884702460B4634
:1011C00020462946FFF7AAFD1343E9D1336830468C
:1011D0009B6B9847A94208BFA0422CBF012000206A
:1011E00070BD00002DE9F3419846194B1646036087
:1011F000002200230D460446C0E9022310300A9F56
:1012000000F0D0FF4FF0FF3329460025324600930F
:1012100004F15806434604F1380000F071FE9DF9D0
:101220002010304684F8585001F02BFD304684F8E9
:1012300060506566012102F07BF9064B204623636E
:101240004FF4007325716763E36502B0BDE8F08178
:10125000CC640300A08601002DE9F843DDE908898C
:1012600014461D46C76D06463A46002320462946C9
:10127000FFF754FD134317D13A4600234046494631
:10128000FFF74CFD13430FD1336814EB08049B6B3D
:10129000304645EB09059847A94208BFA0422CBF3C
:1012A00001200020BDE8F8830020BDE8F88300009D
:1012B000416B08B5084B0246994200F1380003D84B
:1012C00000F077FE002008BD5363194600F071FE60
:1012D0006FF0150008BD00BF40787D0138B50446A9
:1012E000154603685B6D984765632046FFF7E0FF8E
:1012F0000546236820469B6D9847284638BD000068
:10130000094B10B5036090F8603004460BB1FFF74D
:10131000F4FE04F1380000F095FD04F1100000F037
:10132000C3FE204610BD00BFCC64030010B50446C8
:10133000FFF7E6FF204602F053F8204610BD73B5D4
:1013400001F03F0343F040038DF80030130E8DF899
:101350000130130C8DF80230130A0D468DF803305E
:101360008DF8042019B1082921D0FF2300E095232E
:1013700000268DF8053000F138041DF806102046CF
:10138000013600F05BFE062EF7D10C2D03D1FF21B4
:10139000204600F053FE1025FF21204600F04EFEAF
:1013A000030601D5013DF7D1C0B202B070BD87235D
:1013B000DEE770B500F11004054620460E4600F049
:1013C000E0FE204600F080FE3835FF21284600F080
:1013D00035FE8642204603D100F0A1FE012070BDFB
:1013E00000F0C6FEB0F5967FEFDB204600F097FEDA
:1013F000002070BD70B500F11004054620460E4671
:1014000000F0BFFE204600F05FFE3835FF21284681
:1014100000F014FEC0B2FF28204603D100F07FFE8A
:10142000012070BD00F0A4FEB042EFDB204600F0CA
:1014300076FE002070BD70B50E46002400F1380520
:10144000E3B2B34204F1010404DAFF21284600F0BC
:10145000F5FDF5E770BD000073B50D46FE210446AD
:101460001646FFF7A6FF90B10022383411462B46EE
:101470000096204600F0F2FDFF21204600F0DEFD40
:10148000FF21204600F0DAFD002002B070BD0148C7
:10149000FBE700BF70ECFFFFF7B500F1380405462D
:1014A0000E46204611461F4600F0C8FD00233A466E
:1014B00000933146204600F0D1FD6FF07F41204679
:1014C00000F0BCFD4FF0FF31204600F0B7FDFF21DA
:1014D000204600F0B3FD42F2107104462846FFF7A3
:1014E00089FF04F01F0003B0F0BD38B5044600F1D9
:1014F0003805284600F09CFCFF21284600F09EFDA0
:1015000004F158000021BDE8384002F011B838B5A8
:10151000054600F13804204600F08AFC296B20467D
:1015200000F047FD00222046082100F025FD20465E
:10153000FF2100F0ACFD05F15800012101F0F8FF9A
:1015400028460A21FFF777FF2046BDE8384000F023
:101550006FBC10B5044601213834583001F0E8FF63
:101560002046FF2100F06AFD2046BDE8104000F053
:101570005FBC00002DE9F0470C46064691469A46AE
:10158000DDF82080FFF7B1FF0C2C04D042F210717F
:101590003046FFF72FFF0325BAF1000F09D037219E
:1015A00000223046FFF7CBFE42F210713046FFF7C3
:1015B00021FF4A4621463046FFF7C1FEFF28074675
:1015C00071D1013DE8D1B8F1000F03D0FF28C8F870
:1015D00000006BD13046FFF7BCFF3848BDE8F0870C
:1015E000420709D53046FFF7B4FF082C01D1042388
:1015F00033713348BDE8F08710F0120F1BD110F0A3
:10160000600F304D08BF00250D2C3DD015DC082C97
:1016100031D00C2C32D0B8F1000F01D0C8F80070D6
:10162000093CE4B2102C38D8274B23FA04F4E30722
:1016300033D595BB34E0254DE6E7262C1ED03A2C59
:10164000E9D106F13809FF21484600F0F7FCFF21F7
:101650000706484600F0F2FCFF2147EA00474846EB
:1016600000F0ECFCFF218246484600F0E7FC07430F
:1016700047EA0A27CFE702233371E2E742F210710B
:101680003046FFF7B7FEC6E7FF2106F1380000F04D
:10169000D5FC0746B8F1000FC0D13046FFF759FF1F
:1016A0002846BDE8F087B8F1000F8FD1010797D524
:1016B0003046FFF74EFF0648BDE8F08773ECFFFFAA
:1016C00076ECFFFF75ECFFFF01A301006EECFFFF5E
:1016D0006FECFFFF2DE9F341DDE90867CDE9006715
:1016E000044690461D46FFF7B7FD002840D023680A
:1016F00020465B6D984794F8603043B923682046D4
:101700009B6D98471B4D284602B0BDE8F0812379B8
:10171000B6F5007647F1FF37032B07D1730A43EA8A
:10172000C7531E464FEA582848EAC5580023424688
:10173000009320212046FFF71DFF054620B12368B6
:1017400020469B6D9847DEE70090034608EB0602B3
:1017500021212046FFF70EFF05460028EFD100901B
:101760000346024626212046FFF704FF0546E6E72A
:10177000014DC8E774ECFFFF75ECFFFF1FB50023B8
:1017800004AA42F8043D009208214FF4D5720446A1
:10179000FFF7F0FE58B92379022B08D1039BC3F35E
:1017A0000B03B3F5D57F1EBF04230248237104B099
:1017B00010BD00BF71ECFFFF7FB50546052403AEE9
:1017C000002300961A4619462846FFF7D3FE039BCE
:1017D000012B04D0012001F078FE013CF0D10398E8
:1017E00004B070BD00232DE9F043054680F8613058
:1017F00085B0FFF78CFE2846FFF7DEFF01285AD19F
:101800002846FFF7BBFF10B12C4B98420ED10023A6
:1018100003AF00971A463A212846FFF7ABFE28B9D6
:10182000039BD90205D4042325482B7105B0BDE8DC
:10183000F0832B7905F11006022B304614BF4FF0D0
:1018400000094FF0804942F20F7800F03DFC01237F
:101850004A46009729212846FFF78CFE039B044641
:10186000DA0704D5304600F083FC4045EFDD304612
:1018700000F055FC0CB9039B1BB1042320462B71CF
:10188000D4E72B79022B14D10097234622463A2124
:101890002846FFF76FFE20B9039B5B0001D50323A9
:1018A0002B7100233B2100931A462846FFF762FE66
:1018B000BCE70123F4E70348B8E700BF76ECFFFF7D
:1018C00071ECFFFF73ECFFFF2DE9F7430A9D0B9FBF
:1018D0000E4601688DE8A000096C044690469946C2
:1018E000884700285CD0236820465B6D984794F8B1
:1018F000603043B9236820469B6D9847294F38468E
:1019000003B0BDE8F0836D0A45EAC7550027237987
:101910000097032B04BF4FEA582848EAC958012D05
:101920001BD13B46424618212046FFF723FE0746BF
:1019300020B1236820469B6D9847E0E74FF4007381
:10194000FE2231462046FFF7A7FD174B052818BF9A
:101950001F462046FFF7FDFDEBE701232A4617212E
:101960002046FFF707FE00973B46424619212046D6
:10197000FFF700FE07460028DBD14FF40073FC227E
:1019800031462046FFF788FD052803D1013D06F5C5
:101990000076F2D1FD2104F1380000F04FFBD8E7CA
:1019A000024FACE774ECFFFF6DECFFFF75ECFFFF3F
:1019B0002DE9F347DDE90A890F460168CDE9008981
:1019C000C96B044615469A46884750B1236820469D
:1019D0005B6D984794F860302BB9236820469B6D67
:1019E0009847214D1BE023794FEA5826032B4FF0EF
:1019F000000308BF6D0A46EAC95608BF45EACA5542
:101A0000012E2A4600938CBF122111212046FFF798
:101A1000B1FD054638B1236820469B6D984728469E
:101A200002B0BDE8F0875EB14FF40072394620463F
:101A3000FFF712FD18B907F50077013EF3E70B4DEC
:101A40002046FFF786FD00234FF400724B4508BF88
:101A50004245E0D200230C2100931A462046FFF7AE
:101A600089FD0546D7E700BF75ECFFFF70ECFFFF6F
:101A7000F8B50C46FE2105461746FFF79AFC20B93B
:101A80002846FFF766FD0D48F8BD274405F13806E6
:101A9000BC424FF0FF01304604D000F0CFFA04F80A
:101AA000010BF5E700F0CAFAFF21304600F0C6FA54
:101AB0002846FFF74EFD0020F8BD00BF70ECFFFF89
:101AC000F0B5002487B0009423462246092106463B
:101AD000FFF750FD074600284DD1102202A93046DD
:101AE000FFF7C6FF0546002844D17E227F2102A8C9
:101AF000FFF731FB18B1012834D02C463BE03E22E1
:101B0000492102A8FFF727FB2F220446312102A812
:101B1000FFF721FB50220546532102A8FFF71BFBCC
:101B200001232E2202350134AC4003FA00F0A4FB5D
:101B30000001440A44EAC1544D0A02A81146FFF7C5
:101B40000AFB18B14FF40073F36507E027222D213B
:101B500002A8FFF700FB01304002F065204629464D
:101B600007B0F0BD3022452102A8FFF7F4FA01309A
:101B70008402E7E73C462546F0E737B504460368AC
:101B80005B6D984794F8603003B96366636E013308
:101B9000012B63662FD12046FFF724FE051E0CBFE4
:101BA0000123002384F8603004D0236820469B6D15
:101BB00098470DE02046FFF783FF50EA0103C4E990
:101BC000020108D1236820469B6D98476FF47A651F
:101BD000284603B030BD00952B464FF4007210210B
:101BE0002046FFF7C7FC0028ECD12046FFF760FB3A
:101BF00005460028D9D1236820469B6D98470025CB
:101C0000E6E77047704703F0BDB803F0B1B803F0E2
:101C1000BCB803F0BDB803F0BEB80246006820B9F6
:101C2000106810B902F108001060704770B50546E1
:101C30000A4E3046FFF7F1FF284605F029FC04461E
:101C4000284603F09FF801F0BBFB68603046FFF7C1
:101C5000E4FF201C18BF0120404270BDD8220220A2
:101C600038B505460948FFF7D8FF284603F07EF847
:101C7000003018BF01204442686808B101F0B2FB8F
:101C80000248FFF7CAFF204638BD00BFD822022015
:101C90002DE9F0410F46164605469846084C204669
:101CA000FFF7BBFF43463A463146284605F0F8FBAE
:101CB00005462046FFF7B1FF2846BDE8F08100BF8A
:101CC000D82202202DE9F74F1646994680460F4646
:101CD00003F058F80546404603F05AF8824640465D
:101CE00003F053F8B6FBF5F305FB136404B917B919
:101CF0004FF0FF3353E009EB060382445345F7D816
:101D00002948FFF78AFF2346B9F1000F42D0002B84
:101D100040D13146404603F02BF8B6FBF0F400FB0F
:101D20001464041B4C4528BF4C46BB0701D1A54297
:101D300029D9AC4228BF2C4639462246D8F804009F
:101D400004F0C1FAAC4206D2D8F804002A1BFF21E5
:101D5000204404F0C3FAAB46D8F8043001934FF0A6
:101D6000100A5B46019A3146404605F089FB03465E
:101D700020B1BAF1010AF4D14FF0FF33A9EB040905
:101D800026442744C0E7B4FBF5F405FB04FB0197A8
:101D90005C46E4E704480193FFF73FFF019B1846C8
:101DA00003B0BDE8F08F00BFD82202202DE9F0413A
:101DB0000D461646074602F0EBFF0446384602F091
:101DC000E4FF2044AC19A04203D24FF0FF30BDE83D
:101DD000F08119D81548FFF720FF0024FEB1F4B9AF
:101DE0004FF010082946384605F062FB044620B142
:101DF000B8F10108F6D14FF0FF342946384602F019
:101E0000B7FF361A0544E9E72146384602F0B0FF2D
:101E1000B4FBF0F303FB10400028D6D1DAE7034807
:101E2000FFF7FBFE2046BDE8F08100BFD82202206C
:101E300043681A6922B91A6912B903F118021A61C2
:101E40007047000008B5064B0360FFF7F1FF4368D9
:101E50001A6A904204BF00221A62FFF7E9FF08BD28
:101E60003065030010B50446FFF7ECFF204601F093
:101E7000B7FA204610BD000038B5054601F0C0F99C
:101E8000074B1B68002B08DD064C2078A84218BFC2
:101E9000002401F0BFF9204638BD0024F9E700BF57
:101EA00010230220E82202202820044A1368591C2B
:101EB0001160034A00FB0320704700BF102302207B
:101EC000E822022038B5082303610C4B002583610A
:101ED000FF23457745610377044601F091F92846D1
:101EE000FFF7CAFF0546606018B9FFF7DDFF6060C5
:101EF0000570BDE8384001F08DB900BF40420F00C9
:101F000010B504460A48A3729DF908302060E372B8
:101F100020460023217262724FF0FF3100F80C3F1F
:101F200000F0AFFE2046FFF7CDFF204610BD00BFFA
:101F30003065030037B504464068036A9C4219D0F7
:101F400094F90B5094F90A3094F9092094F9081087
:101F50000430009501F01CFC60680023626921696F
:101F6000043001F0B3FC6068A169043001F0F0FCBA
:101F700063681C6203B030BD70B504460D4616465A
:101F800003681B69984760682561036A66619C4223
:101F90000BD1002332462946043001F097FC236818
:101FA0002046BDE870405B6918472046FFF7C2FF36
:101FB000F5E770B504460D4603681B6998476068ED
:101FC000A561036A9C4209D12946043001F0C0FC96
:101FD00023682046BDE870405B6918472046FFF73C
:101FE000A9FFF5E790F90C30013302D00C3001F075
:101FF0009FBA704738B5044603681B69984794F93F
:102000001D506B1C637745B92046FFF793FF2946A7
:102010002046BDE83840FFF7E5BF38BD10B5437F27
:102020000446013B5BB2437713B90121FFF7DAFFA6
:1020300023682046BDE810405B69184738B5044660
:102040000D46FFF7D7FF60682946043001F090FC89
:1020500005462046FFF7E2FF284638BDF7B504469F
:102060001F460D461646FFF7C5FF237F60680193A4
:10207000089B2946009332463B46043001F090FC11
:1020800005462046FFF7CAFF284603B0F0BD70B5ED
:1020900004460D4603681B69984723682577204648
:1020A000BDE870405B69184710B5044601F0A8F818
:1020B00023681BB1237F0BB101F0DCF900232360FF
:1020C00001F0A8F8204610BD10B5044601F098F8BC
:1020D000236853B9237F0BB101F0ACF9A06900F07C
:1020E000D9FF0123C4E902012360BDE8104001F0DB
:1020F00091B838B5044601F083F8236863B1A0694C
:1021000000F0C8FFD4E90245041B61EB050501F0AE
:1021100081F82046294638BD00240025F7E710B590
:10212000044601F06DF82046FFF7E3FFD4E90423ED
:10213000801859412368C4E904011BB1237F0BB106
:1021400001F098F900232360BDE8104001F062B867
:1021500070B5064601F054F8D6E904453046FFF75D
:10216000C8FF24184D4101F055F82046294670BD9E
:1021700008B5FFF7EDFF4FF47A720023FEF7CEFDAE
:1021800008BD10B5044601F03BF8A06900F082FFDD
:1021900000220023C4E90201C4E90423BDE8104081
:1021A00001F038B8002310B5002203600023C0E915
:1021B0000223C0E90423044600F082FF0123A0614A
:1021C00023772046FFF7DDFF204610BD052804D009
:1021D0000628034818BF002070470248704700BF18
:1021E00078690300486903000C22002104F076B8E6
:1021F00010B50446A8B103689BB1406808B15B6A9A
:102200009847A06838B12368D968490000F028F9D8
:10221000A06804F041F82046BDE810400C2100F011
:102220001FB910BD70B5044616460D4699B190B160
:102230000B6A9847606048B156B1E968022003F024
:10224000F7FFA06020B96B6A60689847034870BDCB
:102250002560002070BD024870BD00BF80AEFFFF4A
:1022600000AFFFFF2DE9F0410E4688B01746044647
:10227000002857D00368002B54D08268002A51D020
:10228000DA68BA4217D21B694068984705460028A9
:1022900034D123683A465B69314660689847054601
:1022A00060BB236869469B6960689847054628BB00
:1022B0006E4623689F682368D4F80880DA68362160
:1022C000404608EB020504F009F823685C21DA684F
:1022D000284604F003F84346013E681E47449F42E7
:1022E00014D1236860681B699847054630B9236894
:1022F00041465D69DA686068A8470546202168465E
:1023000000F0AEF8284608B0BDE8F08171781A7880
:102310004A4003F8012B427816F8011F4A4000F8A2
:10232000012FDCE7004DEDE700AFFFFF10B440B137
:10233000036833B1846824B15B6940685DF8044B7D
:10234000184702485DF8044B704700BF00AFFFFF1D
:102350002DE9F0410E4688B0044630B3036823B33C
:10236000856815B3D3F80C8069469B694068984727
:10237000C0B9236860681B69984798B9236805EB62
:1023800008015F69DA686068B84758B92368694628
:102390005D699A686068A84720B9236831469B69DF
:1023A0006068984708B0BDE8F0810148FAE700BFCF
:1023B00000AFFFFFF0B50E4685B017461D46044638
:1023C00010B301A8FFF710FF2146012201A8FFF773
:1023D00029FF044690B93A46314601A8FFF742FF6B
:1023E000044658B90A9A294601A8FFF79FFF0446F8
:1023F00020B90B9901A8FFF7ABFF044601A8FFF72E
:10240000F7FE204605B0F0BD004CFAE700AFFFFF35
:1024100000F08EB800F035B810B5044600F02CF886
:102420002046BDE8104003F037BF10B56C210120F5
:1024300003F0FEFE044608B100F01AF8204610BD75
:10244000012300F0EAB9002300F0E7B900F04FB92A
:1024500000F00CB9012100F019B8002100F016B805
:10246000024B0A461B680021184700BF04220220C5
:102470006C22002103F032BF10B16C21FFF7F0BFD6
:10248000704708B56C2203F01EFF08BD00230360EF
:102490004360B9B9184B8360184BC360184B036194
:1024A000184B4361184B8361184BC361184B03628F
:1024B00003F17453A3F52303A3F6924343628166A9
:1024C00000207047134B8360134BC36003F17943C3
:1024D00003F5740303F501630361104B4361104B73
:1024E000836103F1D14303F5C01303F51E63C36198
:1024F0000C4B03620C4BE1E767E6096A85AE67BBEC
:1025000072F36E3C3AF54FA57F520E518C68059BD5
:10251000ABD9831FD89E05C107D57C3639590EF734
:10252000310BC0FFA78FF964A44FFABEFFF7AEBF0F
:102530002DE9F04F00F10803CBB000931A460023B9
:1025400052F8044B02A840F823400133082BF7D17E
:102550004FF0000E059BDDF824B0069D089FDDF8C6
:102560001CC002AC0193ADF1180294E85004BEF116
:102570000F0F62D84B7891F800901B0443EA09686A
:10258000CB7848EA030391F8028043EA08231364F6
:10259000354B4FEAF52853F82E3088EAB51818461F
:1025A000136C88EA756818448CEA07032B40804452
:1025B0007B409844019BD8444344184646EA0409AA
:1025C0004FEA743306EA040B83EAB40309EA0A0902
:1025D00049EA0B0983EAB4530EF1010E4B44BEF1F4
:1025E000400F434401F1040102F10402BB46CDF85F
:1025F00004A01BD10293002309970690CDF820C0B8
:10260000079503940496CDF814A0009A02A951F8F6
:102610002310126801330A440099082B41F8042B57
:102620000091F2D100204BB0BDE8F08FB246674672
:102630002646AC461C46054699E7936BD2F80490B3
:102640004FEAF34888EA734888EA9328536A1846A1
:10265000136818444FEAB94383EAF913804483EAC4
:10266000D90908EB090392E7B86903002DE9F041A5
:1026700005460F46144612B90020BDE8F0810368F4
:1026800003F03F0013449A422B6082BF6B68013312
:102690006B6008B3C0F14006B24216D305F12808BA
:1026A0003246404403F00FFE41462846FFF740FF04
:1026B0000028E2D13744A61B3446311B3F2C394455
:1026C0000CD8002CD8D00F46002028352246394699
:1026D000284403F0F8FDCFE71646EDE72846FFF75C
:1026E00027FF0028C9D1403CE7E7FFF7BFBF70B51F
:1026F0000446802203680D4603F03F03581C382827
:10270000234483F8282004F1280674D80021C0F15E
:102710003802304403F0E2FD236861685A0F42EA50
:10272000C102110EDB0084F86010110C84F86110F6
:1027300084F86320110A1A0E84F864201A0C84F8B5
:1027400065201A0A84F8621084F8662084F86730DD
:1027500031462046FFF7ECFE00284BD1E37A2B7080
:1027600063896B70A3681B0AAB70A368EB70E37B93
:102770002B71E3896B71E3681B0AAB71E368EB7142
:10278000E37C2B72638A6B7223691B0AAB72236929
:10279000EB72E37D2B73E38A6B7363691B0AAB7384
:1027A0006369EB73E37E2B74638B6B74A3691B0A01
:1027B000AB74A369EB74E37F2B75E38B6B75E369F3
:1027C0001B0AAB75E369EB7594F823302B76638CA9
:1027D0006B76236A1B0AAB76236AEB76A36E4BB942
:1027E00094F827302B77E38C6B77636A1B0AAB77FF
:1027F000636AEB7770BDC0F140020021304403F002
:102800006DFD31462046FFF793FE0028F2D10146C8
:10281000382230467EE7FFF76ABFF0B51C469DB010
:10282000064601A80F461546FFF722FE214601A8DD
:10283000FFF72CFE044658B93A46314601A8FFF787
:1028400015FF044620B9294601A8FFF750FF0446AA
:1028500001A8FFF711FE20461DB0F0BD072300229E
:10286000012110B5C40744BF01FA03F4224313F158
:10287000FF334FEA5000F5D2104610BD2DE9F04F5E
:1028800016468FB0074606A80D469A46FFF7B9F9D7
:10289000102200210AA803F021FD56B9674802F072
:1028A000FBFD674C06A8FFF7ADF920460FB0BDE869
:1028B000F08F06A8FFF7BAF9044628B1014661482F
:1028C00002F0EAFD604CEDE7394606A8FFF79DF9F6
:1028D00007F18F039D4266D306A8FFF798F980465B
:1028E00006A8FFF796F9404485425CD80135ED1BF8
:1028F0004FEA5508A04507EB040104D906A8FFF7E5
:1029000084F90444F6E7514B2D1B002B0A970D95D3
:1029100014BF0127022700250B940C9106A8FFF78E
:102920007AF90AAC54F835200DF1200881460823C5
:102930004032414606A8FFF7ABF930B918F800302D
:102940004B4539D101300828F8D10135022DE5D1A8
:102950003F49404802F0A0FD3D4C06A8FFF780F932
:10296000A0E718F1010849F10009DDE900018945F6
:1029700008BF80455ED212F8010F0392FFF76EFF89
:102980000921039A8BEA006B013911F0FF01E8D0AD
:10299000BBF1000F4FEA4B03B6BFDFF8C4B09B4654
:1029A00083EA0B0BF0E72C4802F076FD24492B4814
:1029B00002F072FD224CD0E7189BBDF8228013B1C3
:1029C000189BC3F80080C245BFD354F83520434656
:1029D000314606A8FFF75CF904460028B5D100236C
:1029E0001FFA88F2022FCDE900234FF000084FF0C4
:1029F00000094FF0FF3B06F1FF32B6D013490491B6
:102A0000DDE90001894508BF804513D212F8010FA6
:102A100003920592FFF722FF049980EA1B60C0B27F
:102A200051F8200018F1010880EA0B2B49F1000948
:102A3000039AE4E7099A5A458FD086E7B86A0300FB
:102A40000101FF80DB6A03000F01FF80486503007E
:102A50000701FF80036B0300346B03006F6B0300FF
:102A6000B71DC1042DE9F347054668460E46FFF73A
:102A7000C8F849490846FDF715FD28B94FF4142355
:102A80002B604FF4705005E044494348FDF70AFDC0
:102A900048B928602B68034433602B688BB940B970
:102AA0004FF0010811E03E493B48FDF7FBFC0028D0
:102AB000E7D03C4C6846FFF7A5F8204602B0BDE8D9
:102AC000F0870028F5D04FF000086846FFF7AEF811
:102AD000044600285ED1344A3448354B1044A0EBFC
:102AE000030A51466846FFF790F881466846FFF7AB
:102AF0008EF807466846FFF78CF80744B8F1000FD8
:102B00002ED1D5F8008068464146FFF77EF823466F
:102B10000246814621464046FEF700F9D6F800A05D
:102B200000FB09F90AF1FF316846FFF76EF8002152
:102B300080461AF1FF304246234641F1FF31FEF74D
:102B4000EDF82B6800FB08884B4504D133684345FA
:102B500001D19F421AD26846FFF782F8154CA9E7C7
:102B6000791E6846FFF751F80021A7EB40081AF1DB
:102B7000FF304A4641F1FF312346FEF7CFF800FB14
:102B80000999C845E7D3C5F8008037606846FFF764
:102B900067F88FE7084C8DE7A06B0300AB6B030071
:102BA000B86B03000901FF80D8740300B82202202B
:102BB000002202200601FF800F01FF8030B5114D79
:102BC00087B0D5E88F3F13F0010418D1284600F0F4
:102BD000DDFBA0B100230C4A1A21CDE902232123F9
:102BE00023220093049422230848FEF7FBFA284688
:102BF00000F0DEFB064A0749044800F0B6FB034834
:102C000007B030BD1423022040420F0018230220D9
:102C10000022022001130300EFF31083DB4372B69E
:102C2000044A117829B9044903F001030B70012308
:102C30001370704781230220802302200022034B5F
:102C40001A70034B1B7803B162B6704781230220D0
:102C50008023022070B50E460446154600F03AFC6B
:102C600001360DD02946204600F062FC20460121A5
:102C700000F03DFC2046BDE87040002100F033BC70
:102C800070BD0022FFF7E6BF13B5044601300FD137
:102C900002B010BD9C420AD12046896800F058FC61
:102CA0000021204602B0BDE8104000F08DBC0C3180
:102CB00091F900305A1CEDD10023224600931946A9
:102CC000014800F025FB00BF30010180884207B5B4
:102CD00002460AD0431C08D0013105D00023054824
:102CE0000093194600F014FB0146084603B05DF856
:102CF00004FB00BF3001018091F900305A1C01D162
:102D000018467047834201D1486870470C31F3E799
:102D1000431C07B50AD0FFF7EFFF431C06D1002381
:102D2000024600931946034800F0F2FA03B05DF83A
:102D300004FB00BF300101802DE9F74FD0F804A05B
:102D400004469AF83A30002B46D103685B689847EE
:102D500063681B6A98423FD0DAF82030DAF80840FE
:102D6000A0EB0308CAF82000DAF80C30314808EA72
:102D70000308844246464FF0000727D0DAE90A23C9
:102D80009AF83BB0A8FB0089CDE900230025BBF1F0
:102D9000000F2BD05A4640464946FDF78DFBDDE932
:102DA000002312EB080243EB090390465A4699466A
:102DB00006460F46FDF78CFBB8EB000069EB0101FE
:102DC000A94208BFA0420AD2CAE90A01DAE90C23E3
:102DD000B6185F41CAE90C6703B0BDE8F08F013651
:102DE00047F10007001B61EB0501EDE722462B468A
:102DF00040464946FDF792FF224606460F464046AA
:102E000049462B46FDF78AFFDDE9008918EB0208E9
:102E100049EB0309A94508BFA04502D2CAE90A89BE
:102E2000D4E7013647F10007B8EB040869EB050960
:102E3000F4E700BF40420F00824206D98A420BD914
:102E4000884294BF002001207047884206D98A42F8
:102E50008CBF002001207047012070470020704780
:102E60002DE9F0474668074696F83A30002B66D1C0
:102E700096F83930002B62D1FFF75EFF7D68D7F8F6
:102E800000A06B68002B50D0D5E90C89D3E9000174
:102E9000894508BF804504D3DAF81430BDE8F0470F
:102EA0001847B0EB080861EB0909D5E906234B4543
:102EB00008BF42452C6906D3AB68224A934216D11B
:102EC000444528BF44462A6ADAF810301444EA68B8
:102ED0001440204698473B685B6898472246014665
:102EE000306AFFF7A9FF50B33B685B69D6E795F8F6
:102EF0003B20AAB140464946FDF7EAFA4FF00009E7
:102F0000DFF844800F4A18EB000849EB0109002361
:102F100040464946FDF702FF844228BF0446D2E7F7
:102F2000A3FB080103FB0911E8E73369306AF26883
:102F300018441040DAF81030BDE8F0471847BDE8F3
:102F4000F08700BF40420F003F420F002DE9F04FD5
:102F5000436885B093F838200546002A63D193F87A
:102F60003A30002B5FD103681B6898472B68DB69F8
:102F700098472E4B06680122002E08BF1E461F23CD
:102F800002FA03F1B1425FFA83FB02D0013BF7D1B1
:102F90009B4647684FF0070A3B1F1D2B28BF202781
:102FA0003B1F0AFA03FA002316F1FF301F4C43F1CE
:102FB000FF313246C4FB0A01FDF7B0FE00236C6806
:102FC0002A682360636052680393CDE9000190474B
:102FD0004FF000084FF0000920626C683A46C4E9DF
:102FE0000A89A66084F83BB001200021FDF770FA41
:102FF000DDE90023C4E90623039B013884F8393056
:1030000084F83A300123E060C4F810A02846C4E9EF
:103010000C8984F83830FFF78FFE284605B0BDE8EC
:10302000F04FFFF71DBF05B0BDE8F08F40420F0025
:1030300070B5044600F0E4F82368DB6898476368DD
:1030400093F83A201AB1BDE8704000F0E3B80122CD
:1030500083F8392063685B68A3B12046FFF76CFEF4
:1030600065686E68D5E90C01D6E90023994208BF6E
:10307000904207D3F3686B602B68002BEAD0B068EE
:103080009847E7E700226368204683F83920FFF776
:10309000E7FED8E738B50446FFF758FF00F0B0F870
:1030A0002046FFF749FE6368D3E90C4500F0B2F80B
:1030B0002046294638BD08B5FFF7ECFF08BD0000E3
:1030C00000487047C06B0300024B1B680BB10248FD
:1030D0001847704708220220C06B030003F062B952
:1030E00003F012B903F002B9F0B572B60023224A18
:1030F0004FF0FF3613604FF0E0221D4651681F4F1E
:1031000001F00F0101319A0002F1604202F56142C3
:10311000C2F88060C2F8806100224FEAC30E02EB61
:103120000E0401323C44082A84F80053F7D10133DD
:103130009942E8DC4FF02062114B5A6040F2FA529B
:103140009860DA60002211461D619C1801320C2A39
:103150002176FAD14FF0FF3259629A62094A4168EA
:10316000DA621F221A630368002282F314889D46E4
:1031700082F310880847F0BD10E000E000E100E0B5
:1031800000ED00E0020000C007B500F039F826218C
:1031900001A8FFF776FD124D0424012101A800F0DB
:1031A000C7F9284600F082F9002101A800F0C0F913
:1031B000284600F07BF9013CEFD10424094E01219F
:1031C00001A800F0B5F9304600F070F9002101A81F
:1031D00000F0AEF9304600F069F9013CEFD1DBE7D1
:1031E000F0490200801A0600EFF31080C04300F09F
:1031F00001007047EFF30580003018BF01207047D1
:1032000008B5FFF709FD024A13680133136008BDD2
:10321000C8230220044A136823B1013B13600BB991
:10322000FFF70CBD704700BFC82302200122D0E881
:103230004F3FC0E8412F0029F9D1D8B2003018BF64
:1032400001207047D0E85F3F0B449BB2C0E8523F7B
:10325000002AF7D118467047D0E85F3F5B1A9BB24F
:10326000C0E8523F002AF7D11846704708B50B480E
:10327000FFF7DCFF28B1FFF7C3FFBFF34F8F20BF7D
:10328000FDE7FFF7B7FF08B1FFF77EFFFFF7ACFFE1
:103290000028F9D0012000F06AF800BF0C240220B9
:1032A00070B5164C0D4634EA200428BF0446164675
:1032B0008EB03422002101A803F010F80194029688
:1032C0000395FFF79DFF0E4A13680133012B13602E
:1032D00004D1342201A90B4802F0F5FF342201A9E0
:1032E000094802F0F0FF094B1B680BB106489847EC
:1032F000FFF790FF00200EB070BD00BF0101FF80FE
:10330000CC230220D823022010240220D023022024
:1033100008B50446064876461546FFF787FF20B9EC
:10332000324629462046FFF7BBFFFFF79FFF00BF4D
:10333000D4230220074A084913681844884283BFEF
:103340000C22064B4FF0FF3010608CBF1A601846FD
:10335000704700BF0C220220003004206866022063
:1033600008B508B1FFF710FFFEE70120704708B568
:10337000FFF7F6FF012070477047704708B5FFF769
:10338000FBFF08BD08B5FFF7F8FF08BD0378DBB207
:1033900003F00303012B09D0037803F00302012A91
:1033A00004D043F0020303700120704700207047EF
:1033B000037823F0030343F0010303707047000018
:1033C00013B5044602F060FF034628B90090014699
:1033D00022460248FFF79CFF02B010BD1F0101808A
:1033E00002F05ABF02F058BF70477047074A0848BA
:1033F000936830B5191F03F59674C31A51F8045F2A
:10340000A1425D50FAD1906030BD00BF00ED00E0F8
:103410000020022008B5FFF7E9FF00F0A1FBFFF74D
:10342000E4FF08BD08B5FFF7DFFFBDE8084002F084
:103430007BBC000013B5FFF7E3FE4FF6FF730B4CA8
:1034400022889A4208D1FFF7E5FE002322880093E4
:1034500019460748FFF75CFF01212046FFF7F2FEFF
:1034600002B0BDE81040FFF7D5BE00BF44240220E3
:103470002301048037B50B4CFFF7C2FE258845B900
:10348000FFF7C8FE228800952B4629460648FFF71D
:103490003FFF01212046FFF7DFFE03B0BDE83040CB
:1034A000FFF7B8BE442402202401048070B504460E
:1034B000FFF706FE0646FFF7FEFD05463046FFF71E
:1034C000FAFD401BA042F9D370BD4FF47A73584304
:1034D000FFF7ECBF4A1C0B46017003D000211846D1
:1034E00000F036B8704790F9000000F06DB8202267
:1034F00090F9003003F01F0093FBF2F3DBB211B13F
:1035000001290CD0704701229B0003F1804303F591
:103510000E231968824021EA0201196070479B005E
:1035200003F1804303F50E231A6881401143F4E749
:1035300090F90030202003F01F0293FBF0F3DBB280
:103540005B0103F18043C9B203F50C239954704722
:1035500030B51B4D85B003460C462868696801AA42
:1035600003C22021A8680125106003F01F0293FB0D
:10357000F1F304A9DBB201EB430131F80C1C02EBBF
:103580004313080AC9B205FA01F14FF080458830AB
:1035900045F820104FF40051C5F82012094904F0F5
:1035A0000F0451F8232042F4807241F8232051F88F
:1035B000232022F00702144341F8234005B030BD18
:1035C0008064030000100040202310B500F01F04A9
:1035D00090FBF3F0C0B20A4A4001031952F82330BD
:1035E000012923F0300305D0022906D0204442F8F7
:1035F000203010BD43F01003F8E743F02003F5E757
:1036000000100040F0B50E4685B004463D493046F6
:103610001546FFF77DFB3C4907462846FFF778FB38
:1036200001463846FFF752FB206007280CD8DFE838
:1036300000F0043E444A50565C624FF4457000F07E
:10364000C5FA324801F037F901A801F0D1FA4FF478
:1036500016530193012320688DF80D308DF80C303E
:103660002B4B2C4A53F8200001A901F00AFB2549F5
:103670003046FFF709FB24492846FFF705FB721C7B
:1036800003D002213046FFF79FFF6B1C03D00221BD
:103690002846FFF799FF23683BB901221E4B2146BC
:1036A0001A601E48042202F00EFE05B0F0BD40F282
:1036B000153000F08BFA1A48C4E740F2163000F0DB
:1036C00085FA1848BEE740F2173000F07FFA164836
:1036D000B8E74FF4467000F079FA1448B2E740F2C8
:1036E000193000F073FA1248ACE740F21A3000F0DB
:1036F0006DFA1048A6E740F21B3000F067FA0E485A
:10370000A0E700BF186D0300F46C03000B0001007C
:10371000E86B0300001BB700482402206426022047
:103720000C0001000D0001000E0001000F0001005F
:103730001000010011000100120001000068034B9D
:10374000034A53F8200001F067BA00BFE86B03009A
:10375000001BB7000268044B53F82230D3F8040E64
:1037600000F02000704700BFE86B030010B504466E
:103770002046FFF7EFFF0028FAD02268034BC9B2BA
:1037800053F82230C3F8201E10BD00BFE86B0300C1
:103790002DE9F74F0F4680463F49384616461D46ED
:1037A0009DF93040FFF7B4FA3C4981463046FFF7B7
:1037B000AFFA3B4901902846FFF7AAFA39498246F9
:1037C0002046FFF7A5FA019B834619464846FFF7B6
:1037D0007DFA594681465046FFF778FA0146484639
:1037E000FFF774FAC8F8000008280DD8DFE800F0E9
:1037F0000521272D33393F454B004FF4457000F02C
:10380000E5F9294801F057F823493846FFF73CFA13
:1038100022493046FFF738FA21492846FFF734FAA3
:10382000631C36D020461F4903B0BDE8F04FFFF7B8
:103830002BBA40F2153000F0C9F91C48E2E740F21B
:10384000163000F0C3F91A48DCE740F2173000F0F8
:10385000BDF91848D6E74FF4467000F0B7F916489E
:10386000D0E740F2193000F0B1F91448CAE740F24D
:103870001A3000F0ABF91248C4E740F21B3000F0F8
:10388000A5F91048BEE74FF4477000F09FF90E48C5
:10389000B8E703B0BDE8F08F646C0300346C03003C
:1038A000946C0300C46C03000B0001000C000100C9
:1038B0000D0001000E0001000F00010010000100CA
:1038C00011000100120001001C0002002DE9F0436C
:1038D000C9B287B00746017199464E1E540802F0DE
:1038E0000105DFF86880684693B101F037F83B685E
:1038F00004F00104694658F823008DF804608DF83F
:1039000001408DF8025001F03BF807B0BDE8F083AC
:1039100001F008F80B4B04F001041B680A4A002B65
:10392000C8BF02933B68694658F823008DF80C60C5
:103930008DF802408DF803508DF8049001F0A2F844
:10394000E3E700BF4C240220001BB700086C030013
:10395000044B00681960044B044A53F8200001F03E
:1039600075B800BF4C240220086C0300001BB70090
:1039700038B505460368094C4FF4801254F823000B
:1039800089B201F00DF92B6854F82330D3F8042ED6
:103990005206FBD5D3F8300E80B238BD086C030058
:1039A0002DE9F84F0A9F804697423D4689461646C4
:1039B0009A46B8BF154600249DF82CB0AC4202DBF5
:1039C0002846BDE8F88FB442B4BF19F80410594630
:1039D0004046FFF7CDFFBC42B8BF0AF804000134EF
:1039E000ECE70000004870472C6C030037B500F08E
:1039F000B9F8174D04462B78C3B9684600F080FC2F
:103A0000144B6946B4FBF3F4013C0194124C20467C
:103A100000F058FC636843F002036360636823F0BE
:103A200002036360636843F0010363600B4B0C4A5D
:103A30009B68DA664FF400620A4B1A60064A5369C3
:103A400023F00103536101232B7003B030BD00BF8D
:103A50005024022040420F000090004000ED00E0A2
:103A6000C930030000E100E0014B9868704700BFD7
:103A7000009000401FB500210123019001AA0848D1
:103A80008DF808108DF809108DF80A108DF80B309C
:103A90008DF80C3000F040FC05B05DF804FB00BF71
:103AA00000900040024A536923F0010353617047BC
:103AB000009000400122014B1A60704700900040C6
:103AC0004FF40062014BC3F80021704700E100E0B1
:103AD0000A4B5A6822F001025A605A6922F0010228
:103AE0005A614FF40062064BC3F88020BFF34F8F3A
:103AF000BFF36F8F0022034B1A7070470090004095
:103B000000E100E05024022038B520250E4B0F4C78
:103B1000C3F8C8500E4800F093F80E4800F056F86D
:103B2000204600F08DF8204602F06EFB204600F0A3
:103B3000BBF800220121284600F06EF8064800F08C
:103B400045F8064B1C6038BD0000024000D8B8059F
:103B5000001BB700089110000894100010220220EA
:103B6000FFF7D2BF08B540F2044000F02FF8BDE8DF
:103B700008401A2000F0ECBA7047000008B5114B5D
:103B8000D3F8882042F47002C3F88820D3F8882044
:103B900042F00F02C3F88820D3F88C2042F4406230
:103BA00042F00302C3F88C20074A9A604FF080432A
:103BB0000022C3F808237822C3F82022FFF7DCFF95
:103BC00008BD00BF00ED00E000000300B0F1004FB1
:103BD00010B51DD002210F4CD0B1C0F30B039BB127
:103BE000DAB23F2A4FEA132308BFD4F8982003F132
:103BF000FF33DBB215BF9200134302F18042C4F8D9
:103C0000983018BFC2F8603201394FEA2030E3D152
:103C100010BD00BF0000024080002AB14FF00052EA
:103C200000F18043C3F8002300F1804021B94FF038
:103C30008043C0F8003370470139C0F80013704763
:103C4000154B984205D0154B984202D0144B984220
:103C50001FD14FF080434FF00062C3F84821C3F8F2
:103C60002822202203F50033C3F8C8200C4B9842C9
:103C70000C4B05D11A6942F080421A61002070474E
:103C8000064A90421A690CBF42F4004242F4804254
:103C9000F3E70120704700BF001BB700006CDC0297
:103CA00000D8B8050030014007EE900AF8EE677AB8
:103CB00008B517EE900AFCF77BFD0FA3D3E90023AC
:103CC000FCF7CAFDFCF7DAFF07EE900AFCEEE77A94
:103CD00017EE903A4FF08041082B28BF0823D1F807
:103CE00000241B0303F4F83322F4F8321343C1F821
:103CF000003408BDAFF30080C19D76BEC028783E79
:103D0000034B186A10F400001CBF024B1868704780
:103D10000030014014220220074BD3F8B8309B0634
:103D200007D4064B06481B6913F4804F08BF0020D8
:103D300070470020704700BF000002400030014083
:103D4000001BB7004FF08043D3F8183A024813F035
:103D5000400F08BF0020704740420F00034B186A15
:103D600010F080701CBF024B186870470030014093
:103D70001422022008B5FFF7E5FF4FF08043D3F887
:103D80008C3303F03F030133B0FBF3F008BD0000B8
:103D9000074BD3F8B8309B0607D4064B06481B697F
:103DA00013F0804F08BF002070470020704700BF0D
:103DB000000002400030014000D8B80508B54FF0BF
:103DC0008043D3F8E0121A4619B101290AD0002025
:103DD00001E0FFF7DDFFD2F8AC33DBB20133B0FB1B
:103DE000F3F008BD014B1868F5E700BF5824022026
:103DF000074BD3F8B820D3F89820D3F8B820D3F8DD
:103E0000983013F0010F14BF4FF4004000207047AA
:103E1000000002404FF08043D3F88422012A1BD0D7
:103E200003D3032A1BD1FFF7E3BFD3F880220AB9DB
:103E3000FFF772BFD3F88022012A01D1FFF78EBFAE
:103E4000D3F88022022A01D1FFF77CBFD3F8803259
:103E5000032B04D1FFF79CBF024B1868704700206A
:103E6000704700BF5824022008B54FF08043D3F8B4
:103E700088221946062A1DD8DFE802F0040D101327
:103E8000161C1900FFF7C6FFD1F88433DBB20133EB
:103E9000B0FBF3F008BD084B1868F5E7FFF75EFFCD
:103EA000F2E7FFF775FFEFE7FFF74CFFECE7FFF7EF
:103EB0009FFFE9E70020E7E75824022008B54FF00C
:103EC0008043D3F8A4221946012A0ED003D3022A34
:103ED0000ED0002001E0FFF79DFFD1F8943303F0EE
:103EE00007030133B0FBF3F008BD034B1868F4E798
:103EF000FFF74EFFF1E700BF5824022008B54FF04E
:103F00008043D3F8A8221946012A0ED004D3032AED
:103F10000ED1FFF73DFF01E0FFF77CFFD1F89833AA
:103F2000DBB20133B0FBF3F008BD024B1868F5E7D4
:103F30000020F3E75824022008B54FF08043D3F85F
:103F4000F8221946012A0ED004D3032A0ED1FFF716
:103F50001FFF01E0FFF75EFFD1F8BC33DBB2013396
:103F6000B0FBF3F008BD024B1868F5E70020F3E75B
:103F70005824022008B54FF08043D3F8F0221946A8
:103F8000052A18D8DFE802F0030C0F121715FFF707
:103F900041FFD1F8B433DBB20133B0FBF3F008BD1D
:103FA000064B1868F5E7FFF7D9FEF2E7FFF7F0FEDA
:103FB000EFE7034BF5E70020EBE700BF58240220B2
:103FC000542402204FF0804208B5AC3052F8203023
:103FD000062B28D8DFE803F0040811151C20230065
:103FE000BDE80840FFF716BFD2F8C4030F4AC0B2BD
:103FF000431C1068B0FBF3F008BDBDE80840FFF7B4
:104000008BBEFFF7C5FED2F88833DBB20133F1E790
:10401000BDE80840FFF796BE054B186808BDBDE82F
:104020000840FFF7E5BE002008BD00BF582402206D
:104030005424022010B50446FFF7C4FFA20002F189
:104040008042D2F82033D2F8202303F47F43D2B247
:104050000132B3FBF2F30133B0FBF3F010BD00000B
:104060004FF0804208B5D2F8D032062B25D8DFE8D1
:1040700003F0040811151C242000BDE80840FFF7D8
:10408000C9BED2F8C4030E4AC0B2431C1068B0FBCC
:10409000F3F008BDBDE80840FFF73EBEFFF778FE2D
:1040A000D2F88833DBB20133F1E7BDE80840FFF70F
:1040B00049BEBDE80840FFF79BBE002008BD00BF19
:1040C00058240220800000F1804000F51A704368F7
:1040D000062B12D8DFE803F0040611090B0D0F00C0
:1040E000FFF798BE064B18687047FFF751BEFFF701
:1040F00029BE044BF7E7FFF77BBE0020704700BFE7
:10410000582402205424022008B54FF0804300F1C7
:10411000980253F822300146012B10D003D3022B12
:1041200011D0002008BDFFF775FE890001F1804124
:10413000D1F80033DBB20133B0FBF3F008BDBDE8CA
:104140000840FFF7FFBDBDE80840FFF751BE000083
:1041500008B51F287CD8DFE800F010141F33232790
:104160002B7B2F464A373B3F424E505557595B5D9C
:104170005F6163676C6E70727479BDE80840FFF729
:1041800049BEFFF747FE4FF08043D3F88033DBB2E0
:104190000133B0FBF3F008BDBDE80840FFF764BE93
:1041A000BDE80840FFF78ABEBDE80840FFF7A6BE9D
:1041B000BDE80840FFF7A4BDBDE80840FFF7FEBD1D
:1041C000BDE80840FFF7E4BDBDE80840FFF7A4BD27
:1041D000BDE80840FFF7C2BD1E4B186808BDBDE82A
:1041E0000840FFF7C7BDBDE80840FFF7C3BEBDE804
:1041F0000840FFF7A1BE184BEFE70020BDE80840DC
:10420000FFF718BF0120F9E70220F7E70320F5E7E1
:104210000420F3E70520F1E70620EFE70720EDE7AC
:10422000BDE80840FFF71CBF0020BDE80840FFF7CD
:1042300049BF0120F9E70220F7E70320F5E7042052
:10424000F3E70020BDE80840FFF75EBF0120F9E773
:10425000002008BD582402205424022010F1800FB1
:104260000CD0002808DB0123420900F01F0003FAEC
:1042700000F0034B43F822000020704701207047F4
:1042800000E100E00E4B984212D003F580539842B3
:1042900010D003F5F83398420ED003F580539842BE
:1042A0000CD003F58053984214BF052004207047BA
:1042B000002070470120704702207047032070479C
:1042C0000080004070B50E460546FFF7DBFF012475
:1042D0004FF08041084B33F810301A0ADBB204FA71
:1042E00003F3883241F82230044B53F8200000F0E9
:1042F000E2FA7368EB6070BD506D0300606D0300FF
:1043000010B508220021044601F0E8FF00232370C5
:104310006370636010BD0000F8B50546FFF7B2FF9B
:1043200007234FEA410E6C690EEB0107BB4024EAFC
:1043300003031479167A07F1010C04FA0CF41C43F8
:1043400006FA07F31C435379023703FA07F73C4395
:104350006C6130240127EB6B04FA0EF423EA0404A9
:1043600093790EF1040E03FA0EF32343D4798F40B0
:104370008C4023EA07032343EB631368063145F8B7
:1043800021302F602EB1034B1856BDE8F840FFF7DF
:1043900065BFF8BD5A6D0300134B2DE9F04153F88A
:1043A000203006461D681D60104B1B5C43B9104B46
:1043B00053F820301B68ABB12846BDE8F0411847E0
:1043C00000240127DFF8288007FA04F32B4206D0E7
:1043D00058F8263053F824300BB12846984701345A
:1043E000072CF1D1BDE8F0813C6D03005C24022074
:1043F000642402200020FFF7CFBF0120FFF7CCBFCD
:104400000220FFF7C9BF0320FFF7C6BF0420FFF754
:10441000C3BF0000054B984206D003F51433984201
:104420000CBF012002207047002070470020084088
:104430002DE9F047FFF7EEFF002398424DD11E27EC
:1044400000264FF001094743DFF89480F31958F82C
:104450002340002C3CD0257BA3686A09583353F8CD
:10446000221005F01F0509FA05F529420BD0D4F8F2
:1044700000A043F82250BAF1000F04D0002301221B
:1044800061682046D047A368227B6033520953F805
:1044900022100D420BD0D4F800A043F82250BAF1FC
:1044A000000F04D0012361681A462046D047A36854
:1044B000227B4033520953F822100D4208D043F8B2
:1044C0002250256825B10223002261682046A847B2
:1044D00001361E2EBAD1BDE8F0870133ADE700BF2B
:1044E000782402200148FFF7A3BF00BF0020084046
:1044F0000148FFF79DBF00BF00700A400023064A35
:1045000052F82310884204D00133092BF8D100203F
:1045100070471846704700BF746D030070B50546BC
:104520000C46FFF7EBFF002832DB01264FF08041FD
:104530001A4B33F810301A0ADBB206FA03F388324A
:1045400041F82230164B53F8200000F0B4F954B172
:10455000042C16D8D5F8F83FE21C96401E4214BF32
:1045600001230023B3B1D5F8F83F1B0705D5D5F8D3
:10457000F83F03F00703A3420ED1C5F8F84F00201F
:1045800070BD052C06D1D5F8F83FC3F3C013E9E799
:10459000042070BD032070BD012070BD986D030024
:1045A000AC6D0300024B034A1B68116802481847B0
:1045B0008C2502206825022000600840024B034A37
:1045C0005B685168024818478C2502206825022044
:1045D00000700840024B034A9B68916802481847E4
:1045E0008C2502206825022000800840024B034AE7
:1045F000DB68D168024818478C2502206825022014
:1046000000900840024B034A1B6911690248184791
:104610008C2502206825022000A00840024B034A96
:104620005B695169024818478C25022068250220E1
:1046300000600940024B034A9B6991690248184790
:104640008C2502206825022000700940024B034A95
:10465000DB69D169024818478C25022068250220B1
:1046600000800940044A136843F001031360034BC0
:104670001B6803B11847704700200040B025022096
:10468000044A136843F001031360034B5B6803B1F2
:104690001847704700300040B0250220024B034A03
:1046A0001B68116802481847BC250220B825022063
:1046B00000D00240836A1B0E1CBFC26AC262184649
:1046C0007047000008B50848FFF7F4FF074B0146A4
:1046D0001B6A0BB108209847034B1A68D2075CBFCE
:1046E00001225A6208BD00BF00500040C0250220D0
:1046F00008B50848FFF7DEFF074B01465B6A0BB1C0
:1047000009209847034B1A68D2075CBF02225A62FD
:1047100008BD00BF00500040C025022008B54FF082
:104720004020FFF7C7FF074B01461B680BB1002075
:1047300098474FF040231A68D2075CBF01225A62A3
:1047400008BD00BFC025022008B54FF04020FFF78C
:10475000B1FF074B01465B680BB1012098474FF052
:1047600040231A6892075CBF02225A6208BD00BF4C
:10477000C025022008B54FF04020FFF79BFF074BF4
:1047800001469B680BB1022098474FF040231A68FE
:1047900052075CBF04225A6208BD00BFC025022038
:1047A00008B54FF04020FFF785FF074B0146DB6857
:1047B0000BB1032098474FF040231A6812075CBFE3
:1047C00008225A6208BD00BFC025022008B54FF07C
:1047D0004020FFF76FFF074B01461B690BB1042018
:1047E00098474FF040231A68D2065CBF10225A62E5
:1047F00008BD00BFC025022008B54FF04020FFF7DC
:1048000059FF074B01465B690BB1052098474FF0F4
:1048100040231A6892065CBF20225A6208BD00BF7E
:10482000C025022008B54FF04020FFF743FF074B9B
:1048300001469B690BB1062098474FF040231A6848
:1048400052065CBF40225A6208BD00BFC02502204C
:1048500008B54FF04020FFF72DFF074B0146DB69FD
:104860000BB1072098474FF040231A6812065CBF2F
:1048700080225A6208BD00BFC0250220012382B2F7
:10488000000C8000934000F18040C0F82031D0F847
:1048900000211342FBD07047012382B2000C80003C
:1048A000934000F18040C0F84031D0F8002133EA55
:1048B0000202FAD0704708B50146FFF7DFFFBDE8F6
:1048C00008400846FFF7E8BF014B02481B6818473D
:1048D000E825022000500840024B034A1B6811687B
:1048E00002481847F0250220EC25022000B00940BC
:1048F0000023064A52F82310884204D00133092BC2
:10490000F8D1002070471846704700BFD06D0300F3
:1049100010B50C46FFF7ECFF014B1C5410BD00BF57
:104920000626022010B518220021044601F0D6FC0C
:1049300001226270084A0023A2600722A374E37474
:10494000237563752370A370E370237122736373FF
:1049500023746374E38110BD20A1070010B50A22FF
:104960000021044601F0BAFC012307222370002332
:1049700022716370A370E37023726372E38010BDD1
:1049800070B50D46044600285CD000295AD002219B
:10499000FFF7C4FD064600284DD12046FFF7A8FFCB
:1049A000D4F80024EB8822F4736222F00D0203F4A1
:1049B00070631343AA78FF21120102F0100213431F
:1049C0006A78520102F020021343EA78D20002F022
:1049D00008021343C4F800342A791B4B03F8102053
:1049E000D4F8003E204643F44033C4F8003ED4F8E7
:1049F000003E43F00303C4F8003ED4F8082E2B7A9F
:104A000022F470221B0222F4706203F4706342F0FD
:104A100003021A436B7A1B0403F470231343C4F894
:104A2000083EFFF775FF2B783BB1D4F8003443F014
:104A30000103C4F80034304670BDD4F8003423F0CC
:104A40000103F6E70426F6E7F4250220A0B199B1A8
:104A500092B1B2FBF1F2013AB2F5803F0ED2D0F83A
:104A600024341B0C1B04C0F82434D0F824140A434B
:104A7000C0F82424002070470420704741F2E3501E
:104A800070470000F8B50D4617460446002800F0B0
:104A9000828000297FD0002A7DD00221FFF73EFDD1
:104AA0000646002870D13A46A9682046FFF7CEFF97
:104AB0000646002868D12046FFF71AFFD4F80034D4
:104AC000297823F47B63EA8923F00D0343EAC113B9
:104AD00002F4706243F004031343EA78FF211201E9
:104AE00002F010021343AA78520102F0200213438D
:104AF0002A79D20002F008021343C4F800342A7B5A
:104B0000264B03F8102003EB40006B7B4370D4F876
:104B1000003E204643F44033C4F8003ED4F8003E43
:104B200043F00303C4F8003ED4F8082E2B7C22F493
:104B300070221B0222F4706203F4706342F00302DD
:104B40001A436B7C1B0403F470231343C4F8083E20
:104B5000EB7C2A7D1B01120202F47062DBB213436C
:104B6000AA7C02F00F0213436A7D120392B2134330
:104B7000C4F80434FFF7CCFE6B783BB1D4F80034B2
:104B800043F00103C4F800343046F8BDD4F80034D3
:104B900023F00103F6E70426F6E700BFF425022020
:104BA0002DE9D84104460F469046FFF7A1FE0028A4
:104BB00017DB0D4E0D4916F8103008EA01011B06EF
:104BC00003F07063394306EB40061943737803F131
:104BD000100201239340DB4303F470231943C4F80C
:104BE000201EBDE8D88100BFF42502200000F0F0AF
:104BF00010B50C220021044601F070FB4FF4E133A4
:104C0000012223600023A27123716371E371237277
:104C10006372A372E37210BD2DE9F04150B349B342
:104C200042B30F264FF0FF353446AE460F01B2FBBC
:104C3000F7F808F1FF3CBCF5803F04F101030CD20A
:104C400003FB08F3B2FBF3F3994234BF5B1ACB1AB0
:104C500073453EBF654626469E46013C072CA7EBA2
:104C60000107E4D1B5F5803F07D2866205620020D6
:104C7000BDE8F0810420BDE8F08141F25160BDE85B
:104C8000F08170B50D461646044600285FD0002915
:104C90005DD0002A5BD00121FFF740FC002857D1EE
:104CA000324629682046FFF7B7FF002850D16B7ABB
:104CB000D3B1D4F8003E43F00113C4F8003ED4F859
:104CC000083E23F47063C4F8083EAB7AD4F8082E8B
:104CD0001B0203F470631343C4F8083ED4F8083E83
:104CE00043F00103C4F8083E2B7AD3B1D4F8003E58
:104CF00043F00213C4F8003ED4F8083E23F47023B6
:104D0000C4F8083EEB7AD4F8082E1B0403F4702391
:104D10001343C4F8083ED4F8083E43F00203C4F835
:104D2000083E2B79EA791B0103F0300343EAC233D2
:104D30006A7943F00103920102F040021343AA7919
:104D40000020920002F00C021343236070BD042087
:104D500070BD0000024B034A1B68116802481847E7
:104D6000142602201026022000E000400020704798
:104D7000A1F54031B1F5D02F34BF4FF400704FF0A2
:104D8000FF3070474FF4007070474FF44030704769
:104D90004FF4D02070470020704700004FF0FF33E1
:104DA00010B5094C0144884201D1D84310BD10F818
:104DB000012B5340082213F0010F4FEA530318BF91
:104DC0006340013AF7D1EEE72083B8ED48B143786C
:104DD000027843EA02228378C07843EA022340EA59
:104DE0000320704730B5002837D0002300251D432D
:104DF0002B0200250478002122024478144343EA60
:104E000014631D432B02002522028478144343EAD5
:104E100014631D432B0200252202C478144343EA85
:104E200014631D432B02002522020479144343EA34
:104E300014631D432B02002522024479144343EAE4
:104E40001463220284791D4314432B02C07943EA80
:104E5000146322021043194330BD0020002130BDED
:104E600030B10B0AC17083700B0C090E43700170D6
:104E7000704768B1110AC2718171110C120E027172
:104E80001A0AC37082701A0C1B0E417142700370B3
:104E9000704770B54B6845689D420FD100231A4694
:104EA000AB4203D150421043C00F70BD84688E687E
:104EB000E45CF65C013374402243F1E7012070BDED
:104EC00073B5054606200E461446FDF77FF910B966
:104ED000084802B070BDA3686A6801937368A96846
:104EE0000093B368FDF766FA40B20028F0D12023A2
:104EF0006360EEE70100435530B5016885B01F29B6
:104F0000044606D80E4D22680021A06801F0E6F99B
:104F100013E0806800F0E6FE0028F3D1094A01ABF7
:104F200007CA83E80700102219466260204622461D
:104F3000FFF7C6FF05460028E5D1284605B030BD7D
:104F4000010043558C64030070B50C46054608B952
:104F5000022070BD0029FBD06C21FFF71FFF064621
:104F600005F16C00FFF732FF8642F1D105F1080030
:104F7000FFF738FFC4E9000105F11000FFF732FF29
:104F80002022C4E9020105F1180104F1100001F02A
:104F90009AF9102205F1580104F1300001F093F95B
:104FA000002070BD38B50C46054600283AD00029CF
:104FB00038D00B686F2B35D970220021A06801F022
:104FC0008DF9A0681849FFF74BFFA0680221043053
:104FD000FFF746FFD5E90023A0680830FFF749FF37
:104FE000D5E90223A0681030FFF743FFA06805F160
:104FF00010012022183001F066F9A068102205F196
:105000003001583001F05FF96C21A068FFF7C6FE4F
:10501000A368014603F16C00FFF722FF7023002014
:10502000636038BD022038BDD4B3515AF0B50F4685
:105030009BB0064618B311B320250AAC00212A46BE
:10504000204601F04BF9002301A801950293039437
:10505000FFF752FF01B291B9E82312AC2A4620466D
:1050600004930593069601F039F907AA04A901A84B
:10507000079508950994FFF723FF00B208B10220B5
:1050800027E006F1E80307A904A80495059506930F
:10509000FFF7FFFE04460028F1D106F10800FFF7F4
:1050A000A1FEC7E9000106F11000FFF79BFE2A46AA
:1050B000C7E9020106F1180107F1100001F003F938
:1050C000102206F1A00107F1300001F0FCF82046A3
:1050D0003C641BB0F0BD000038B514681546002CC8
:1050E0000ADB6FF00042944206D08C4201D220B11C
:1050F00003552B6801332B6038BD19460148FEF774
:1051000035FBF6E7182602202DE9F04387B0DDE9EC
:105110000E6756EA070305468846914605D13023B7
:1051200007B0BDE8F043FFF7D7BF1822002168465B
:1051300001F0D4F80024304639460A220023FBF758
:10514000EDFD30320DF804200023304639460A22A6
:10515000FBF7E4FD06460F4656EA070304F1010497
:10516000E9D1013C1DF804304A4641462846FFF784
:10517000B3FF002CF5D107B0BDE8F0832DE9FF4760
:1051800006460F46904607254FF00009DDE90C0161
:10519000EA00FBF791F9C0B2B9F1000F01D100B9F3
:1051A0003DBBEC46164B020900F00F0403F1100A58
:1051B000E646186859680833AEE803005345F446DC
:1051C000F6D1B9F1000F00D142B104AB1A4412F884
:1051D000103C394642463046FFF77EFF04AB1C4484
:1051E00014F8103C424639463046FFF775FF4FF041
:1051F000010915F1FF35C9D204B0BDE8F08700BF41
:1052000098640300FFF768BF2DE9F04F1C469F4BE1
:1052100093461A7887B006460D465AB100221E21E1
:105220001A709B481D22FEF7EDF94FF4E1319848C2
:10523000FEF784FA00230593BBF1000F00F0BE8057
:105240009D42C0F2BB8008BF01234FF0000818BF89
:1052500005F1FF3503931BF80830002B00F0AD80FB
:10526000252B40F0B18008F101071BF80730791CAD
:105270004BB1A3F12302D2B2162A04D8854820FAF2
:1052800002F2D2070CD41BF80120002A00F0B680ED
:10529000682B07D1682A00F0AC8002230F46BDE0DE
:1052A0000F46E2E76C2B40F0EE806C2A00F0A48001
:1052B0000323F3E7012B04F1040A226805D0022B33
:1052C00006D090464FEAE879BBE04FFA82F8F9E75A
:1052D0000FFA82F8F6E7B9F1750F03D009F0DF0293
:1052E000582A24D1042B12D1073424F0070404F1E6
:1052F000080AD4E90023B9F1750FCDE90023294646
:1053000005AA304600F0B180FFF738FFAFE0022B6E
:1053100004F1040A226806D0072B06D0012B08BF2F
:10532000D2B20023E7E792B2FBE7D317E3E7B9F184
:10533000630F08D1237805AA2946304604F1040AF0
:10534000FFF760FF93E0B9F1730F0ED104F1040A87
:105350002468013C14F8013F002B00F0888005AA66
:1053600029463046FFF7B8FEF4E7B9F1700F1FD1B8
:10537000302305AA2946304604F1040A2468FFF7C1
:10538000ABFE782305AA29463046FFF7A5FE224644
:10539000E317CDE90023294605AA3046B4E71BF8F8
:1053A000083005AA29463046FFF72CFF08F101080E
:1053B000B845F4D3B9F1000F04D16EB9059807B020
:1053C000BDE8F08F1BF8083005AA29463046FFF7E4
:1053D00019FFA24647464AE0039B002BEED1059BEE
:1053E0009D422BBF9DF80C209DF80C30F254735554
:1053F000E4E70123023711E00423FBE773B1682BD4
:105400003FF44BAF6C2B3FF453AF6A2B33D07A2B66
:1054100033D0742B33D04C2B33D000231BF80790A0
:10542000B9F1640F03D0B9F1690F7FF454AF042BC5
:105430007FF440AF073424F0070404F1080AD4E9EC
:105440000089B8F1000F79F1000309DA2D2305AACC
:1054500029463046FFF740FED8F1000869EB4909BC
:1054600029463046CDE9008905AAFFF74DFE07F130
:1054700001085446EFE6052310E706230EE707234D
:105480000CE708230AE7002BC8D0BEE71822022049
:105490001826022001ED7F000FB407B504AB53F8C6
:1054A000042B6FF0004100200193FFF7ADFE03B025
:1054B0005DF804EB04B07047014B186000207047A2
:1054C0001C26022008B5044B1B6813B11B689847C3
:1054D00008BD022008BD00BF1C260220044B10B5E9
:1054E0001B681BB112B19B69984710BD022010BD0B
:1054F0001C26022008B5044B1B681BB110B11B6AA7
:10550000984708BD022008BD1C26022008B5044BA0
:105510001B681BB111B15B6A984708BD022008BD2A
:105520001C26022038B5054678B100F007F904467C
:10553000284624B200F032F82CB900B2002814BF7B
:105540000420002038BD042038BD022038BD0000F2
:10555000024B1B6803B11847704700BF202602208A
:1055600010B5A0B999B192B16FF07C44094B1B689A
:10557000B4FBF3F404FB03340C600749B1FBF3F113
:105580005943091BB1FBF3F14B43136010BD0220DB
:1055900010BD00BF2C26022000FC050470B5054696
:1055A00008B9022070BD00F08DF8044600F092F8B2
:1055B0000B4E306000F098F840F22712094B18604B
:1055C0003368B2FBF3F202FB0333074A1360002C8B
:1055D000E7D1064B20461D60FFF7BAFF204670BD9D
:1055E000282602202C260220242602202026022003
:1055F0007FB50E46144652B3936843B34FF0FF3362
:1056000004AA42F8043D02A90293FFF7A9FF6368C8
:10561000054633B10F4A013B1268B3FBF2F303FBBB
:10562000022322689A420FD30B4A1168029A009310
:105630000A44A0683244002300F060F8044618B918
:105640000420FFF785FF2546284604B070BD0225DB
:10565000FAE700BF28260220242602202DE9F04187
:1056600084B0022402AF0E4629B34FF0FF3307F196
:10567000080242F8043D39463B60FFF771FF104BCA
:10568000E84619680446CB1D23F00703ADEB030D74
:1056900002AD3A6800230091284600F02FF848B97F
:1056A00031462846FFF7C2FC03B2044613B907206F
:1056B000FFF74EFFC54620460837BD46BDE8F081DE
:1056C00024260220024B186803689B68184700BF15
:1056D0003026022008B5034B186803689B6A984778
:1056E00008BD00BF3026022008B5034B18680368C8
:1056F000DB6A984708BD00BF3026022037B506494F
:10570000069D0C6821680095002501954D690146AC
:105710002046A84703B030BD3026022008B5FDF76B
:105720004DFA014B186008BD30260220024B1B6861
:1057300003B11847704700BF3426022038B505462C
:1057400000F05CF8044628B9034B1D60FFF7EEFF3C
:10575000204638BD0224FBE734260220F0B505467A
:105760009FB018B9022420461FB0F0BD00230822C4
:105770004FF4603168460093019300F049F8042427
:105780000646D8B96846FFF721FB07460DEB040033
:10579000FFF71CFB022811D10F4B70229F4208BF5C
:1057A0000024314602A800F099FD3CB970224FF464
:1057B000603102A800F02CF838B1042423B2002B89
:1057C000D1D10620FFF7B2FFCDE7294602A8FFF7A7
:1057D000BBFB0446F2E700BFD4B3515A38B50546C7
:1057E000006848B9286838B915F1080402D0204685
:1057F000FCF707FA2C60204638BD000008B50348C6
:10580000FFF7ECFFFCF712FA002008BD3826022053
:1058100070B50D46164604460448FFF7DFFF3346D1
:105820002A462146BDE87040FCF732BA38260220ED
:1058300008B50348FCF7FAF9B0FA80F0400908BD52
:10584000482602200148FCF70BBA00BF4826022078
:1058500010B580B14FF0FF33084C2360FFF74AFECC
:1058600000B240B92068421C01D130BFFDE7831F60
:105870005842584110BD002010BD00BF1C2202201C
:105880002DE9F0430446A5B018B9012025B0BDE8C4
:10589000F083FFF7DDFF0028F7D0D4E9022313439C
:1058A00046D04FF0000809A8FCF7E2FD002109A846
:1058B000FCF73CFE2022002101A800F00FFD1D4F47
:1058C000A568DFF87490EDB1B8F1000F1AD1B5F505
:1058D000804F2E4628BF4FF48046A268334602F51B
:1058E0006132521B39464846FCF7D2F939468046A8
:1058F000324609A8FCF7F9FEA168AD1B481B00F071
:10590000B5F9E0E701A909A8FCF785FF103409A85B
:10591000FCF7B2FD202201A9204600F0C5FC0028BA
:10592000B4D0204600F07EF901A800F07BF9ACE786
:105930000220ABE76826022048260220F8B504467C
:105940004FF0FF30084E6718BC420CD2214630465B
:10595000FCF75BF92146054602463046FCF726FA7D
:1059600008B92C44F0E7F8BD48260220F8B50546F2
:105970000446064E4718BC4205D221463046FCF785
:1059800044F90444F7E7601BF8BD00BF4826022035
:1059900070B5702105464FF46030FFF7E7FF00F562
:1059A0006033B3F5613F014608D24FF46030FFF732
:1059B000C5FF98B92E464FF4613403E04FF46034CC
:1059C00005F5806631462046FFF7D0FF0B4B0219E4
:1059D0009A4207D831462046FFF7B0FFB0FA80F070
:1059E000400970BD4FF4B823A2F56132294604483E
:1059F000FFF752FD4FF0FF30F0E700BF0044090011
:105A0000156E030030B5044685B0002841D021480A
:105A1000FCF7F9F800F16F05B5FBF0F5702145438F
:105A20004FF46030FFF7A2FFB5F5804F024607D96B
:105A30004FF4804229461848FFF72EFD30BFFDE79E
:105A4000854205D929461548FFF726FD30BFFDE7F9
:105A50002A46FF21124800F041FC124A01AB07CA56
:105A600083E8070019462046FFF79CFA00B270B998
:105A7000029B702B09D12B464FF460320849054830
:105A8000FCF720F9B0FA80F0400905B030BD0020E5
:105A9000FBE7FAE748260220356F03006E6F03002C
:105AA00068260220A86403002DE9F04F834687B0E2
:105AB0008A46002972D03A48FCF7A5F84FF46131C4
:105AC000B1FBF0F444430C1B054605D002463548B3
:105AD000FFF7E2FC30BFFDE7334B274605934FF459
:105AE0008043B3FBF0F34343304E03934FF0000980
