:1000000000000420451200007D1200007F12000055
:100010008112000083120000851200000000000021
:100020000000000000000000000000008712000037
:1000300089120000000000008B1200008D120000E9
:10004000953300008F1200008F1200008F12000005
:100050008F1200008F1200008F1200008F1200001C
:100060008F1200008F1200008F1200008F1200000C
:100070008F120000293500008F1200008F1200003F
:100080008F1200008F1200008F1200008F120000EC
:100090008F1200008F1200008F1200008F120000DC
:1000A0008F1200008F1200008F1200008F120000CC
:1000B0008F1200008F1200000000000000000000FE
:1000C0008F1200008F1200008F1200008F120000AC
:1000D0008F1200008F1200008F1200008F1200009C
:1000E0008F1200008F1200008F120000000000002D
:1000F000000000008F120000000000008F120000BE
:1001000010B5054C237833B9044B13B10448AFF351
:1001100000800123237010BDB80200200000000001
:100120008C49000008B5034B1BB103490348AFF3EA
:10013000008008BD00000000BC0200208C490000C7
:10014000154B002B08BF134B9D46A3F5803A0021A9
:100150008B460F461348144A121A03F0E5FF0F4B63
:10016000002B00D098470E4B002B00D09847002062
:10017000002104000D000D48002802D00C4800F0BA
:100180000FFE03F067FF2000290000F053FE00F08F
:1001900004FE00BF00000800000004200000000072
:1001A000ED0D0000B802002000080020A10D0000A5
:1001B0000000000070B5074C26684EB9282000F0FA
:1001C000FBFD4FF480120546314601F01DF8256015
:1001D000206870BDD802002038B50C4D2A787AB955
:1001E0000B4C236813B9FFF7E5FF2060206800B9C6
:1001F000FEE703689B68984720B901232B7038BD40
:100200000020FCE76FF02200F9E700BFD4020020D5
:10021000D802002070B50B4E327872B10A4C2068BB
:100220000368DB6898470546206810B103685B687F
:1002300098470023236033700DB9002070BD6FF024
:100240002800FBE7D4020020D8020020094B37B574
:100250001C6804B9FEE700232568CDE900230A469F
:100260006D6901462046A847002818BF6FF023009B
:1002700003B030BDD8020020054B10B50446186805
:1002800000B9FEE703685B6A98472060002010BD54
:10029000D8020020054B10B50446186800B9FEE7E7
:1002A00003689B6A98472060002010BDD802002098
:1002B0007047000038B5064D2C683CB1606A03F009
:1002C000F5FE204603F0F2FE00232B6038BD00BF90
:1002D000DC0200200268034602B9FEE7024A006819
:1002E000596803C2704700BFE0020020094B1B6839
:1002F00007B553B94FF4F0234FF408200093FFF7EC
:10030000D7FF01906846FFF7E5FF024803B05DF8AC
:1003100004FB00BFE00200202DE9F047494B914665
:1003200012781C6806460D469A462AB9606A096822
:10033000A269014403F0D0FEA269636A13443360EA
:100340000023E26A89F80030E369D21A23699A42ED
:1003500028BF1A462A601AB900273846BDE8F08738
:1003600063692168A768013B1A44B2FBF1F202FB02
:100370000118FFF7BBFF4468FFF7B8FF0368474465
:100380001C44A7425AD8DAF80030306899684246CF
:10039000FFF75CFF07460028DFD1DAF8004094F849
:1003A000993003F00303022B10D133681A46591C0D
:1003B00032F8020B32602A68134401333A468B420A
:1003C00037D182421CBF012389F80030A26899F816
:1003D00000304244A260002BBED12A68E369216A42
:1003E0001344E3612A68B2FBF1F301FB132313B951
:1003F000A369002BB0D060693168081A03F07AFE57
:10040000636AA26933602B68134422692B609342AC
:10041000226A06D3B3FBF2F102FB11315B1AA16130
:100420002B602B68013BB3FBF2F303FB02222A6033
:1004300093E711F801CF624492B2C0E76FF023074F
:100440008BE700BFDC0200202DE9F0431324B4FB4E
:10045000F1F404FB0114142C87B08046174699462A
:1004600007D9204603F01AFE054618B96FF0210699
:100470002DE001ADD8F8001022462846FFF7E6FE31
:10048000064640BB2B464A4605F1100E9C46BCE88A
:100490000300F44510605160634602F10802F5D193
:1004A000DCF800001060D9F800200E4B9A4215D1FC
:1004B000621EB2FBF7F202FB0777D8F80020174460
:1004C000C8F80070142C02D9284603F0EFFD30461E
:1004D00007B0BDE8F0836FF02306F3E76FF02B065B
:1004E000F0E700BF014ED5FE2DE9F74314464FF06B
:1004F0009F08B8FBF1F202FB01120546104699462F
:10050000019203F0CBFD064630B3019A2968FFF74C
:100510009DFE0746C8B94A46A021304600F088F93A
:10052000074690B9B9F872302A6803F17001A02922
:100530008BBF6F33B8FBF4F8B3FBF4F308FB044450
:1005400088BF03FB044414442C60304603F0AEFD26
:10055000384603B0BDE8F0836FF02107F8E70000EC
:100560002DE9F041464C236886B00746884615467B
:100570002646002B5ED1C821012003F063FD2060D8
:1005800028B96FF02104204606B0BDE8F081FFF7DE
:1005900073FE044600286AD130680430FFF77AFE03
:1005A0000446002863D1FFF7A1FE3168436808467E
:1005B000D1E9001240F8083F01ABFFF745FF0446C0
:1005C000002854D1404603F081FE4146024602A86D
:1005D00003F084FE002848D13068D0E9001200F111
:1005E00028030830FFF780FF044600283FD1326817
:1005F00092F89900C1073DD4002F3BD1830718BF63
:10060000B2F89C10136808BF4FF480610139B1FB48
:10061000F3F101FB0333B3FBF5F105FB113101B13C
:10062000FEE710F0020F18BF02215B1A13619368F6
:100630005161D3603468E368A3600023C4E90633E2
:10064000606A256203F032FDD4E90410236AB1FB2D
:10065000F3F203FB1212084402B1184403F01EFD2A
:10066000606250B96FF0210401E06FF02604FFF7DB
:1006700021FE88E76FF01804F9E7002483E700BF44
:10068000DC0200202DE9F0438DB09846149D002334
:10069000CDE9013381460E46174603938DF80330AA
:1006A00005B9FEE7FFF706FE012239463046FFF79F
:1006B00057FF0446002831D1B9F1270F39D003A8DC
:1006C00000F082F8044648BB0DF1030201A902A81C
:1006D000FFF722FE044608BB9DF80330B3B1019B2F
:1006E000002BF1D1039804A900F08EF80446A8B9B4
:1006F00003A800F091F8334B19682022383104A880
:1007000003F0DCFCA8B16FF0190407E0DDE901217A
:10071000039800F071F804460028E0D0039B13B161
:1007200003A800F079F8FFF7C5FD20460DB0BDE83D
:10073000F0834246012A4FF0000338BF01223946B8
:10074000304601938DF80330FFF70AFF0446002876
:10075000E4D11C4E0146182204A803F0E5FC3368DE
:100760008DF810402833089304A8A84704460028B1
:10077000D4D10DF1030201A902A8FFF7CDFD044673
:100780000028CBD19DF803307BB901238DF81030C0
:10079000019B0593029B079304A8A84704460028E1
:1007A000BCD1069B019A134406933368069ADB6A10
:1007B0009A42DED302238DF8103004A8A8470446DD
:1007C000ACE700BFDC02002070B5002606600546DD
:1007D000682003F063FC044640B102F0BAFF3146E2
:1007E000204602F0BFFF20B92C6070BD6FF02100E1
:1007F000FBE76FF02A00F8E708B503F0B3F800282C
:1008000018BF6FF02A0008BD08B503F009F90028E9
:1008100018BF6FF02A0008BD10B50446006830B15B
:1008200002F09BFF206803F041FC0023236010BD11
:1008300008B513460146A022184603F04DFC044BB0
:1008400002689A4214BF6FF02800002008BD00BF64
:10085000A353025C002070470020704703460068E5
:1008600018B9186808B9181D1860704700F0DCBE88
:1008700000F0CABE00F0DABE00F0BEBE00F0D8BE86
:1008800038B505460A48FFF7E9FF284600F03AFE6A
:10089000044650B9284600F0C7FE00F09FFA686091
:1008A0000348FFF7DBFF204638BD4FF0FF34F7E782
:1008B000E802002038B505460948FFF7CFFF284673
:1008C00000F03EFE041E686818BF0124644208B1AF
:1008D00000F088FA0248FFF7C1FF204638BD00BF8C
:1008E000E802002073B50A4E0D4604463046CDE9B5
:1008F0000032FFF7B3FF009B01992A46204600F023
:10090000CBF804463046FFF7A9FF204602B070BD81
:10091000E80200202DE9F74F14460F460646994697
:1009200000F082FE0546304600F066FE8346304603
:1009300000F07CFE0090304600F07AFEB4FBF5F14A
:1009400005FB11488246B8F1000F5DD1002F5BD046
:10095000009A09EB04030BEB0200834254D82C48A5
:10096000FFF77CFF4146B9F1000F44D0002940D188
:100970002146304600F048FEB4FBF0F800FB184872
:10098000A0EB0808C84528BFC846BB0701D1A84549
:1009900028D2A84528BFA84670684246394603F0C9
:1009A0009BFBA84506D27068A5EB0802514640445F
:1009B00003F0BAFB72682B464FF0100B214630460D
:1009C000CDE9002300F0E0FD014630B1BBF1010BA1
:1009D000DDE90023F2D14FF0FF31A9EB08094444CF
:1009E0004744C0E7B8FBF5F805FB08F398463A46DC
:1009F000E2E74FF0FF3106480091FFF72FFF009923
:100A0000084603B0BDE8F08F4FF0FF31F8E700BFB4
:100A1000E80200202DE9F0410D461646074600F099
:100A2000EBFD0446384600F001FE2044AC19A0421C
:100A300004D24FF0FF342046BDE8F08119D81548A4
:100A4000FFF70CFF00240EB3F4B94FF0100829464D
:100A5000384600F077FD044620B1B8F10108F6D120
:100A60004FF0FF342946384600F0CEFD361A0544D3
:100A7000E9E72146384600F0C7FDB4FBF0F101FB81
:100A800010400028D5D1DAE74FF0FF340148FFF7D6
:100A9000E5FED0E7E802002008B510461A4603F04C
:100AA0001BFB002008BD000037B50D4690F9003053
:100AB0000124AAB11F2B86BF0F4A03F01F034FF07A
:100AC000A04204FA03F3C2F808350121019000F0B6
:100AD000F7FE0198294603B0BDE8304000F0DCBEC7
:100AE0001F2B86BF044A03F01F034FF0A04204FAF5
:100AF00003F3C2F80C35E8E70003005037B50D46A4
:100B00000446019200F0B0FE013507D0019A0021A1
:100B1000204603B0BDE83040FFF7C6BF03B030BD8C
:100B20000022FFF7EBBF03F067BB03F015BB03F038
:100B300003BB0000F0B572B6224A234F00231360B6
:100B40004FF0E0224FF0FF36516801F00F01013104
:100B50001D469A0002F1604202F561424FEAC30C61
:100B6000C2F88060C2F88061002202EB0C043C44B1
:100B70000132082A84F80053F7D101339942E8DCA6
:100B8000124B4FF020625A6040F2FA529860DA60DD
:100B900000221D6111469C1801320C2A2176FAD1DF
:100BA0004FF0FF3259629A62094ADA621F221A63D1
:100BB000D0E90031002282F314889D4682F3108828
:100BC0000847F0BD10E000E000E100E000ED00E0CB
:100BD000020000C003460122D3E84F0FC3E8412FB3
:100BE000C0B20029F8D17047034653E8000F401AFD
:100BF00043E80002002AF8D170470346D3E84F0FBC
:100C0000C3E8421FC0B2002AF8D17047EFF310804A
:100C1000C04300F001007047EFF30580003818BFB3
:100C20000120704708B500F05DFC024A13680133EB
:100C3000136008BDF0020020044A136823B1013B91
:100C400013600BB900F056BC704700BFF0020020E3
:100C500008B50B48FFF7BEFF28B1FFF7E3FFBFF36E
:100C60004F8F20BFFDE7FFF7D7FF08B103F08EF9E4
:100C7000FFF7CCFF0028F9D0012000F08EF800BF6C
:100C80003003002070470000F0B5254D8FB035EAE5
:100C9000200528BF05460E4617460021302202A82F
:100CA00003F042FA1F4B01952B44012B01AC039634
:100CB00005D91D4B9D4202D0033B9D4229D1F36BC8
:100CC0000293736B0893FFF7ADFF184A1368013363
:100CD000012B136009D126460FCE154D0FC50FCE3F
:100CE0000FC50FCE0FC533682B600FCC114D0FC54C
:100CF0000FCC0FC50FCC0FC523682B600E4B1B68A4
:100D0000A5F1300043B19847FFF796FF00200FB0E0
:100D1000F0BD02970894D6E7FFF7B4FFF4E700BFF1
:100D20000101FF80C2FE007F4001FF80F40200202D
:100D3000FC02002034030020F8020020002070474D
:100D400008B504460121064876461546FFF755FFCB
:100D500020B9324629462046FFF796FFFFF778FF75
:100D6000E8070020074A084913681844884289BFE9
:100D7000064B10600C224FF0FF308CBF1A601846F3
:100D8000704700BF0002002000F00320FC07002095
:100D900008B508B103F0FAF8FEE708B5FFF7F8FF69
:100DA000012070477047704708B5FFF7FBFF08BD8B
:100DB00008B5FFF7F8FF08BD1FB5039003F06EF903
:100DC000039A034620B9009001460348FFF7B8FF95
:100DD00005B05DF804FB00BF1F010180FFF7ECBF09
:100DE00003F064B903F062B97047704708B5094B66
:100DF000094A1A60094B9B1A094A1360094B0A4AAF
:100E00001A600A4B9B1A0A4A136000F0CFFDFFF7E5
:100E1000ECFF08BD7403002000F003200000042054
:100E2000700300206C0300200008002000F0032065
:100E30006803002008B5FFF7D7FFFFF77FFFBDE885
:100E4000084003F0A5B8002070470020704701203B
:100E500000217047D0E90601704700000048704744
:100E6000104600002DE9F04F85B0DDE90E6A154609
:100E70000446D0E9048904301F46FFF7FBFCAB1998
:100E8000009347EB0A030193236883469B6B20463C
:100E90009847DDE90023994208BF904203D2002021
:100EA00005B0BDE8F08F18EB0503029349EB07038B
:100EB0000393DDE902892368B8EB0B08196B2A4616
:100EC0003B46204669F10009884702460B464046EA
:100ED000494603F015FA1343E1D12368196B009BCF
:100EE00018EB060649EB0A0A13F1FF32019B204674
:100EF00043F1FF33884702460B463046514603F024
:100F0000FFF913430CBF01200020C9E7F0B590F8AA
:100F1000207085B0DDE90A6C0446039115467FB167
:100F20000768CDE9006CFF6BB84748B122690399A7
:100F300033462A44201D05B0BDE8F040FFF7D2BC7F
:100F40006FF47A6005B0F0BDF0B590F8207085B010
:100F5000DDE90A6C0446039115467FB10768CDE9C7
:100F6000006C3F6CB84748B12269039933462A4464
:100F7000201D05B0BDE8F040FFF7CCBC6FF47A60EF
:100F800005B0F0BDF7B590F82010DDE9086704461C
:100F9000154671B10168CDE90067496C884740B1D9
:100FA000216932462944201D03B0BDE8F040FFF717
:100FB00031BD6FF47A6003B0F0BD08B590F8203011
:100FC00023B10430FFF752FC002108BD1846FBE7AF
:100FD00008B590F820301BB10430FFF74FFC08BD76
:100FE0004FF0FF30FBE72DE9F0471E4603689B6A90
:100FF0001546DDE9087A0446984702460B4628461E
:10100000314603F07DF9134302D00020BDE8F0879C
:10101000236820469B6A984702460B46384651464D
:1010200003F06EF91343F0D1236815EB07089B6BAF
:10103000204646EB0A099847494508BF40452CBF62
:1010400001200020E2E708B590F820302BB10169BB
:101050000430FFF70DFC002108BD1846FBE708B57A
:1010600090F8203033B1016904301144FFF700FCDF
:10107000002108BD1846FBE72DE9F0471E4603682E
:101080005B6A1546DDE9087A0446984702460B4636
:101090002846314603F034F9134302D00020BDE85E
:1010A000F087236820465B6A984702460B4638461D
:1010B000514603F025F91343F0D1236815EB0708D7
:1010C0009B6B204646EB0A099847494508BF4045B7
:1010D0002CBF01200020E2E790F820302DE9F347F3
:1010E000044603B9436204F1240959E8001F0131A1
:1010F00049E80015002DF8D101290BD104F10408AD
:1011000040460191FFF7BCFB0199054630B14846C6
:10111000FFF76AFD284602B0BDE8F087D4E9042055
:10112000A36901919E18E36943EB00074046FFF76E
:10113000A3FB82464046FFF79DFB00235044BB4281
:1011400008BFB042019905D24846FFF74DFD6FF444
:101150007A65DFE7D4E9046740460191FFF78AFB2F
:1011600000239F4208BF86420199EDD3D4E90423AE
:10117000134304D14046FFF77DFBC4E90405D4E9DD
:101180000623134312D14046FFF776FB064640463E
:10119000FFF770FB8219D4E904104FF0000343F10C
:1011A0000003511A63EB0000C4E90610012384F820
:1011B0002030AFE790F8203010B5044613B94362F1
:1011C000002010BD01212430FFF70EFD0028F7D1CB
:1011D00084F82000201DBDE81040FFF76BBB000025
:1011E00010B5034B03600446FFF7E4FF204610BD33
:1011F0002446000010B50446FFF7F2FF20462821E0
:10120000FFF7EEFD204610BD13B50C4C0460002422
:10121000C0E904140131C0E90144C0E9062480F8A2
:101220002040446200D032B90023054800941A4699
:101230001946FFF785FD02B010BD00BF244600002F
:101240000101FF800749084A084B9B1A03DD043B54
:10125000C858D050FBDC06488047064880470648FF
:10126000004700009849000000020020B80200205A
:10127000C11200008119000041010000FEE7FEE7F5
:10128000FEE7FEE7FEE7FEE7FEE7FEE7FEE7FEE736
:10129000024B103043F82010704700BF00000020C0
:1012A000054B1B68082B01BF044B1868B0FA80F08F
:1012B000400918BF002070473001001034010010B1
:1012C00008B5FFF7EDFF40B14FF080430022C3F8AF
:1012D0000C21C3F81021C3F83825FFF7E1FF0028DF
:1012E00046D04FF08052714BD2F80414C3F8201549
:1012F000D2F80814C3F82415D2F80C14C3F8281532
:10130000D2F81014C3F82C15D2F81414C3F8301501
:10131000D2F81814C3F83415D2F81C14C3F84015C9
:10132000D2F82014C3F84415D2F82414C3F8481591
:10133000D2F82814C3F84C15D2F82C14C3F8501561
:10134000D2F83014C3F85415D2F83414C3F8601529
:10135000D2F83814C3F86415D2F83C14C3F86815F1
:10136000D2F84014C3F86C15D2F84424C3F87025A1
:10137000FFF796FF10B14E4B4E4A1A60FFF790FFF1
:1013800018B14D4BFB22C3F81825FFF789FF48B170
:101390004A494B4B0A681B6822F00F0203F00F0307
:1013A00013430B60FFF77CFF18B1464B4FF40072FC
:1013B0001A60FFF775FF48B14FF08043D3F800245F
:1013C000D20744BF6FF00102C3F800243E4AD2F8AE
:1013D000883043F47003C2F88830BFF34F8FBFF3F7
:1013E0006F8F4FF01023D3F80022002A03DBD3F8CD
:1013F0000432002B2FDA354B0122C3F80425D3F831
:101400000024002AFBD04FF010221221C2F8001253
:10141000D3F80024002AFBD04FF010231222C3F887
:1014200004222A4B1A46D3F800140029FBD00021CD
:10143000C3F80415D2F80034002BFBD0BFF34F8F54
:101440002149234BCA6802F4E0621343CB60BFF327
:101450004F8F00BFFDE71F4B1F4A1A604FF08043BC
:1014600001220021C3F81825C3F804119A60D3F8AB
:101470000421002AFBD01949CA6842F08072CA6070
:10148000D3F85C2542F48032C3F85C25D3F85C25A0
:1014900042F00302C3F85C254FF0A04340F2013252
:1014A000C3F848270E4B00221A6108BD00C0004057
:1014B0008C5600404881030000F00040E40E0040DC
:1014C000580200104096024000ED00E000E00140AC
:1014D0000400FA05040200200090D003F0ED00E0C3
:1014E000000004E0024803780BB100F0C7BE70476B
:1014F00008020020024B012200201A7000F0CCBE2E
:10150000080200200B4B187810B5002288B10A4859
:101510001A704FF08051C2604C690B6907496343F0
:10152000C0E90122036101F072FB003818BF0120FD
:10153000404210BD090200209002002090460000A9
:10154000002070472DE9F0410E4602F043F8DFF825
:1015500034800B4F0546002301223146404601F0FE
:1015600092FB044602F036F8401BB84201D8042C26
:10157000F1D0201E18BF01204042BDE8F08100BF1D
:101580003F0D0300900200202DE9FF470E465AB39D
:1015900023F00303DFF85890DFF858A0171F5D18F9
:1015A0000E24AE4206D1201E18BF0120404204B0D6
:1015B000BDE8F08757F8043F039302F00BF880462C
:1015C0000023009303AA04233146484601F02DFB73
:1015D000044601F0FFFFA0EB0800504501D8042CA1
:1015E000EED00436002CDCD04FF0FF30DFE700BF38
:1015F000900200203F0D0300024BD3E90330C01AD4
:10160000704700BF90020020064BDA688A4205D876
:101610001A698A4202D95B68186870474FF0FF3038
:10162000704700BF900200200420704700207047E0
:10163000FF207047134930B4D1E90025C0F12004E0
:1016400005FA04F4A0F12001C240224325FA01F179
:101650000A4302F00104002554EA050203460ED0B5
:10166000094A115CC1F30012890703D51AB930BCCD
:1016700001F026BC1AB130BC184601F06FBD30BC79
:10168000704700BF68040020380400201F288BBF6B
:1016900000F01F0303461C4A4FF0A04203F5E0731D
:1016A00030B452F82330194AC3F30143032BD2E973
:1016B0000035C0F1200405FA04F4A0F1200223FA59
:1016C00000F343EA040325FA02F243EA020303F0BB
:1016D00001044FF000050CBF0121022154EA05036B
:1016E00010D00B4B01291B5C09D113F0400F09D01E
:1016F000084B094A1B6852F8200030BC184713F009
:10170000200FF4E730BC7047000300507004002045
:101710003804002078040020780300202DE9F347E6
:101720004C4D04462B5C0127A4F12006C4F1200196
:1017300007FA06F627FA01F1C3F3001013F0010FC0
:10174000A8460246444D46EA010607FA04F7A4F10A
:10175000200AC4F1200901D1002874D018F80430FF
:101760009B07214601D5002A53D00020ADF8050083
:101770009DF8063023F003038DF8063003238DF81F
:10178000043018F80430C3F3810C6346012B01D0F8
:10179000032B2CD18DF805C062B3304A01A9204635
:1017A00001F0F4FB2E4AD2E90032E34002FA09F9D3
:1017B00043EA090322FA0AFA43EA0A0303F00100A2
:1017C000002150EA010309D018F804305A0601D468
:1017D0009B0603D50121204601F054FCD5E90023E6
:1017E00017431E43C5E9007602B0BDE8F0878DF8C7
:1017F0000500D1E71F2C9DF8053086BF194A04F07B
:101800001F014FF0A04201F5E0719B0042F821302A
:10181000E4E71F2C88BF134BADF8042094BF4FF0B2
:10182000A04304F01F02D3F804358DF8060098BFDA
:101830002246D34003F0010301A920468DF805306C
:1018400001F0CEFACAE7D5E9002322EA070723EA26
:101850000606C7E738040020680400208D16000043
:10186000700400200003005010B5017001310446DF
:101870000CD007490620FFF70BFD01F06DFA054972
:1018800094F900208B5C43F001038B5410BD00BF22
:10189000D53100003804002038B5044600780D46E4
:1018A000FFF7C8FE94F90000044B1A5C65F383024D
:1018B0001A54BDE83840C0B2FFF730BF38040020EA
:1018C00038B5044600780D46FFF7B4FE94F90000E1
:1018D000044B1A5C65F341021A54BDE83840C0B2AB
:1018E000FFF71CBF38040020234B70B500220446CC
:1018F000184693F90060751C13D093F90150B5F1A7
:10190000FF3F0ED0A64220D18D421ED100EBC20275
:101910001A4B506803F8104003EB4003461C597003
:1019200017D1164B93F9000084421A4603D193F95C
:1019300001308B420CD092F902309C420AD192F9CC
:1019400003508D4206D1012003E001320833D0E775
:10195000002070BD55782840FF280BD0D078034078
:10196000FF2BF0D1012302F8134002EB430218468B
:101970005170EEE70023F6E7704600000A020020EF
:1019800010B5074A074811460023013350F8044BAD
:1019900041F8044B402BF8D1034B9A6010BD00BFB7
:1019A000000000200000000000ED00E007B5052168
:1019B00001A8FFF7B5F89DF904301F2B86BF064933
:1019C00003F01F034FF0A041012202FA03F3C1F814
:1019D0000C3503B05DF804FB0003005000234350B6
:1019E00082B043580193019B02B07047074A2823F5
:1019F000584313180021597413581A6A22B1586AAF
:101A0000800701D5D8691047704700BFE404002063
:101A1000074A2823584313180021597313581A6A88
:101A20002AB1596AC90702D5D86901211047704700
:101A3000E4040020084A2823584313180021D973CE
:101A4000597313581A6B2AB1596B490702D50421EF
:101A500099631047704700BFE404002008B5114B9C
:101A6000024653F82000104BC0F808334FF4A6711B
:101A7000FFF7B4FF4FF48871FFF7B0FFD0F80032E2
:101A800023F02003C0F80032084B282101FB02326A
:101A900001231374002382F824301023C0F8043388
:101AA00008BD00BF7C46000010000800E4040020D0
:101AB000184B2DE9F04153F82040174FDFF85C80B8
:101AC000C4F80883282303FB00F57E1904357069E8
:101AD00000F02BFC2023B3614FF4A6712046FFF7E2
:101AE0007DFF4FF48871FFF779FFD4F8003243F09F
:101AF0002003C4F8003200233D440122B374C4F82B
:101B000034553374C4F8382586F82430C4F8048377
:101B1000BDE8F0817C460000E404002010000800CD
:101B200008B5174B1A7832B100201870154BDB7BC3
:101B3000F3B1FFF77FFF144B1A781AB10020187029
:101B4000FFF754FF114B1A7842B100221A700D4B67
:101B500093F8373001207BB1FFF76CFF0C4B1A78FC
:101B60006AB100221A70BDE808400120FFF73EBFAD
:101B70001846FFF74DFFDEE7FFF74AFFEEE708BD27
:101B800036050020E404002034050020370500203D
:101B90003505002040B9074B01221A70064B4FF45F
:101BA0008012C3F8002170470128FCD1034B187044
:101BB000F4E700BF3605002000E100E03705002013
:101BC000484B2DE9F74F044653F82000D0F8102178
:101BD0009846CAB14FF48871FFF700FF28274249A1
:101BE00007FB04F28B188B461D7C002D3FD0002094
:101BF000187498738B58DA6B32B1196CC80503D519
:101C00004FF480715964904758F82450D5F84C31FE
:101C1000FBB1D5F81031E3B94FF4A6712846FFF7B0
:101C2000DDFE314A28236343191D1344987C80F05C
:101C300001000144186A0A44C5F83425411C4FF0DC
:101C40000102C5F8382504D09969032947D901F064
:101C50008DF9D5F820313BB128464FF49071FFF74C
:101C6000BDFE2046FFF796FF03B0BDE8F08F9F7CD6
:101C7000D0F83CA587F001019974BAF1000FC3D0E8
:101C8000174402F118090437D9445F441E467069AD
:101C900001A900F06CFB68B117F8013B037001A9C2
:101CA000706900F08EFB013501214846FEF79CFF6C
:101CB000AA45ECD1282303FB04BB9BF81130002B71
:101CC000A2D10123094A8BF811304FF4801124B9B5
:101CD00007480370C2F8001196E70648F9E783F851
:101CE0002420B6E77C460000E404002000E100E088
:101CF00034050020350500200120FFF761BF0020DA
:101D0000FFF75EBF2DE9F34141684D1C044610D03A
:101D10001F2987BF494A01F01F030B464FF0A0421D
:101D20000120984003F5E073C2F80805032042F84B
:101D30002300A268501C0CD01F2A8BBF02F01F0387
:101D400013463E484FF0A04003F5E073002540F8ED
:101D5000235023683A4E56F82300C0F80C15C0F8FB
:101D60001425227D012A15D1E268511C0CD01F2AAE
:101D70008BBF02F01F011146304D4FF0A04501F519
:101D8000E071002745F821704FF0FF31C0F80815C9
:101D9000C0F810252B4D2169282707FB03531A6A29
:101DA00091423CD0187F01F0A9FB236807FB035345
:101DB0001B6A013302D0206901F082F82069431CBC
:101DC00027D0214901F00CF8082806D1206901F03C
:101DD00077F81D49206901F003F82368206956F857
:101DE0002310282707FB035201F5887192F81C8005
:101DF000019101F0ADF801990246404601F048FB1F
:101E0000236807FB0353187F01F062FB206901F090
:101E10008DF82368282202FB035523692B6223686F
:101E2000217D56F82320637D0B43C2F86C35A369EE
:101E3000C2F8243502B0BDE8F08100BF00030050B5
:101E40007C460000E40400207846000070B5046879
:101E5000164E28226243B118B2588242054602D17A
:101E600092F82C3083B12846FFF74CFF28236343B8
:101E70002046F550002385F82C3095F82D304BB1D5
:101E8000BDE87040FFF7EABD92F82D200B7C4AB9FF
:101E90003BB12046FFF70CFE054B53F824300122DE
:101EA0001A6070BD002BFCD12046E9E7E404002055
:101EB0007C4600002DE9F84F514B524D17461A78D9
:101EC00004468846002A54D000221A7000F07EFF93
:101ED00008B900F041FF4C4E4C491420FFF7D8F9E7
:101EE000E02386F814334FF48013C6F88031336052
:101EF000DFF84C91464921220123484600F002FABE
:101F0000C5F814904FF00009C5F80090414801F061
:101F100091FA414B41494FF0FF3AC5F820A0022009
:101F2000C3F808A3FFF7B4F9042386F80293C6F8B0
:101F300080313360DFF80CB1394921220123584642
:101F400000F0E0F9C5F83CB0C5F82890354801F03C
:101F500071FA354BC5F848A03449C3F808A32820C6
:101F6000FFF796F94FF4807386F82893C6F884310A
:101F7000736039464046FFF7B7FC28234343EA180D
:101F8000206096680136012E96601ED1284A52F8CC
:101F900020000822C0F800250C334FF0FF32C0F8B3
:101FA0000C251D44C0F814254FF08052C0F824259C
:101FB0004FF49071C0F84455C0F84865FFF70EFD26
:101FC0008660D0F81C31002BFBD01A4BA3614FF078
:101FD000FF33C4E903330023A3822362164B9C42E0
:101FE00008BF164A4FF00103C4E9018708BF136018
:101FF00084F82C302046BDE8F84FFFF727BF00BF1C
:102000000E020020E404002000E100E0211B00009B
:102010007C0400200005002000200040FF1C000080
:10202000B00400202805002000800240F91C0000B8
:102030007C4600000050270038050020A405002041
:10204000A0040020D4040020B1F5166F39DBB1F5EF
:10205000965F39DBB1F5165F39DBB1F5615F38DBCF
:10206000B1F5964F37DBB1F5E14F36DB47F611237B
:10207000994234DDB1F5164F33DBB1F5614F33DBF7
:10208000B1F5963F33DBB1F5E13F33DBB1F5613FAD
:1020900032DB1F4B994232DDB1F5E12F32DBB1F576
:1020A000612F32DB1B4B9942D4BF4FF070614FF070
:1020B000805183698B421EBF0123816180F82C30DF
:1020C00070474FF49E21F4E74FF41D21F1E71249C8
:1020D000EFE71249EDE71249EBE71249E9E7124948
:1020E000E7E74FF40001E4E74FF41D01E1E74FF4A7
:1020F0006B01DEE70D49DCE74FF0EB71D9E74FF0FC
:102100006C71D6E74FF08061D3E74FF0E861D0E71C
:102110008FD003003F420F0000B013000050270093
:1021200000F03A0000A04E0000C0750000903A0197
:1021300038B505680C46FFF789FE104B53F82500AB
:10214000D0F81C31002BFBD04FF48E71FFF746FC0A
:102150000B4A28236B43D1180C3313440122C0F8D7
:1021600044350C73C0F848254FF49071FFF736FCE6
:102170004FF48073C0F80433826038BD7C460000A1
:10218000E4040020014B43600020704784460000B7
:102190000846704700207047024B1868003818BF87
:1021A00001207047A805002008B5024800F0A7F8F4
:1021B000002008BDA805002008B510461A4601F009
:1021C0008BFF002008BD00002DE9F043814687B059
:1021D00014480E461546984600F08EF80446F8B9A5
:1021E0000746BD4216D10F4800F089F8D9F80870AB
:1021F00067B110220021684601F096FF0223CDE965
:1022000004588DF8003002966846B847204607B05B
:10221000BDE8F08306EB073001F0A4F90137E0E7F1
:102220001124F3E7A8050020F0B589B0074612484D
:1022300001920E461D4600F05FF80446D0B90199A0
:10224000AA08304601F0A6F90B4800F058F8BF681C
:102250006FB11022214602A801F066FF01238DF81C
:1022600008300E9B04960695079302A8B8472046AF
:1022700009B0F0BD1124FAE7A805002072B6054A9E
:102280001378191E18BF012101330170137000204B
:10229000704700BFAC050020044B20B11A78013A0A
:1022A0001A7000207047187062B6FAE7AC0500207B
:1022B00010B5034653E8000F40EA010243E800244A
:1022C00094F0000FF6D110BD10B5034653E8002F6F
:1022D00002EA010043E8000494F0000FF6D110BDBB
:1022E00010B5034653E8002FA2EB010043E80004B9
:1022F00094F0000FF6D110BD0121FFF7D9BF0021E6
:10230000FFF7E2BF10B561B1B2FBF3F403FB142495
:10231000A4B244B9C0E9001484608281C38120461C
:1023200010BD0E20FCE70920FAE782B050E8022F2A
:10233000C188B2EB324F4FF0000317BF92B241EAAF
:10234000014142EA014104E04268B2EB324F08BF6A
:10235000012340E80212002AE8D18DF807309DF8E9
:102360000730002B0CBF1120002002B0704737B59A
:1023700050E8013F9DB2C48925448489A54228BF05
:102380002D1B0489A54202BFBFF32F8F002207E057
:10239000C5EA030540E80154002CE9D14FF00102E1
:1023A0008DF803200193019B9DF803200B6002F040
:1023B000FF0322B10B880068184403B030BD1846F3
:1023C000FBE70A884B889A4209D150E8012FC2EAFC
:1023D000024240E80123002BF7D101207047002082
:1023E000704737B550E8023F1FFAA3F5C488A542ED
:1023F00002BFBFF32F8F00220DE0C48925448489DA
:10240000A54228BF2D1BC3EA054540E80254002C15
:10241000E8D14FF001028DF803200193019B9DF854
:1024200003200B6002F0FF0322B14B8800681844C0
:1024300003B030BD1846FBE70A884B889A4209D1A1
:1024400050E8022FC2EA224240E80223002BF7D1D3
:10245000012070470020704770B5064D06460024E5
:1024600055F8043B0BB1304698470134042CF7D1A2
:1024700070BD00BFBC0500200B4A0C4B51881420D6
:1024800000FB0131CB6833B9042049681070012288
:10249000074800F0F8BB07490523137002238B801F
:1024A000012209680023F3E7D4050020EC05002091
:1024B000A40200202806002007B500230549009348
:1024C000054A09680548082300F0AFFB03B05DF832
:1024D00004FB00BF28060020BC460000A402002028
:1024E00007B5002301460093034A0448082300F07F
:1024F0009CFB03B05DF804FBB4460000A40200207E
:1025000013B500230C4600930146084A08480423EB
:1025100000F08BFB38B90749142303FB0414012393
:10252000237402B010BD0E20FBE700BFB0460000D0
:10253000A4020020EC05002037B50A480A4B426887
:102540009C88196853880325033305709BB20020CB
:1025500000909B0001EB8401044800F066FB03B08F
:1025600030BD00BFD405002028060020A4020020B2
:102570004388033300EB8303994209D382884FF6E3
:10258000FF739A4206D00088B0FA80F04009704785
:10259000022070470120704738B5144B14220D46B5
:1025A00002FB00302B68446804F58051A3B15C88BD
:1025B000033403EB84048C4215D22368013312D018
:1025C0002046FFF7D5FF012808D002280BD00028AD
:1025D000F1D12C60012038BD0834ECE76388033367
:1025E00004EB8304E7E70020F5E700BFEC050020DB
:1025F000426873B504460D4662B3234BD9688A42DC
:1026000028D31B699A4225D812F0030322D11F490F
:102610000089098988421DD120689168884219D1B2
:102620001B494868824203D900F5805082420DD38D
:1026300089698A420CD901F580518A4208D2012267
:102640002A80B3FA83F0400902B070BD1A46F7E75A
:102650000A23F6E700232B801E460196288801A94D
:10266000FFF79AFF30B92B8801339BB2012B2B80E7
:10267000F3D9E9E7019B226899689142EED1636042
:10268000024B1B892381DFE7A4020020D405002030
:10269000EC0500202DE9F8431C461C4B1B78064630
:1026A0000F4615466BB372B36CB3DFF868804FF01A
:1026B0001409A388012B01D90A2020E009FB03F3A8
:1026C00018F803302BB9A0882146FFF765FF20B921
:1026D0002060A3880133A380EBE723681EB19988AB
:1026E00032889142EFD11FB119883A889142EAD1DC
:1026F0009A68C5E90023064B1B892B810020BDE8A1
:10270000F8830220FBE70520F9E700BFCC05002095
:10271000D4050020EC05002008B5074B5888191D8A
:10272000FFF73AFF18B1BDE80840FFF705BFBDE865
:102730000840FFF7A1BE00BFD40500202DE9F04FEF
:10274000A14FDFF8A89289B00646B8463B6823B986
:102750009E484946FFF745FE3860D8F80050297872
:102760004B1E052B07D8DFE813F021007900790014
:10277000090109015D010F241422002103A801F0C1
:10278000D3FC41F61D539C4208BF0024D8F800300A
:1027900004941A78013A052A00F2EF81DFE812F07A
:1027A000DB01DF01FF010F021B02250226B1884B6E
:1027B00000225A600124DFE72B79032B1DD8DFE8C4
:1027C00003F015022A3583490B78022B084619D0ED
:1027D0000B7D022B4FF0010316D114225343C21874
:1027E0000020C8545068FFF77BFE03E001232B71E3
:1027F000FFF762FE002800F0BC80754B00225A6093
:102800000E24B9E70023E8E7714A137000235360F0
:1028100041F61D54B0E770497048002302222B7125
:102820008A800968012200F02EFAE3E76A4C00264C
:102830002E712068674DFFF753FE694BD4F800C036
:102840005A8814235343EA18EE5451682160A18832
:10285000C2F804C011810222A280CBE7B5F814A00F
:10286000AA7DDFF870B1AEB1022AEB8806D9142137
:1028700001FB0AB1DA1C088902440A81142202FB16
:102880000ABAC3F57F43BAF80A20FD331344AAF805
:102890000A308FE7142303FB0AB318895C6804EB42
:1028A0008004062A68D8DFE802F0274D35431D5919
:1028B000040041F61D54AA7DEB88022A06D9142192
:1028C00001FB0AB1DA1C088902440A81142202FBC6
:1028D0000ABAC3F57F43BAF80A20FD331344AAF8B5
:1028E0000A3049E73F48404900234360AB69036031
:1028F000FFF77EFE002859D00223AB75002300931A
:102900000423EA182146354800F08FF9002830D01A
:102910000E24D0E72B69002B14BF03230123AB75D2
:102920000023009305F10C02042304F10801EAE7F7
:102930000123AB750022EB8800922A699B0004F109
:102940000C01E0E703290CBF05230623AB75002328
:102950000093042305F10802E118D4E70623AB75C0
:10296000214B19881F4B5868FFF7CAFD0446002801
:10297000A1D109B0BDE8F08F0F249CE7002E7FF4B1
:1029800019AF2B79012B33D0022B3FF441AF002B31
:102990007FF4F1AE02232B710DF10A01EB68039372
:1029A00003A8CDE90466FFF723FE08B90A24E3E68D
:1029B0000498BDF80A108388EB8003882B81FFF709
:1029C0009FFD044627E000BFE80500201406002014
:1029D000CC050020EC05002028060020A4020020E1
:1029E000D4050020B005002030060020E4050020BA
:1029F000DFF810A203AA53463146A81DFFF74AFE8E
:102A0000044660B9BAF804100498FFF779FD04464B
:102A10000A2C3FF4FDAE002C7FF4AEAEA9E7CAE964
:102A20000066F5E7002E7FF4C5AE714B1A7BBAB194
:102A30001E731A78013A062A3FF69DAE01A151F89D
:102A400022F000BFEB2A0000112B00002F2B00000A
:102A5000352B0000772700003B2B00004D2B00009A
:102A60001A78072AE5D801A151F822F08D2A000032
:102A7000332A0000332A0000B32A0000C72A0000CE
:102A8000E72A0000E72A0000AF2A00001A89594906
:102A900001321A8100225A801A730A78B2FA82F23D
:102AA00052099A720A7DB2FA82F25209DA7201224E
:102AB00007E0514958688A884088033202448A8076
:102AC00002221A70B5E74B4C5A884B49142505FB76
:102AD00002420868546850608888108102228A8007
:102AE0000C600622EDE70722EBE79A7A32B9DA7A30
:102AF0008AB900221A705A805A6089E63D4900223C
:102B00009A72CA68002AF2D1097C0029EFD05A8053
:102B1000FFF702FE55E70022DA72364A116A0029F1
:102B2000E7D192F82420002AE3D00122EFE7FFF753
:102B300003FD46E7FFF7A0FC43E72E4A5B8814211C
:102B400001FB03235868FFF7CBFC3AE700225A60E9
:102B5000FFF7B2FC35E700238DF80C300DE00122C1
:102B60008DF80C201A89ADF818209A88DB68059337
:102B7000ADF81A2000238DF81C3003A8FFF76CFC79
:102B8000002649461D48C8F80060FFF755FC1C4860
:102B90000121FFF7A5FB00287FF4D8ADE9E602226A
:102BA0008DF80C201A89ADF818209A88ADF81A20F3
:102BB000DA689B7D05929A1F53425341DBE703225B
:102BC0008DF80C20DA88ADF818201A89DB68ADF88A
:102BD0001A200593D1E704228DF80C20DB88ADF88C
:102BE00018300023ADF81A30F3E70523B4E700BF2F
:102BF000D4050020EC050020280600201406002043
:102C000024060020340600204068FFF797BD0B46DD
:102C100010B4114628B123B103605DF8044B1B6862
:102C200018470E205DF8044B70472DE9F04108B3BA
:102C300002B3D0F800E0BEF1000F1ED0FBB1456832
:102C4000D5F80480B3FBF8F508FB1535BDB942EAA9
:102C5000010C1CF0030F14D1C568A94211D34D1EFD
:102C6000EC180569AC420CD8DEF80C40A446BDE86F
:102C7000F04160470E20BDE8F0810820FBE7092005
:102C8000F9E71020F7E7F0B5D8B1D0F800C0BCF1F3
:102C9000000F18D0CAB14768D7F800E00EF1FF372F
:102CA0000F4214D1C768B94211D304694D1E0EFBFF
:102CB0000255A5420BD8DCF81040A446BDE8F04010
:102CC00060470E20F0BD0820FCE70920FAE710203D
:102CD000F8E7FDF7A7BFFDF7AFBF00F1804000F5B3
:102CE000C040002382B0036003680193019B02B0DF
:102CF0007047000003681F2B83BF03F01F030360AE
:102D000001484FF0A04070470003005007B5019004
:102D100001A8FFF7EFFF019B00EB8300D0F800371D
:102D200023F44033C0F80037D0F8003743EA0141BC
:102D3000C0F8001703B05DF804FB0000054B4FF02E
:102D4000FF32072843F8202084BFC01880F858209D
:102D5000704700BF3C06002010B5184C94F86A304C
:102D60004BBB04F130033021FF22013911F0FF0188
:102D700003F8012BF9D1C8B2FFF7E0FF01310C29AC
:102D8000F9D10F4B002262669A800E4BE02183F846
:102D900006134021C3F8801119604FF4BE70FFF78D
:102DA0009CFF094B4FF00041C3F80413012384F842
:102DB0006A30104610BD0820FCE700BF3C0600202A
:102DC000A006002000E100E000600040034B93F803
:102DD0006A00003818BF0120704700BF3C06002081
:102DE00037B5354B1A18044692F93000013061D1DD
:102DF0008878002852D01846002250F8045B01352C
:102E000046D1181980F83020002043F822009200A3
:102E100002F1804202F5C0420B78D2F81055487892
:102E200025F499151B04000525F4F85500F48010CD
:102E300003F44033C2F8105503432002D2F8105572
:102E400000F47C5003432B43C2F810354A780194B8
:102E5000012A01A826D1FFF74DFF019B9A40C0F837
:102E6000082501A80194FFF745FF019B134903F5CD
:102E7000E073032240F8232024FA02F2012304F035
:102E8000070003FA00F08B5C18438854002003E02D
:102E90000132082AB1D1042003B030BDFE2382F8EC
:102EA0003030D3E7FFF726FF019A01239340C0F8A3
:102EB0000C35D6E70820EFE73C060020A0060020EE
:102EC00037B5174C2518014695F83000072809D862
:102ED000FFF734FF95F93030124A03F5A273002052
:102EE00042F823006318FF220F4D83F83020CC08EE
:102EF00001F0070301229A402B5D13420DD001A877
:102F00000191FFF7F7FE019B03F5E073022140F802
:102F100023102B5D23EA02022A5503B030BD00BF07
:102F20003C06002000600040A0060020074B18442B
:102F300090F930309B0003F1804303F5C043D3F890
:102F4000102542F00302C3F8102570473C0600200C
:102F5000054B184490F930008000C0B200F1804069
:102F600000F5C040704700BF3C060020064B1844E7
:102F7000012290F9303018339B00DBB203F180431B
:102F800003F5C0431A6070473C060020F7B53B4E7E
:102F90003318054693F93030002B6CDA8B78C3F385
:102FA0004003002B0BBF082400240C20082084427F
:102FB00002D1042003B0F0BD56F82470013743D18C
:102FC000701946F8242080F8304013B9331983F87B
:102FD00058508B785A0717D4D80737D501A80195D0
:102FE000FFF788FE019B00EB8300D0F8003723F049
:102FF0000203C0F800372248EA0805F0070701235A
:10300000BB40875C3B4383548B780A7813F0020300
:1030100028D0A40004F1804404F5C0442D02D4F863
:10302000103523F44F3323F44073C4F810351204E1
:10303000D4F8103505F47C5502F4403215431D4395
:10304000C4F810550020B5E70134B0E701A84A786C
:103050000195FFF74FFE019B03F5E073920040F8E6
:103060002320C8E7083C344494F8605045EA8212B3
:1030700084F86020E6E708209CE700BF3C060020BB
:10308000A006002073B5224C2618054696F930207C
:10309000072A1ADD224492F858309B09032B0FD1DE
:1030A000019001A8FFF726FE019BD0F81015D9402A
:1030B00001F0010102312846FFF728FE02B070BD81
:1030C000012B0CBF02210321F5E7D3B2072BF5D862
:1030D000930003F1804303F5C043D3F8100540F09B
:1030E0000100C3F8100502F14000800080B2FFF734
:1030F000F4FD0029E2D096F9303054F82330002B4B
:10310000DCD0012303FA02F2024BC3F80423D5E713
:103110003C060020006000400E4B034493F9302031
:10312000072A02DD0021FFF7F1BDD3B2072B10D82B
:10313000930003F1804303F5C043D3F8101521F049
:103140000101C3F81015012303FA02F2024BC3F880
:10315000082370473C06002000600040F7B5044695
:10316000FFF7DAFF1849194E0A19E50892F93030CD
:1031700092F83020072A98BF03F5A2730A469EBF33
:103180001349002041F8230004F00703012199406E
:10319000735D0B420DD001A80194FFF7ABFD019BBD
:1031A00003F5E073022740F82370735D23EA010101
:1031B0007155144494F83000FFF7C0FDFF2384F8E4
:1031C000303003B0F0BD00BF3C060020A006002058
:1031D000006000402DE9F04F002489B0CDE90244A1
:1031E000624D4FF48072012102F1804303F5C04328
:1031F00090B21B68012B06D1D5F804330B4202D0E4
:10320000FFF76BFD0C430432B2F5907F4FEA4101AA
:10321000EAD1574B1B68012B0ED14FF4BE70FFF75C
:103220005CFD4FF0A04344F00044D3F81035029306
:10323000504BD3F81035039314F0FF0F1AD04E4FB4
:1032400001260025264210D0AB0003F1804303F590
:10325000C043D3F81005D3F8101557F8253023B123
:10326000C1F30141C0F3052098470135082D4FEA0D
:103270004606E7D1002C75DA04AF002304937B6087
:103280004FF0FF33CDE90633DFF8EC90DFF8EC8048
:1032900000252E4618F9012B531C4AD0C2F3C20058
:1032A0000123D4B202F03F0B02F0070203FA02F24C
:1032B00008AB191811F8083C13423AD009EB0B037C
:1032C000A40993F9303059F823A0BAF1000F08D1BE
:1032D000032C2ED117F800C04CEA020C07F800C0EE
:1032E00001E0032CF6D001A8CDF804B0FFF702FDF1
:1032F000019B11F8181C03F5E07C114250F82C00DA
:10330000C0F3014005D0022813D1032C0BD1214674
:1033100004E003280DD1032C05D102215846FFF704
:10332000F5FC0135EDB2BAF1000F02D02146584646
:10333000D0470136042EADD1A5B14FF0A04302997C
:10334000D3F8102503F540739142D3F8103502D11C
:103350000399994206D002920393049A059B069220
:10336000079393E709B0BDE8F08F00BF006000400D
:103370007C610040000300503C0600209C060020B9
:1033800000F180431A68002A1BBF002201200020A0
:103390001A6070474FF0804310B5D3F804436207BA
:1033A00007D54FF48470FFF7EBFF10B11E4B1B687D
:1033B0009847A30608D54FF48A70FFF7E1FF18B1CC
:1033C0001A4B00201B689847600608D54FF48C7094
:1033D000FFF7D6FF18B1154B01201B68984721064F
:1033E00008D54FF48E70FFF7CBFF18B1104B0020BB
:1033F0001B689847E20508D54FF49070FFF7C0FFAF
:1034000018B10B4B01201B689847A3050AD54FF450
:103410009270FFF7B5FF28B1054BBDE810401B685F
:103420000220184710BD00BFA8060020AC060020EF
:10343000B00600202DE9F84F134DDFF85080074605
:103440004FF0000A04264FF001095FFA8AFB0020C2
:1034500009FA0BF4FFF73DFC2C420AD0D8F80030F3
:1034600014EA030201BF2343C8F8003087F800B014
:1034700016460020FFF72FFC1EB1A5430AF1010AF2
:10348000E3D13046BDE8F88FFFFF0F00B4060020FF
:1034900010B5A1B19AB101238340C3F3130484B1E1
:1034A0000A4C246823420ED0C00000F1804000F591
:1034B000F830C0F81015C0F81425002010BD0E20FB
:1034C000FCE70720FAE70820F8E700BFB406002071
:1034D000012303FA00F0C0F313031BB1054B1B6873
:1034E000184204D0044BC3F804050020704708209C
:1034F000704700BFB406002000F00140012303FA2A
:1035000000F0C0F313031BB1054B1B68184204D035
:10351000044BC3F80805002070470820704700BF1F
:10352000B406002000F00140074B00221A6082B070
:103530001B680193019B054BD3F80805044B1B68DE
:10354000C0B202B0184700BF00D1004000D0004018
:10355000B8060020024AD2F80034002BFBD0704796
:1035600000E001400A4908B50223C1F80435BFF361
:103570006F8FBFF34F8FC1F80805FFF7EBFF0023F4
:10358000C1F80435BFF36F8FBFF34F8F08BD00BF85
:1035900000E001400E4B10B50124C3F80445BFF311
:1035A0006F8FBFF34F8F01EB8204401AA14208D105
:1035B000074B0022C3F80425BFF36F8FBFF34F8F73
:1035C00010BD431851F8042B1A60FFF7C3FFEDE755
:1035D00000E00140014BD3F80405704700100140A2
:1035E000054B0649186843F2390201FB002020F020
:1035F00000401860C00B7047140200206D4EC64199
:1036000082B003460191019A2AB1084B1B68019AC6
:10361000002102B01847019830B9019A8A4218BFB8
:103620000023184602B070471346FAE71002002044
:1036300010B5FFF7D5FF0446FFF7D2FF40EA04407C
:1036400010BDF7B5002304460F46019315464AB94D
:10365000019BB3EB450F4FEA450232D000242046D0
:1036600003B0F0BDFFF7E4FFB0FBF5F606FB15066F
:10367000FFF7DEFF3346C0B2AB4210D33346F9B298
:10368000AB4212D30023B34215D10023FFB2B342A1
:10369000DED0E754019A013201920133F7E7E0549A
:1036A000019A013201920133E6E7E154019A0132B5
:1036B00001920133E4E7E054019A013201920133AF
:1036C000E1E7019B9A4218BF0024C8E7F7B5002341
:1036D00005460F4601931446CAB1FFF7A9FFB0FB98
:1036E000F4F606FB1406FFF7A3FF2246C1B22846F4
:1036F00000F01AFD3346FA5CEA54019A01330132B4
:103700000192B3FBF4F204FB1233B342F3D1019BF9
:10371000A34206D1019BA34218BF0025284603B04F
:10372000F0BD0025FAE710B50446FFF781FFB0FBB6
:10373000F4F303FB140010BD70470B0E03700B0C69
:1037400043700B0A8370C17004307047006800BA80
:1037500070476822002100F0E7BC10B16821FFF734
:103760004FBF70470D490E4ADFF848C0C0E902124A
:103770000C4A0D49C0E904C20C4AC0E906120C4AC1
:10378000026202F17452A2F523020023A2F69242D1
:10379000C0E9003342621846704700BF67E6096A15
:1037A00085AE67BB3AF54FA57F520E518C68059BDD
:1037B000ABD9831F72F36E3C2DE9F04FD1B00023DB
:1037C00007930346283300F1080708AD03930290DE
:1037D00088462A463B4653F8041B42F8041B0399CB
:1037E0009942F8D11020FFF79EFF10AC81464FF4AC
:1037F000807200212046FFF724FFCA46BAF10F0F5E
:1038000067D908EB8909A246C1456ED1D5E90528DB
:10381000D5E9001ED5E9026A0192EB69504AD5F854
:1038200010C005924FF00009059854F804BB50F8F9
:10383000042B05904FEAFC2080EABC105A4480EA31
:103840007C601044019A88EA020202EA0C0282EAD1
:1038500008021044034403EB0A0041EA0E024FEA57
:10386000713A8AEAB10A324001EA0E0B8AEAB15A89
:1038700042EA0B0252441344079A049309F10109E6
:103880000132B9F1400F07923AD1CDE90831079BD7
:10389000019ACDF83C80502BCDE90DC2CDE90AE666
:1038A0000C9013D1002307933B6855F8042B134465
:1038B00047F8043B079B01330793039BBB42F3D1BB
:1038C000079B082B43D00298FFF747FF6FF070006B
:1038D00043E008EB8A00FFF739FF079B44F82A0012
:1038E000013307930AF1010A88E74046FFF72EFFEC
:1038F000079B4AF8040B0133079308F1040883E798
:10390000B9F10F0F18D954F8082C54F83CBC54F8EE
:103910001C3C4FEAF24A8AEA724A8AEA922A54F82E
:10392000402C13444FEABB4282EAFB129A4482EADB
:10393000DB0B0AEB0B022260B24643467646DDF80B
:103940000480CDF804C08E46844604996CE7FFF7E6
:10395000F3FE079B082BB6D1002051B0BDE8F08FD5
:10396000C44600002DE9F7430192019B04460E4630
:1039700017461BB9002003B0BDE8F083019B036824
:10398000019A03F03F081344019A036093423EBF3B
:10399000436801334360B8F1000F37D0019BC8F191
:1039A0004005AB4232D300F128092A4609EB080052
:1039B000FFF78CFE49462046FFF7FEFE0028DAD1CD
:1039C000019B403B4344354401938046019B3F2B80
:1039D00011D8019B33B104F12800019A29464044D3
:1039E000FFF774FE019B3F2B12D92046FFF7B5FE6F
:1039F0006FF07000BFE729462046FFF7DDFE002884
:103A0000B9D1019B403B40350193DFE73546DDE707
:103A1000FFF792FE019ABF1A3E44B542AAD0E4E7EE
:103A20002DE9F347036803F03F035A1C0E46034495
:103A3000002104460191802083F82800019B04F1B5
:103A400028070133382A019307EB020045D8C2F159
:103A50003802FFF7F6FDD4E900516B0F43EAC101CC
:103A600004F16000FFF769FEE90004F16400FFF76C
:103A700064FE019B3946013320460193FFF79CFE0B
:103A8000054630BB0720FFF74EFE20220746294699
:103A90003046FFF7D6FD06EB870AB94604F1080861
:103AA000B9F1060F28DD616A06F11C00FFF745FE3B
:103AB0004FF00009B9452CDB019B092B35D020467E
:103AC000FFF74BFE202200213046FFF7BAFD6FF0D2
:103AD0007005284602B0BDE8F087C2F14002FFF74A
:103AE000B0FD39462046FFF767FE05460028F0D1B5
:103AF000014638223846ACE758F829105046FFF7FF
:103B00001CFE019B0133019309F101090AF1040A2A
:103B1000C6E706EB890058F8041BFFF70EFE019B71
:103B20000133019309F10109C4E7FFF705FE019B89
:103B3000092BCED0C3E70000094B002230B503F8B3
:103B4000132F084DB0FBF1F201FB12042C5D03F8BA
:103B5000014D0446A1421046F4D9184630BD00BFBD
:103B6000BD060020D447000038B5054D441E14F8AA
:103B7000011F01B938BD2846FEF7DAFAF7E700BFA2
:103B8000D40600200FB473B52F4D069C2B785BB97B
:103B90002E4808220621FEF78DF92C484FF4E1311A
:103BA000FEF752FA01232B7007AB284E01932178C0
:103BB00021B902B0BDE8704004B0704725290FD18B
:103BC00014F8013F2249002211F8010B834220D052
:103BD0000132102AF8D1002BF2D1EAE701780192E4
:103BE0003046FEF7A5FA2CE005680192002D04DAB4
:103BF0002D2130466D42FEF79BFA0A212846FFF739
:103C00009BFF1CE001920A210068F8E70192102155
:103C1000FAE70198692B00F10402E5D007D8632B7D
:103C2000DCD0642BE0D0582BF0D0019209E0752B4A
:103C3000E8D0782BEAD0732BF7D100680192FFF718
:103C400093FF0134B3E700BFBC060020D406002078
:103C5000C447000010B50E4CA0220021204600F001
:103C600063FA0C48702322464FF40041FCF714FF1E
:103C700058B92268084B9A4206D00146A022204635
:103C800000F052FA6FF02B0010BD6FF02300FBE73D
:103C900040070020F4070020A353025C10B58CB04D
:103CA00000211C2205A8049100F03EFAFFF7D2FF84
:103CB000044628B11448FFF765FF20460CB010BD3C
:103CC000124C03A862680192FCF77EFD019A28B1AC
:103CD0006FF0280403A8FCF79FFDEEE74FF40241C4
:103CE0000398FCF789FD039804A9FCF78DFD0028D3
:103CF000EED104F11001202204A800F0DFF9041E27
:103D000018BF6FF01904E5E7E54700004007002001
:103D1000F7B50378012B04466FD0022B00F09F808B
:103D2000002B40F0BD80644C0569227892BB23785B
:103D3000002B45D14FF4004160486D68FDF764FCED
:103D40004FF4004106465D48FDF75EFC05F502476D
:103D50004FF400423946B2FBF6F300FB03F4574838
:103D6000FDF752FC394606465448FDF74DFC05F573
:103D70000143B4F5004F03F1FF03B3FBF6F303FB7C
:103D8000000502D04E48FFF7FDFE4C4FA54227D854
:103D9000002006E04B484C4B02689A4203D06FF07B
:103DA0001F0003B0F0BD202205F176011030019212
:103DB00000F084F90028F2D1019B202BB7D0EEE768
:103DC000404B414A1968914207D1D3E90201D5E934
:103DD0000223994208BF9042ACD36FF01A00E0E78B
:103DE00021463846FDF710FC214606463846FDF7C9
:103DF000A9FB00285AD13444C8E7036982684168A6
:103E00005D68114464235943B1FBF5F14AB10520C3
:103E10005343B1FBF0F6B3FBF5F3B3FBF0F39E4273
:103E200003D92A482522FFF7ADFED4E90131E26823
:103E3000224801F50241FDF7A7FB28B12448FFF70E
:103E4000A1FE6FF02200ACE7D4E90120E16800F5A3
:103E5000024000F033F900289AD01E48EFE71E4BCD
:103E60001D686F23B3FBF5F303FB0555284600F0EF
:103E700015F90646B8B12A46002100F055F9216926
:103E80007022304600F028F90C482B4632464FF499
:103E90000041FDF779FB00283FF47AAF0F48CEE7E9
:103EA0006FF028007DE76FF021007AE70C486FF093
:103EB0002201FFF767FEC4E718020020F407002084
:103EC000FD47000040070020A353025C2448000087
:103ED0003C4800004E480000F00700206448000005
:103EE0007A48000013B52048FCF7B4FC38BBFCF757
:103EF00073F920BB1D48FCF7BFF9044608BB1C48FA
:103F0000FCF7C8F90446E0B91A48FDF78DFB1A4BD7
:103F1000154A1860194B0093214603460120FCF70F
:103F2000B1FB044698B91648FFF72CFEFCF772F96E
:103F30001048FDF705FB0C48FCF78EFC04E06FF021
:103F400028041048FFF71EFE204602B010BD10F1F5
:103F50002C0FEBD1FCF75EF90648FDF7F1FA0248A9
:103F6000FCF77AFC0848EDE78C480000EC070020DD
:103F7000F8070020F4070020F0070020113D0000A2
:103F8000C448000091480000A748000030BFFDE78A
:103F900030B5264885B0FFF7F5FD6FF028032448BB
:103FA000019302930393FDF7ADFA044600283BD139
:103FB000FFF750FEFFF796FF0390039B2C3312D0C0
:103FC000039B7BB1FFF76AFE0290029D45B1194B3E
:103FD0001C70FFF787FF0390039DB5FA85F56D0907
:103FE000012401E001242546FFF758FE0290029BC0
:103FF0007BB1029B0193BCB1BFF34F8F0E490F4BB6
:10400000CA6802F4E0621343CB60BFF34F8F00BF76
:10401000FDE725B1029B13B90948FFF7B3FD4FF443
:104020000240FCF787FDE6E730BFFDE7DA48000015
:10403000F40700201802002000ED00E00400FA055B
:1040400002490000024B0A4601461868FCF76FBDA2
:104050001C02002070B50D4D0D4C641BA4100026F1
:10406000A64209D10B4D0C4C00F0C6FA641BA410FB
:104070000026A64205D170BD55F8043B984701368D
:10408000EEE755F8043B98470136F2E7800200203E
:10409000800200208002002084020020024B0146A2
:1040A0001868FCF740BD00BF1C020020024B01460F
:1040B0001868FCF73ABD00BF1C02002030B501397A
:1040C0000024A24201D1002005E0035D01340D5D12
:1040D000AB42F6D0581B30BD0A44914200F1FF3389
:1040E00000D1704710B511F8014B03F8014F914210
:1040F000F9D110BD884210B501EB020402D9844207
:10410000234607D8431EA14208D011F8012B03F81B
:10411000012FF8E7024401468A4200D110BD13F88E
:10412000014D02F8014DF7E702440346934200D1E6
:10413000704703F8011BF9E713B54A431146019292
:10414000FCF7F1FC044618B1019A0021FFF7ECFFDF
:10415000204602B010BD000037B5002948D051F804
:10416000043C0190002BA1F10404B8BFE418FCF753
:104170001BFE204A01981368154633B9636014602A
:1041800003B0BDE83040FCF713BEA3420BD9216851
:104190006218934204BF1A685B68636004BF5218D8
:1041A00022602C60ECE71A465B680BB1A342FAD997
:1041B00011685518A5420BD1246821445418A34214
:1041C0001160DDD11C685B68536021441160D7E742
:1041D00002D90C230360D3E7256861198B4204BF21
:1041E00019685B68636004BF491921605460C7E7C0
:1041F00003B030BDE0070020F8B5CD1C25F0030565
:1042000008350C2D38BF0C25002D064601DBA942D0
:1042100003D90C2333600020F8BDFCF7C5FD21490C
:104220000A6814469CB9204F3B6823B921463046A2
:1042300000F03CF838602946304600F037F8431C5F
:1042400023D10C2333603046FCF7B2FDE3E723684B
:104250005B1B17D40B2B03D923601C44256004E09F
:104260006368A2420CBF0B6053603046FCF7A0FDB0
:1042700004F10B00231D20F00700C21ACCD01B1A3A
:10428000A350C9E722466468CCE7C41C24F00304A9
:10429000A042E3D0211A304600F008F80130DDD109
:1042A000CFE700BFE0070020E407002038B5064D47
:1042B0000023044608462B60FCF754FD431C02D142
:1042C0002B6803B1236038BDFC070020034613F8B8
:1042D000012B002AFBD1181A0138704710B56AB1BA
:1042E0000139841810F8013B11F8012F934203D1D2
:1042F000A04201D0002BF5D1981A10BD1046FCE762
:1043000053B94AB9002908BF00281CBF4FF0FF313C
:104310004FF0FF3000F06EB9ADF1080C6DE904CE3E
:1043200000F006F8DDF804E0DDE9022304B0704790
:104330002DE9F047089D04468C46002B40F0838011
:104340008A42174647D9B2FA82F242B1C2F120003E
:1043500024FA00F09140974040EA010C94404FEA63
:104360001748230CBCFBF8F61FFA87FE08FB16C1A2
:1043700043EA014306FB0EF1994209D9FB1806F105
:10438000FF3080F01981994240F21681023E3B4491
:104390005B1AA4B2B3FBF8F008FB103344EA034401
:1043A00000FB0EFEA64509D93C1900F1FF3380F051
:1043B0000581A64540F2028102383C4440EA0640AD
:1043C000A4EB0E0400261DB1D4400023C5E9004330
:1043D0003146BDE8F08702B9FFDEB2FA82F2002A68
:1043E00050D1CB1B4FEA174E1FFA87F80126B3FBBB
:1043F000FEFC210C0EFB1C3341EA034108FB0CF3CD
:104400008B4207D979180CF1FF3002D28B4200F2AF
:10441000E9808446C91AA3B2B1FBFEF00EFB10116D
:1044200043EA014408FB00F8A04507D93C1900F114
:10443000FF3302D2A04500F2D9801846A4EB08044D
:1044400040EA0C40BFE78B4209D9002D00F0B18053
:104450000026C5E9000130463146BDE8F087B3FAD1
:1044600083F6002E4AD18B4202D3824200F2B880FA
:10447000841A61EB030101208C46002DA8D0C5E908
:10448000004CA5E7C2F1200320FA03F6974001FA99
:1044900002F04FEA174ED9403043030CB1FBFEF651
:1044A0001FFA87F80EFB161143EA014306FB08F1D9
:1044B000994204FA02F409D9FB1806F1FF3C80F096
:1044C0008D80994240F28A80023E3B445B1A81B261
:1044D000B3FBFEF00EFB103341EA034100FB08F38F
:1044E0008B4207D9791800F1FF3C73D28B4271D906
:1044F00002383944CB1A40EA064678E7C6F1200C68
:1045000003FA06F422FA0CF31C4320FA0CF701FA22
:1045100006F34FEA144E21FA0CF11F433B0CB1FB9A
:10452000FEF91FFA84F80EFB191143EA014109FB59
:1045300008FA8A4502FA06F200FA06F308D9611869
:1045400009F1FF3048D28A4546D9A9F10209214430
:10455000A1EB0A01BFB2B1FBFEF00EFB101147EA5E
:10456000014700FB08F8B84507D9E71900F1FF310A
:104570002ED2B8452CD90238274440EA0940A7EB8F
:104580000807A0FB02894F45C64649461AD317D0F3
:104590005DB1B3EB0E0267EB010707FA0CFCF240CA
:1045A0004CEA0202F740C5E9002700263146BDE883
:1045B000F0872E4628460BE70646E9E61846FDE654
:1045C0004345E5D2B8EB020E69EB04010138DFE7A1
:1045D0000846D2E760468DE78146B9E7664675E74B
:1045E00030464AE7ACF1020C394413E702383C4448
:1045F00024E700BF704700BFF8B500BFF8BC08BC97
:104600009E467047F8B500BFF8BC08BC9E46704790
:10461000464C415348494150000000000000000052
:1046200000000000E1110000F5110000D9100000A9
:10463000B5110000470E00000D0F0000490F0000EB
:10464000850F00004B0E00004F0E0000BB0F000056
:10465000471000005F100000D10F0000550E000051
:1046600079100000E70F0000650E00005D0E0000ED
:10467000FFFF0000FFFFFFFF0101010000200040DD
:104680000080024000100000040000000100000053
:1046900085210000A9210000B92100002922000085
:1046A000C9210000912100009521000099210000FE
:1046B0000000FFFFDEC0ADDEFE011EF1DEC0ADDE9C
:1046C000FF011EF1982F8A4291443771CFFBC0B58C
:1046D000A5DBB5E95BC25639F111F159A4823F92CD
:1046E000D55E1CAB98AA07D8015B8312BE85312426
:1046F000C37D0C55745DBE72FEB1DE80A706DC9BE7
:1047000074F19BC1C1699BE48647BEEFC69DC10F92
:10471000CCA10C246F2CE92DAA84744ADCA9B05CCE
:10472000DA88F97652513E986DC631A8C82703B091
:10473000C77F59BFF30BE0C64791A7D55163CA069F
:1047400067292914850AB72738211B2EFC6D2C4DAB
:10475000130D385354730A65BB0A6A762EC9C28199
:10476000852C7292A1E8BFA24B661AA8708B4BC22F
:10477000A3516CC719E892D1240699D685350EF459
:1047800070A06A1016C1A419086C371E4C77482710
:10479000B5BCB034B30C1C394AAAD84E4FCA9C5B86
:1047A000F36F2E68EE828F746F63A5781478C884D7
:1047B0000802C78CFAFFBE90EB6C50A4F7A3F9BEB9
:1047C000F27871C6636475737858696545666747A2
:1047D0006F706E7A30313233343536373839414282
:1047E00043444546005B455252205D20726561643A
:1047F000206677206865616465720D0A005B45522A
:1048000052205D2068656164657220616464726530
:104810007373206973206E6F7420616C69676E65B5
:10482000640D0A005B424F4F545D20466C61736813
:10483000696E6720256C7525630D0A005B45525231
:10484000205D20666C617368696E670D0A005B45C8
:104850005252205D20666C617368207665726966CD
:10486000790D0A005B455252205D20466C617368E9
:10487000206865616465720D0A005B455252205DD7
:104880002045726173652025640D0A004D41494E33
:10489000005B455252205D20496E69742073746F2D
:1048A000726167650D0A005B424F4F545D204361A2
:1048B0006E646964617465206E6F7420666F756ED6
:1048C000640D0A005B424F4F545D20496E73746162
:1048D0006C6C20646F6E650D0A005B424F4F545D37
:1048E000204275696C642061743A204D61722031F8
:1048F0003720323032312031353A34373A34310DC5
:104900000A005B424F4F545D204E6577206163740F
:10491000697665206669726D7761726520697320BA
:1049200076616C69640D0A0D0A0000000000000049
:104930000000000000000000000000000000000077
:104940000000000000000000000000000000000067
:104950000000000000000000000000000000000057
:104960000000000000000000000000000000000047
:104970000000000000000000000000000000000037
:104980000000000000000000000000000000000027
:10499000B0B7FF7F01000000000800200090D003A6
:1049A0000101FFFFFFFF0100433600003930000026
:1049B0000100000020020020000000004C4900001F
:1049C0006C4900002C4900000000000000000000BD
:1049D00000000000000000000000000000000000D7
:1049E00000000000000000000000000000000000C7
:1049F00000000000000000000000000000000000B7
:104A000000000000000000000000000000000000A6
:104A10000000000000000000250100000000000070
:104A20000101000000000000000000000000000084
:104A30000000000000000000000000000000000076
:104A400000000000092C0000000000000000000031
:00000001FF
